:1000000001C600001CC600001AC600000C94C430D3
:1000100016C6000014C6000012C6000010C600007C
:100020000EC600000CC600000C94A22D0C948A2E63
:100030000C943D1604C6000002C6000000C6000075
:10004000FEC50000FCC50000FAC50000F8C50000B0
:10005000F6C500000C947E2DF2C50000F0C500002E
:10006000EEC50000ECC50000EAC50000E8C50000D0
:10007000E6C50000E4C50000E2C50000E0C50000E0
:10008000DEC50000DCC50000DAC50000D8C50000F0
:10009000D6C50000D4C50000D2C50000D0C5000000
:1000A000CEC50000CCC50000CAC50000110010007C
:1000B00000001900050000000B000D3200000922AD
:1000C0000A0000001C0018000000150017000000C6
:1000D0003700380000002C0028000000050109024C
:1000E000A10185020901A1000509190129081500CE
:1000F0002501950875018102050109300931158135
:10010000257F95027508810609381581257F95019F
:1001100075088106050C0A38021581257F95017541
:10012000088106C0C005010980A10185031A81006C
:100130002A8F00168100268F00950175108100C05E
:10014000050C0901A101850419012AA00215012647
:10015000A002950175108100C005010906A1018565
:1001600006050719E029E7150025019508750181A5
:10017000020507190029EF1500250195F075018189
:10018000020508190129059505750191029501756A
:10019000039101C005010906A101050719E029E73E
:1001A00015002501950875018102950175088101E9
:1001B0000507190029FF150026FF0095067508811F
:1001C00000050819012905150025019505750191FE
:1001D00002950175039101C009023B00020100A0D4
:1001E000FA090400000103010100092111010001C5
:1001F00022440007058103080001090401000103EE
:1002000000000009211101000122B8000705820346
:100210002000011201000200000008534601000105
:1002200000010200010C0343006F0072006E0065C4
:10023000000000100366006F006F0073007400611F
:10024000006E0000000403090400AE00AF000000CF
:100250000000003E5B4F5B3E003E6B4F6B3E001C60
:100260003E7C3E1C00183C7E3C18001C577D571CF1
:10027000001C5E7F5E1C0000183C180000FFE7C3F6
:10028000E7FF00001824180000FFE7DBE7FF00305D
:10029000483A060E00262979292600407F050507E1
:1002A00000407F05253F005A3CE73C5A007F3E1C3A
:1002B0001C0800081C1C3E7F0014227F2214005FD3
:1002C0005F005F5F0006097F017F00006689956A15
:1002D0000060606060600094A2FFA2940008047E49
:1002E00004080010207E20100008082A1C080008BE
:1002F0001C2A0808001E10101010000C1E0C1E0CEA
:100300000030383E383000060E3E0E060000000079
:1003100000000000005F000000000700070000145C
:100320007F147F1400242A7F2A120023130864629A
:1003300000364956205000000807030000001C2228
:100340004100000041221C00002A1C7F1C2A0008DA
:10035000083E0808000080703000000808080808FF
:10036000000000606000002010080402003E5149B7
:10037000453E0000427F4000007249494946002145
:1003800041494D33001814127F1000274545453967
:10039000003C4A49493100412111090700364949C9
:1003A000493600464949291E00000014000000009B
:1003B00040340000000008142241001414141414E6
:1003C000000041221408000201590906003E415D67
:1003D000594E007C1211127C007F49494936003E7B
:1003E00041414122007F4141413E007F494949410D
:1003F000007F09090901003E41415173007F08084F
:10040000087F0000417F4100002040413F01007F04
:1004100008142241007F40404040007F021C027FC0
:10042000007F0408107F003E4141413E007F0909E2
:100430000906003E4151215E007F09192946002628
:10044000494949320003017F0103003F4040403FDA
:10045000001F2040201F003F4038403F0063140829
:100460001463000304780403006159494D430000FC
:100470007F41414100020408102000004141417FBA
:100480000004020102040040404040400000030715
:100490000800002054547840007F28444438003835
:1004A0004444442800384444287F003854545418A5
:1004B0000000087E0902001824241C78007F08042C
:1004C00004780000447D4000002040403D00007F53
:1004D000102844000000417F4000007C047804782C
:1004E000007C08040478003844444438007C182414
:1004F000241800182424187C007C080404080048F0
:10050000545454240004043F4424003C4040207CC4
:10051000001C2040201C003C4030403C004428107F
:100520002844004C9090907C004464544C4400005B
:100530000836410000000077000000004136080046
:10054000000201020402003C2623263C00000000B9
:1005500000000000000000000000000000C0E0F00B
:10056000F8F81800C0F0FCFEFFFFFFFFFFFFFF7E62
:1005700000000000000000000080C0E0E0E0E0E0DB
:10058000E0E0E0C0800000000080C0E0E0E0E0E0EB
:10059000E0E0E0C080000000E0E0C0C0E0E0E0E0BB
:1005A0000000E0E0C0C0E0E0E0E0E0C0800000006B
:1005B0000080C0E0E0E0E0E0E0E0E0C080000000BB
:1005C0000000000000000000000000E0F0F0F0E09B
:1005D000ECEEF7F37020007C7C7C7E007E7E7E7FDC
:1005E0007F7F000080C0E07E5B4F5BFEC00000C0EC
:1005F00000DCD7DEDEDED7DC00C00000000000003B
:1006000000000000000000000000000000000000EA
:10061000000000000000F8FCFEFFE000FFFFFFFF0D
:10062000FFFF80FFFFFFFFFFFFFFFFFF1F0701002E
:100630000000000000000000FFFFFF81000000003C
:10064000000081C3C3C30000FFFFFF810000000062
:10065000000081FFFFFF0000FFFFFF01000000001E
:100660000000FFFFFF010000000001FFFFFF00008E
:10067000FFFFFF9D1C1C1C1C1C1C9DDFDFDF0000FE
:1006800000000000000000000000000F1F3F7F7FFF
:100690007F7F7F3F1E0C001F1F1F3F003F3F3F7F9C
:1006A0007F7F00307B7F7830202030787F3B0003D5
:1006B000000F7F0F0F0F7F0F0003000000000000EE
:1006C000000000000000000000000000000000002A
:1006D000000000000000030F1F3F3F3F3F1F1F3F70
:1006E0003F7F7F7F3F3F1F3F7F7F7F7F7C787838D2
:1006F0001C0F0000000000000001030707070707A8
:1007000007070703010000000001030707070707A9
:1007100007070703010000000707070000000000AB
:10072000000007070700000000000007070700009F
:100730000001030707070707070707030100000079
:1007400000000000000000000000000000000000A9
:100750000000000000000000000000000000000099
:100760000000000000000000000000000000000089
:100770000000000000000000000000000000000079
:100780000000000000000000000000000000010167
:100790000101010101010102020202020202020240
:1007A0000303030303030303040404040404040510
:1007B00005050505060606060607070707070808D4
:1007C0000808090909090A0A0A0B0B0B0C0C0C0D85
:1007D0000D0D0E0E0E0F0F0F10101111111212131E
:1007E000131414151516161717181819191A1A1B99
:1007F0001B1C1D1D1E1E1F202021222223242425F8
:100800002626272829292A2B2C2D2D2E2F30313230
:1008100032333435363738393A3B3C3D3E3F404140
:1008200042434445464748494A4C4D4E4F50515328
:1008300054555658595A5B5D5E5F616264656668DF
:10084000696B6C6D6F7072737577787A7B7D7E8063
:1008500082838587888A8C8E8F91939596989A9CAF
:100860009EA0A2A3A5A7A9ABADAFB1B3B5B7BABCC3
:10087000BEC0C2C4C6C9CBCDCFD1D4D6D8DBDDDF94
:10088000E2E4E7E9EBEEF0F3F5F8FAFDFF00DA0257
:1008900081FFD9F1DB20A4A62EAF00A0C0D30000B9
:1008A000A1C8D30000AED580A81F408D14200047FA
:1008B00055492000414C54200043544C20005346DD
:1008C0005420004E554D5F4C4F434B2000202620B6
:1008D00000434150535F4C4F434B00556E64656677
:1008E00020202020200041646D696E2020202020DF
:1008F00000464E20202020202020200053796D62C9
:100900006F6C732020200043616C63756C61746FA1
:10091000720051776572747920202020004C617933
:1009200065723A2000290014001A0008001500170B
:10093000002B0004281624072109220A00E1001DCB
:10094000001B00060019000500000000000000E385
:100950000021522C002A00130012000C0018001C69
:1009600000340033380F340E310D320B002352386F
:10097000003700360010001100000000000000E603
:1009800000225228000000000000000000000000CB
:10099000003900010001000100010000000000001A
:1009A0000000000000000000000000000000000146
:1009B0000001002C004C002502610060005F005324
:1009C0000056002E025E005D005C000000540063D3
:1009D000005B005A005900000000000000000062A7
:1009E000002352280035001E001F00200021002295
:1009F0000001002D282E242F213022310201002D4C
:100A0000022E022F0030003100000000000000E341
:100A10000023522C002A0027002600250024002352
:100A2000004D004A004F00520051005000000000ED
:100A30000000004E004B004900000000000000E6EE
:100A400000010028003A003B003C003D003E003F12
:100A5000000100AE00AC00AB00A800AA00010046F7
:100A6000000000000000000000000000000000E3A3
:100A70000001002C004500440043004200410040BA
:100A80000043784578497847784278A900000043C8
:100A90007846784A7848780000000000000000E6B8
:100AA0000001002800007C3D047A007B007C007D72
:100AB000000000000000002A01000000000000000B
:100AC000000000000000000000000000000000E343
:100AD0000001002C0000000000D200CD00D1000079
:100AE0000000000000D000CE00CF00000000000099
:100AF000000000000000000000000000000000E610
:100B00000001002800202020206162636465666780
:100B100068696A6B6C6D6E6F7071727374757677DD
:100B200078797A3132333435363738393052454274
:100B3000545F2D3D5B5D5C233B27602C2E2F2020D6
:100B40002000000000000000000000000000000085
:100B50000000000000000000000000000000000095
:100B600000000000007E0F00D4FFFFFFC700000060
:100B70007800000000000000002A2B280000000080
:100B8000000000000000000000000000290000003C
:100B9000002C1E3420212224342627252E362D37E2
:100BA00038271E1F202122232425263333362E37B3
:100BB000381F0405060708090A0B0C0D0E0F10114B
:100BC00012131415161718191A1B1C1D2F31302358
:100BD0002D350405060708090A0B0C0D0E0F101120
:100BE00012131415161718191A1B1C1D2F31303526
:100BF0004C3D3E7B7D004079617269656C5F646548
:100C0000760A000011241FBECFEFDAE0DEBFCDBFB1
:100C100012E0A0E0B1E0E6E1F7E602C005900D9237
:100C2000A439B107D9F727E0A4E9B2E001C01D92C9
:100C3000A93AB207E1F70E940C260C940333E0C9ED
:100C4000292F30E048E0911102C09C0140E0C90129
:100C5000807F886096958795E8F7009711F04C5F44
:100C60009C01C9019695879596958795009711F0F7
:100C70004E5F9C01C90196958795840F0895885A07
:100C80008B3108F054C0E82FF0E0EB5FFC4C0C9483
:100C9000543282EE90E008958AEE90E0089585EB5C
:100CA00090E0089586EB90E0089583EB90E008953E
:100CB00084EB90E0089587EB90E008958CEC90E051
:100CC00008958DEC90E0089583E891E008958AE816
:100CD00091E0089582E991E0089584E991E0089512
:100CE0008FE991E008958BEC91E0089581E292E024
:100CF000089583E292E0089584E292E0089585E207
:100D000092E0089586E292E0089587E292E00895E5
:100D10008FE690E0089580E790E008958AE292E0FF
:100D200008958FE992E0089580EA92E0089580E0C6
:100D300090E0089589EE90E0089580939F07909346
:100D4000A00708958093A1079093A207089521E03A
:100D500030E002C0220F331F8A95E2F78091A1078D
:100D60009091A207822B932BEDCF21E030E002C0BF
:100D7000220F331F8A95E2F7209530958091A107C5
:100D80009091A20782239323DDCF983090F586308F
:100D900080F5E82FF0E086E0989FE00DF11D11242A
:100DA00070E051E0E1FD54E0E0FD550FE2FD5295A9
:100DB000E87FE460F695E795E8F7EE0FFF1FEE0F8A
:100DC000FF1FE459F84F20E030E04191DF01CB01F3
:100DD000022E02C0969587950A94E2F78695880BB5
:100DE0008427852384278E932F5F3F4F243031053E
:100DF00061F70895292F983010F080E0089586302B
:100E0000E0F790E036E0239F800D911D1124682FBC
:100E10006770887F846096958795E8F7FC01EE0FF0
:100E2000FF1FEE0FFF1FE459F84F40E050E080E055
:100E3000219130E0062E02C0369527950A94E2F7FC
:100E40002170042E01C0220F0A94EAF7822B4F5F13
:100E50005F4F4430510561F70895E0911A07909172
:100E60001907E91302C080E008959F0159E0E59F4A
:100E7000F0011124E55EF84F5181561306C05081F0
:100E8000581303C05581541305C02F5F3F4FF9011C
:100E9000E770E7CF81E0089580911A072091190744
:100EA000281301C0089501968770FACF9091A30787
:100EB000809589238093A307282F277061F48917D1
:100EC00051F09091A50792FF06C08695869586956C
:100ED0004CDF1092A307089580919C0790919B0787
:100EE000892B90919D079030F9F0892B9091790191
:100EF000913021F49091A40797FD12C096E028E963
:100F000032E040E09150F90150812F5F3F4F511185
:100F10004F5F9111F7CF403039F010929D0708953F
:100F20009EE120EA32E0EDCF08958095982F8091E0
:100F30009C07892380939C070895972F783018F099
:100F400020E090E017C06630D8F78530A8F470E054
:100F500026E0929F600D711D112490E3899F600D22
:100F6000711D1124FB01EE0FFF1FEB5DF64F859104
:100F70009591282F822F089521E0E3CF803E91059F
:100F8000E9F1C8F48133910509F484C048F4893249
:100F9000910509F474C08A32910509F482C008955C
:100FA00089339105E9F082389105D1F085339105B7
:100FB00009F460C00895843E9105E9F148F4823E49
:100FC000910549F1833E910559F181EE90E0089534
:100FD000863E9105D9F1873E910509F440C00895F8
:100FE0002091A407237019F080EE90E008952091DD
:100FF000A50723FF14C089E290E008952091A4077B
:1010000020FD45C03091A50730FF09C024FD24C054
:1010100083EE90E008952091A40722FDF7CF089574
:101020002091A40722FD44C03091A50730FDDCCFFC
:1010300024FFF5CF11C02091A50721FFF0CF8091AB
:10104000A40784FD09C087EE90E008952091A407CD
:1010500023FFE5CF24FFF7CF80E090E008952091B3
:10106000A40723FD28C03091A50731FFE1CF84EE0E
:1010700090E008952091A40725FFD1CFBCCF209107
:10108000A40725FD1BC02091A50723FFC8CF89E336
:1010900090E008952091A40726FFC1CF8AE290E056
:1010A00008952091A40726FFBACF81E390E0089528
:1010B00082EE90E0089586EE90E0089585E390E05A
:1010C00008959091A40792FF10C041E0282F247149
:1010D000243009F040E031E0282F2871283009F051
:1010E00030E0431711F02CE0822793FF10C041E05D
:1010F000282F2471243109F040E031E0282F287195
:10110000283109F030E0431711F02CE082273091AC
:10111000A50730FF10C051E0282F2171213009F0C0
:1011200050E041E0282F2871283009F040E05417A2
:1011300011F029E0822731FF10C041E0282F2171F2
:10114000213109F040E031E0282F2871283109F0E1
:1011500030E0431711F029E0822794FF02C083FD9D
:10116000877E08950F931F93CF93DF9307DFEC01E2
:10117000D23508F046C0D03508F0C4C0C03ED10515
:10118000F8F4CD3CD10508F09BC0C83AD10578F4FD
:10119000C53AD10508F089C0C130D10561F1CE0151
:1011A0000497813A904038F1C0E0D0E024C0CE01ED
:1011B000885A90404B97C0F78C2F61DD946468C0CB
:1011C000D03490F4D03208F0B0C0C83ED10598F0C9
:1011D000CE0191509F3140F78D2F73DF082F8C2F58
:1011E00090E0CCDE902B54C08C2F90E0C7DEDF70F7
:1011F000C82FD92BD06ACE01DF91CF911F910F91CB
:101200000895C03882E5D807B8F5C03682E5D8071A
:1012100008F05EC0C03482E5D807C8F4C03282E569
:10122000D80708F04FC08C2F8695869520E2829FC4
:10123000C0011124C37021E030E002C0220F331F2F
:10124000CA95E2F7E901C82BD92BDD68D4CF8C2FE2
:1012500086958695877020E2829FC0011124C37015
:1012600021E030E002C0220F331FCA95E2F7E90106
:10127000C82BD92BDC68BFCFC03C82E5D80750F41F
:101280008C2F8F71C03AD245C0F5982F84EF906AA9
:10129000EC01B1CFCE01805C9245809708F084CFFD
:1012A000DC2FDF71C0EFD06AA6CFC63A29F0C73A6B
:1012B00029F0C1E8D0E49FCFC2E8FCCFC3E8FACF61
:1012C000D06599CF8C2F8F71D82FC1EFD06A93CF73
:1012D0008C2F86958695877020E2829FC00111240D
:1012E000C37021E030E002C0220F331FCA95E2F73D
:1012F000E901C82BD92BDA687ECFE3DEC0E0D82F16
:10130000D06279CF8C2F8F71DCDEDF71D062CC0F91
:10131000DD1FE8F7DF70282F84FF04C090E1899F6C
:1013200090011124C22FD06966CF8D2F8F71C9DE35
:10133000082F8C2F90E022DE902BEC01E1CFCF9292
:10134000DF92FF920F931F93CF93DF936C01009175
:10135000A1071091A20780919F079091A007082BE9
:10136000192BCFE0D0E081E090E00C2E02C0880F76
:10137000991F0A94E2F780239123892B39F0FC2EE0
:10138000B6018C2FDADDEEDE019719F4219758F7BC
:10139000F12C8F2DDF91CF911F910F91FF90DF9056
:1013A000CF9008951F93CF93DF93FC012781308561
:1013B0002030320799F485819081C92F9181D92FEE
:1013C000803089F0603079F08C2FB9DF182F682FCA
:1013D000CE01DBDCBE01812FB0DD9C01C901DF91B4
:1013E000CF911F910895CE0105DD182FF3CFCF9334
:1013F000DF93EC01A4DFBE01A0DDB4DEDF91CF916D
:101400000895FC018481803071F087819085009778
:1014100061F0A8DE92959F709630D1F050F4925F03
:101420009F70923040F090E00DC080819181DFDFAD
:10143000F1CF9A5FF5CF91E0803F21F028F491E061
:10144000883E88F7892F089591E0843F61F7FACFAD
:1014500091E0883E08F090E021E0813F09F020E033
:10146000922BF0CF80E00895F894E82FE295EF708A
:10147000AE2FAF5DB0E04C918F7021E001C0220F24
:101480008A95EAF7922F909594239C93EE5DF0E075
:101490009081822F892B808378940895CF92DF9258
:1014A000EF92FF921F93CF93DF93462F172FE82FD2
:1014B000F0E0E357F84F71110CC0E4918E2F7E2FAE
:1014C0006E2FDF91CF911F91FF90EF90DF90CF9023
:1014D0000895F491EF2F86E0689FE00111242FEF2B
:1014E00030E0CE01B9010E94CE31DB01CA01880F84
:1014F000991F65E56A9FA0016B9F500D1124841B05
:10150000482F440F480FC901811B9040F89F70017C
:10151000F99FF00C11248F2D149FB0011124672F17
:1015200070E06901C61AD70AB601F69F6001F79FFD
:10153000D00C1124A330B10549F1B901641B7040EE
:10154000AB01149FB001159F700D1124672F70E03F
:10155000261B370BF29FA001F39F500D1124752F0E
:10156000CC3FD34050F4A130B105A1F0129709F05F
:10157000A7CFEF2D852F7F2FA3CFA430B10569F022
:10158000169709F49DCF7F2D8D2D9ACF7D2DEF2DB0
:101590008F2F96CF7F2FED2D93CFE52F7F2DF8CF77
:1015A000982F8091E806803029F081E09B3108F087
:1015B00080E0089581E09633FACF282F269F020E0F
:1015C00020E0211D1124822F0895CF93DF93EB019A
:1015D0002695E22F26FDE0959E2F9F7026FD9F5FAA
:1015E000E695E695E695E670F0E0EA55FE4F318126
:1015F000399F302D912D112432953F709295907F17
:10160000392B9081930F27FD919597FD9195682F28
:10161000892F880FD2DFBE01DF91CF910895622F0D
:101620000895E42FF0E0EE0FFF1FE252FE4F6081BD
:10163000621B0895E42FF0E0EE0FFF1FE255FE4F0E
:1016400061A9621B0895CF93DF93EB0151114FEF16
:10165000682F842F8095B1DFBE01DF91CF9108956F
:101660001F93CF93DF93EB01182F51114FEF60E4DD
:10167000842F8095A2DF6C2F680F7D2F812FDF9143
:10168000CF911F91089580918D03816080938D0388
:1016900008953091E806303021F08B3191052CF01F
:1016A00008958B31910514F04B9728C30895FF924C
:1016B0000F931F93CF93DF93182F062FF42EC0E0C4
:1016C000D0E02F2D402F612FCE01E3DF2196C633CE
:1016D000D105B9F7CDB7DEB7E5E00C940B329BE04E
:1016E000899F802D1124982F955F973308F096E3FA
:1016F0002091E806211104C08B3128F48BE1089574
:101700009C3108F09BE10895EF92FF920F931F9395
:10171000CF93DF937C0180910201E1DF192F30919B
:1017200097073695369521E0320F08F43FEF609128
:10173000890370918A0340E050E0639F060E411DCB
:10174000739F400D511D1124470F511D042FC82FA9
:10175000D0E0812FC11730F023DFCDB7DEB7E6E050
:101760000C940A32FE01E65BFD4F808190910301EB
:10177000892379F06091940770919507809196077D
:10178000202F4C2FF701099589DE472F282FCE01F6
:1017900080DF2196DECF8F929F92BF92CF92DF9211
:1017A000EF92FF920F931F93CF93DF934C018091A1
:1017B000020195DFC82FB92E2091970731E0230F42
:1017C00008F42FEF30E040E050E0CA016FEF7FEF08
:1017D0000E9438328901D0E0E12CF12CD22EC12EAA
:1017E0002C2F8B2DCB1568F0DBDEDF91CF911F9175
:1017F0000F91FF90EF90DF90CF90BF909F908F90D0
:101800000895FE01E65BFD4F8081909103018923DD
:1018100039F140918E034150542F550F550B47FF1E
:1018200021C08D2D9C2D2091970731E0230F08F4C6
:101830002FEFA701829F080E411D929F400D511D61
:101840001124490F511D6091940770919507809163
:101850009607F401099522DE472F282FCE0119DFC4
:101860002196BECFFA01E257FC4F818982130BC04B
:10187000FA01EE0FFF1FE257FC4F818D928D80170A
:10188000910708F4D0CF41505040C9CFA0E0B0E05C
:10189000ECE4FCE00C94EA31182F809101018113F3
:1018A00024C09091930793702091000130E081E073
:1018B0009217130609F480E0809304018091980741
:1018C00090910301981731F08093030140E060E0AC
:1018D00080E0EDDE1B3058F4E12FE150EA3060F497
:1018E000F0E0E05EFC4C0C94543281E0E5CF1F3F09
:1018F00009F4F4C080E052C080910401803009F402
:101900004DC040E060E080E0D2DEF4CF8091020183
:10191000E6DEC82F092F609194077091950780919A
:101920009607BCDDF62EE72ED82ED0E00C1709F076
:1019300010F4802F32C0FE01E65BFD4F8081909154
:101940000301892329F02D2D4E2D6F2DCE01A1DE0F
:101950002196ECCF80910201C2DEC82FF92EB09003
:101960009507D09196070091940760919407709124
:1019700095078091960792DDE62ED72EC82E6091AE
:101980009707600F7B2D8D2F89DD062FB72EA82E90
:10199000D0E08F2DFC1609F098F402DE9091020140
:1019A0009F5F909302018111C2C082E080937C010D
:1019B000809104018111BBC01111B9C083E0B5C091
:1019C000FE01E65BFD4F908180910301892351F078
:1019D0002A2D4B2D602F90FD03C02C2D4D2D6E2DEB
:1019E000CE0157DE2196D5CF8091020178DEC82F37
:1019F000092FE0909507D09096076091970780E4B3
:101A0000DCDDF82ED0E00C1709F008F492CFFE01CF
:101A1000E65BFD4F8081909103018923A1F0FE01D7
:101A2000EE0FFF1FE255FE4F81A982958F706091E6
:101A300094078F9D600D11247E2D8D2D2FDD472F56
:101A4000282FCE0126DE2196DECF8091020147DECF
:101A5000C82F092FE0909507D090960760919707BF
:101A600080E4ABDDF82ED0E00C1709F008F461CF6C
:101A7000FE01E65BFD4F8081909103018923C1F057
:101A8000FE01EE0FFF1FE255FE4F60A96F9DB001F2
:101A90001124607E606175956795E8F780919407E1
:101AA000680F7E2D8D2DFADC472F282FCE01F1DD1A
:101AB0002196DACF85EE9AE027DE70CF8FE09BE0AB
:101AC000FBCF81E19BE0F8CF8AE19BE0F5CF83E299
:101AD0009BE061DE63CF80E39BE0FBCF90918A03C4
:101AE000A0918B03B0918C03892F9A2FAB2FA695D1
:101AF00097958795A69597958795837090E0A0E038
:101B0000B0E082309105A907B907B1F083309105A3
:101B1000A907B907A1F040E060E0892B8A2B8B2B45
:101B200081F064E180E0C3DD82E080937C01CDB789
:101B3000DEB7EAE00C94063244E160E0F3CF44E122
:101B400064E184E1F0CFCF93C82F803081F08091A1
:101B50009F0681110CC09ADE1092010180919307BB
:101B600083708093000109D483E080937C01C0934B
:101B70009F06CF91089590919307937071F08B30E9
:101B800008F08AE0880F880F909193079370892B53
:101B90008093930710927C0176CD089580919307EE
:101BA000869586958F5F8B3008F081E0E4CF809139
:101BB000930786958695815009F48AE0DCCF909151
:101BC0009307937051F0809394076093950749377A
:101BD00008F048E74093960756CD0895E3E9F7E00B
:101BE000818190E0438162810896E9CFE3E9F7E0E3
:101BF0008181438162818850990BE1CFE3E9F7E06D
:101C0000628128E0620F08F46FEF8181438190E0E8
:101C1000D6CFE3E9F7E0628128E0621B08F460E0D8
:101C20008181438190E0CBCFE3E9F7E0438128E075
:101C3000420F08F44FEF8181628190E0C0CFE3E969
:101C4000F7E0438128E0421B08F440E08181628193
:101C500090E0B5CF209197073AE0230F08F42FEFDB
:101C60002093970710CD209197073AE0231B08F4A3
:101C700020E02093970707CDE0919807EF3F61F0B0
:101C8000E53061F0E23061F4EF5FF0E0EE55FE4FD9
:101C9000808180939807F7CCE0E0F6CFE1E0F4CFC5
:101CA000E0E0F3CFE0919807EF3F89F0E53069F08D
:101CB000E23019F0E1110DC0E3E0E150F0E0EE5543
:101CC000FE4F808180939807DECCE1E0F6CFE3E021
:101CD000F5CFE0E0F3CF2091B903382F3203C001F4
:101CE0001124923014F080E090E082579B4F809353
:101CF000B7039093B8030895539A0895FC01EE0F2B
:101D0000FF1FE80FF91FE452FD4F618340832283D8
:101D1000089510926A0410926B04EFE0F1E085815F
:101D2000811102C014821682379681E0E734F807E9
:101D3000B1F70895AC018091690460916804982F0F
:101D4000691301C00895292F30E0F901EE0FFF1F3C
:101D5000E354FC4F0190F081E02DE417F507B9F44E
:101D6000E0E0F0E04830510540F467E0649FF001A6
:101D7000659FF00D1124E15FFE4F41E0448398130D
:101D8000E1CF2F5F3F4F237020936904089523957F
:101D9000922F9370D5CFFC01AC014C5F5F4F8FEF5A
:101DA00061E39191892728E030E0982F990F87FF10
:101DB00009C0892F862721503040B9F7E417F5076D
:101DC00081F70895892FF7CF382F25EB3203C00113
:101DD000112497FF04C080589040892F089580589F
:101DE0009F4FFBCF8091860780FD16C081FD16C0F6
:101DF00082FF02C080E5089580918507803081F0E0
:101E00008E31C0F720E5829FC00111246EE170E0A1
:101E10000E942532862F089584E1089588E208956E
:101E200088E008958091860780FD1AC081FD1AC060
:101E300082FF03C068E0862F089580918407803078
:101E400099F08832B8F728E0829FC001112468E237
:101E500070E00E9425326030760769F781E00895CE
:101E600062E0E9CF64E0E7CF61E0E5CF8091E7068B
:101E7000811102C080E00895E0910F07F0911007F2
:101E80003097C1F30190F081E02D309799F30995D7
:101E90000895A3E0B0E0EFE4FFE00C94F23120916C
:101EA000D7023091D80228173907B1F08093D702B2
:101EB0009093D802E0910F07F0911007309761F0EE
:101EC0000084F185E02D309739F023E029838A835F
:101ED0009B83CE01019609952396E2E00C940E3285
:101EE000A3E0B0E0E6E7FFE00C94F2312091D502E8
:101EF0003091D60228173907B1F08093D50290931C
:101F0000D602E0910F07F0911007309761F000843E
:101F1000F185E02D309739F024E029838A839B8373
:101F2000CE01019609952396E2E00C940E32909131
:101F300079019130B9F49091A40797FF13C0E82F6D
:101F4000E695E695E695803FF8F4F0E0E256FD4F21
:101F5000877021E001C0220F8A95EAF78281822BE7
:101F600082830895A8E9B2E0EFEF90E02C91821708
:101F700059F01196EF3F19F4211101C0E92F9F5F2D
:101F80009630A1F7EF3F09F40895FE2FFF0FFF0BE6
:101F9000EA56FD4FE5CF90917901913061F0E8E983
:101FA000F2E09191891302C0DF011E9292E0EE39B6
:101FB000F907B9F708959091A40797FFF0CFE82F9C
:101FC000E695E695E695803FA8F7F0E0E256FD4FEE
:101FD0009DEF81FD97EF80FF959582FD929582811F
:101FE0008923828308958091780108952FB7F8940A
:101FF0006091D1027091D2028091D3029091D4026B
:102000002FBF08958091E706803039F0EFDF462F2B
:10201000572FBC01CB01BA010895E8DFDC01CB01E9
:102020004091E9065091EA066091EB067091EC064A
:10203000480F591F6A1F7B1FEDCF87E797E78093F3
:1020400000089093010888E19AE00FB6F894A895EB
:10205000809360000FBE90936000FFCFFC01209141
:10206000C7023091C8022617370748F0603076075C
:1020700029F49091E8009E779093E8009B0190E00E
:1020800027C08091BC038030D1F18530E1F180918F
:10209000E80083FD3EC08091E80082FD1EC0809173
:1020A000E80080FF15C08091F3004091F200582FA6
:1020B0002030320719F048305105A8F091E048303F
:1020C000504009F090E04091E8004E774093E800DE
:1020D00020303207B1F69111D4CF8091E80082FF11
:1020E0000AC080E0089581918093F1002150304032
:1020F0004F5F5F4FDDCF8091BC03811102C082E052
:102100000895853011F483E008958091E80083FFFD
:10211000E4CF81E00895982F9093E900981771F02B
:102120007091EC002091ED005091F00021FD09C06C
:102130009F5F973089F78093E9000895762F242FC9
:1021400050E03091EB003E7F3093EB003091ED009A
:102150003D7F3093ED003091EB0031603093EB0028
:102160007093EC002093ED005093F0002091EE006E
:1021700027FDDECF08958091C10287FF13C08091B3
:10218000E80082FF06C08091E8008B778093E8002A
:1021900008958091BC038111F2CF08958091BC0312
:1021A0008030D9F38091E80080FFF8CF8091E8007B
:1021B0008E77ECCF4091E4005091E50094E62091B9
:1021C000EC00822F817020FF06C08091E80080FF24
:1021D00006C080E008952091E80022FD1DC0809196
:1021E000BC03803091F0853091F08091EB0085FD4B
:1021F00010C02091E4003091E5004217530719F018
:10220000903049F09150A901DACF82E0089583E03F
:10221000089581E0089584E008958091D8008F7E2C
:102220008093D8008091D70081608093D70084E0AC
:1022300082BF81E08093C0028091D8008E7F80931E
:10224000D8001092E2001092DA001092E100809122
:10225000D8008F778093D8008091D80080688093D1
:10226000D8008091D8008F7D8093D80019BC10923F
:10227000BC031092BF021092BB031092BE02809169
:10228000E0008B7F8093E0008091D8008160809394
:10229000D80042E060E080E03EDF8091E1008E7F88
:1022A0008093E1008091E20081608093E200809160
:1022B000E20088608093E2008091E0008E7F80934E
:1022C000E0008091D80080618093D80008958091CB
:1022D000D8008E7F8093D8001092E2001092DA002E
:1022E0001092E1008091E00081608093E000809195
:1022F000D8008F778093D80019BC8091D7008E7F4B
:102300008093D7008091D8008F7E8093D800109260
:10231000C0020895A0E0B0E0E0E9F1E10C94EA31F8
:102320007C016B015A018091CE060AE010E08A30F0
:1023300010F001E010E0C1E0D0E0B601C701F50106
:102340000995811104C021960C171D072CF4CDB7F7
:10235000DEB7EAE00C940632CC9F9001CD9F300DA1
:10236000300D112480E090E045E34A95F1F700003C
:10237000019682179307C1F7E0CF3BB1377F2BB1AE
:1023800028604FB7F8948CED92E0FC0101965081E3
:1023900068E02BB9000000C057FF3BB9550F0000A3
:1023A00000C000C000C03BB900C06A9591F753E07F
:1023B0008E37950751F74FBF8FE594E00197F1F7FE
:1023C00000C0000008950F931F93CF93DF93EB019C
:1023D0008A019091BC03943059F58093E9008FEF06
:1023E0009091E80095FD06C095ED9A95F1F70000F3
:1023F0008150B1F78091E80085FF1AC0DBDE8111C2
:1024000012C08091E80085FD06C08091E8008E77BB
:102410008093E800F3CF88818093F1000150104051
:1024200011F02196EECF8091E8008E778093E8003E
:10243000DF91CF911F910F910895CF93DF93EC011E
:1024400048E050E0BC0181E0BEDF88E0FE01A9EC7D
:10245000B2E001900D928A95E1F7DF91CF91089556
:1024600040E250E0BC0182E0AECF46E050E0BC016B
:1024700082E0A9CF43E050E0BC0182E0A4CF90917C
:10248000A50792FB222720F9281779F080FB92F903
:102490009093A5076091A4077091A50784E090E050
:1024A0000E94FF3282E00C945607089580917901D2
:1024B000813069F58091A40787FF29C00E946C07CD
:1024C00080939F0240E250E06FEE76E08EE992E06A
:1024D0000E948832892BD1F080E2EEE9F2E0AFEE83
:1024E000B6E001900D928A95E1F7E0910F07F09127
:1024F0001007309759F00480F581E02D309731F0C6
:1025000086E080939E028EE992E0099508950E94EC
:102510006C078093960248E050E061E177E086E93D
:1025200092E00E948832892B89F388E0E6E9F2E0A4
:10253000A1E1B7E001900D928A95E1F7E0910F07D4
:10254000F0911007309711F30280F381E02D30975E
:10255000E9F286E992E0D9CF803019F00E94950720
:10256000A5CF0895803031F090919C07982B9093DF
:102570009C079CCF0895803031F090919B07982B59
:1025800090939B0793CF0895803039F08095909178
:102590009B07892380939B0789CF0895CF93DF936F
:1025A0008A3029F481E083D0DF91CF9108958D3076
:1025B00011F480E0F8CFC091B703D091B80396E052
:1025C000FE01AEE7B3E001900D929A95E1F7803EEF
:1025D00008F461C086E019928A95E9F7C091B703C3
:1025E000D091B803603051F09E012A5F3F4FFE0149
:1025F0008081809581932E173F07D1F746E050E008
:10260000BE018EE793E00E9488329E012E5834402E
:10261000892B41F1C901807E806196958795E8F705
:1026200041E050E0BA0102C0660F771F8A95E2F7D9
:10263000CB016091900670919106862B972BB90182
:102640006B5F7F4F607E606176956795E8F702C0AB
:10265000440F551F6A95E2F7842B952B80939006C3
:10266000909391062A5F3F4F4091B903642F70E029
:10267000C9010E94CE31481B463010F4240F311D91
:10268000323010F020E030E022573B4F2093B70368
:102690003093B80389CF96E0899FF0011124E35B62
:1026A000FD4F46E050E0DE010E94843297CFCF9389
:1026B000382FE091B703F091B803EE58F440209121
:1026C000B903622F70E0CF010E94CE31281B822F08
:1026D000303069F066E00E941932C82FC11102C083
:1026E000CF910895C15060E080E258DFF7CF8E0FA0
:1026F0009F2F911D923010F080E090E082579B4F09
:102700008093B7039093B803EBCF1F93CF93DF93DE
:10271000EC01162FFE018491811104C0DF91CF914D
:102720001F910895612F3ADF2196F4CFCF93DF9365
:10273000EC01FE018491811103C0DF91CF910895D6
:1027400060E02CDF2196F5CFCF92DF92EF92FF92DF
:102750001F93CF93DF9300D000D0CDB7DEB7C090EA
:10276000A406D090A506E090A606F090A7063EDC51
:10277000DC01CB018C199D09AE09BF0911E084363B
:102780009040A040B04068F13DDCDC01CB010296F6
:10279000A11DB11D89839A83AB83BC83809168019D
:1027A000909169018C54994F20916701422F50E01C
:1027B000253008F044E09E012F5F3F4FB9010E9491
:1027C000953283E090E00E946131182F803049F00B
:1027D0000DDC6093A4067093A5068093A6069093E3
:1027E000A706812F0F900F900F900F90DF91CF9140
:1027F0001F91FF90EF90DF90CF9008956F927F929E
:102800008F929F92AF92BF92DF92EF92FF920F93BF
:102810001F93CF93DF93D82EEB013A017801A801E3
:10282000B901C3010E9488328C0188809980AA80F6
:10283000BB80DCDBDC01CB0188199909AA09BB0943
:1028400084369040A040B04010F4012B81F10D2D52
:1028500010E088E0D89EF0011124E15BFE4F8181F9
:1028600092818C54994F2081422F50E0E216F1045E
:1028700008F4A701B3010E949532C8010E9461319A
:10288000182F803029F0B2DB688379838A839B8399
:10289000812FDF91CF911F910F91FF90EF90DF90EB
:1028A000BF90AF909F908F907F906F90089511E0B0
:1028B000EFCF0F931F9304E010E029EB36E0AC015B
:1028C00068EA76E082E09ADF1F910F910895A9E00F
:1028D000B0E0EDE6F4E10C94F03188E0E3E9F7E0F4
:1028E0009E012F5F3F4FD90101900D928A95E1F72C
:1028F00080919F06898709E010E021EC36E0CE0147
:102900000196AC0160EA76E084E078DF2996E4E0A5
:102910000C940C32AF92BF92CF92DF92EF92FF9263
:102920001F93CF93DF9300D000D00F92CDB7DEB7C7
:102930005B0180E090E00E946131182F803009F443
:102940007DC080915201482F50E0811141E060919B
:102950005301709154016C54794FCE0105960E9439
:102960009532C090B006D090B106E090B206F090DB
:10297000B3063CDBDC01CB018C199D09AE09BF0914
:1029800084369040A040B04038F485EB96E003DAFE
:102990009D81891709F452C081E090E00E94613165
:1029A00081111EC010E08091AC069091AD06A091FF
:1029B000AE06B091AF06F50180839183A283B38305
:1029C000812F0F900F900F900F900F90DF91CF916C
:1029D0001F91FF90EF90DF90CF90BF90AF90089540
:1029E00080915A01482F50E0853008F044E0609112
:1029F0005B0170915C016C54794FCE0101960E948D
:102A0000953285EB96E0C7D99D818913CBCFEEDA5D
:102A10006093B0067093B1068093B2069093B306AC
:102A200089819A81AB81BC818093AC069093AD067D
:102A3000A093AE06B093AF0611E0B5CF8091B50676
:102A40009091B606A091B706B091B80689839A8393
:102A5000AB83BC831111E4CFA6CF48E050E067E11F
:102A600070E083E997E00E94D63210928D030895BA
:102A70008DE18093930780917D0190917E01A091DB
:102A80007F018093940790939507A09396078FE713
:102A9000809397078FEF80939807DFCFCF92DF92D5
:102AA000EF92FF921F93CF93DF93C0908403D09057
:102AB0008503E0908603F09087038091E7068030DD
:102AC00009F453C093DA6C197D098E099F096B01D3
:102AD0007C0198DADB01EC0160938403B0938503F9
:102AE00080938603D093870310912E04EEE2F4E0E6
:102AF000812F90E04FEF5FEF60E070E04C195D09CF
:102B00006E097F09191333C080932E0480918803C6
:102B100090917C01923009F447C0C8F5911141C0F1
:102B200010920201A0938903B0938A03C0938B0390
:102B3000D0938C0389E2EEE2F4E0AEE8B3E00190DA
:102B40000D928A95E1F780919F06811108C08091CE
:102B50009307982F937019F086958695982F9093E8
:102B6000880381E080937C0114C04CDAACCF218DC6
:102B7000328D421753076105710520F481509F5F24
:102B80003296C0CF2C0D3D1D218F328FF8CF933060
:102B9000A9F0DF91CF911F91FF90EF90DF90CF9040
:102BA00008950E94460CF5CF809301018091930710
:102BB000837080930001E1DB83E0D4CF80918D03AB
:102BC00081114BDFC0908903D0908A03E0908B0382
:102BD000F0908C038091E706803069F007DA6C1979
:102BE0007D098E099F09603170408040904088F2D5
:102BF00010927C01CECF06DAF2CFAB0124E630E0B2
:102C0000BC0188E70E94982F9C0181E0232B09F0EA
:102C100080E00895809199068030E9F0E7D9DC01E1
:102C2000CB0180529C46AB4FBF4F8093920690934E
:102C30009306A0939406B093950680919606811111
:102C40000AC062E070E08BE492E0D7DF803019F0D8
:102C500081E080939606089580919906803061F016
:102C600080919606803041F062E070E089E492E065
:102C7000C4DF81111092960608951F921FB61F920D
:102C800011248F939F93AF93BF938091BA038111C7
:102C900013C08091D1029091D202A091D302B09141
:102CA000D4024196A11DB11D8093D1029093D2020E
:102CB000A093D302B093D402BF91AF919F918F9113
:102CC0001F901FBE1F9018952FB7F8948091D102C6
:102CD0009091D202A091D302B091D4022FBF089557
:102CE000CF93DF93EC01F0DF8C1B9D0BDF91CF9135
:102CF00008950F931F93CF93DF93C091A707D091AF
:102D0000A807E2DF8C1B9D0B8B3F904048F1809120
:102D1000A60790E0019661E270E00E9425328C01E6
:102D20008093A607D1DF8093A7079093A80780E040
:102D30000E946B0E86EF9BE0F9DCC0E0D0E0CE0194
:102D4000800F911F61E270E00E94253280589E4FF3
:102D5000FC0160E0808122DC2196C531D10579F744
:102D6000DF91CF911F910F910895ACE0B0E0EBEBB4
:102D7000F6E10C94E931FE013196DF0188E01D9205
:102D80008A95E9F78AE8C82E82E0D82E7F01AE2E18
:102D90009F2C04E912E0F60181916F018F3F09F445
:102DA00041C0F894E82FE295EF70AE2FAF5DB0E030
:102DB0002C918F7041E001C0440F8A95EAF7922F61
:102DC000942B9C93EE5DF0E09081842F8095892375
:102DD0008083789400C0EEE8F2E031E0B12C2191DC
:102DE0002F3F79F0A22FA295AF70A05EB0E08C913A
:102DF00090E02F7002C0959587952A95E2F780FFA5
:102E00009EC080E0B82A330F0E171F0741F7F60166
:102E100082918F3F11F00E94340A80EA8A95F1F77F
:102E2000F701B0828FEFE81AF80A8EE892E08C156D
:102E30009D0509F0B0CF48E050E06A2D792D8FED67
:102E400096E00E948832009749F028E0EA2DF92D9B
:102E5000AFEDB6E001900D922A95E1F70091DE0604
:102E600010E00A52194F892B09F46BC081E080935E
:102E7000D5062ADF8093D3069093D4068091E70687
:102E8000803009F497C07E0189E0E80EF11CF7015B
:102E900084E011928A95E9F78091CE068A3050F04D
:102EA000C090CF06D090D0060FDF8C199D09843FCB
:102EB000914058F14AE854E1B701C8012BDA80305B
:102EC000A9F049E554E1B701C80124DA803071F076
:102ED00044EA53E1B701C8011DDA803039F047E612
:102EE00054E1B701C80116DA81114EC08091CE06B7
:102EF0008F3F31F08F5F8093CE068A3008F446C052
:102F0000E3DE8093CF069093D0068091D106803087
:102F100009F44CC0F70184E011928A95E9F7109208
:102F2000D106E091D206F0E0EA52F94F89859A8500
:102F3000AB85BC8580839183A283B38337C0832F05
:102F400061CF8091D506803009F498CFE090D30608
:102F5000F090D406B9DE8E199F09059708F48ECF3C
:102F600044E050E06FED76E0C8010E948832892B82
:102F700041F084E0EFEDF6E0D80101900D928A95E2
:102F8000E1F71092D5067ACF1092CE068091D20644
:102F900090E044E050E0B7018A52994F0E94883295
:102FA00021E02093D106892B09F0BBCF2C96EBE0D2
:102FB0000C940532E090D206F12CC7018A52994F49
:102FC0007C01F80180819181A281B3818093B50653
:102FD0009093B606A093B706B093B80685EB96E03B
:102FE0000E94CB0E8093B4068091B9069091BA06E8
:102FF000A091BB06B091BC06F70180839183A283A8
:10300000B383C090BD06D090BE06E090BF06F0909E
:10301000C0068091CA069091CB06A091CC06B091D3
:10302000CD06C816D906EA06FB06B1F0C092CA065C
:10303000D092CB06E092CC06F092CD060E94F60F1D
:10304000C61AD70AE80AF90AC092E906D092EA0637
:10305000E092EB06F092EC0688E0E1ECF6E0A3E902
:10306000B7E001900D928A95E1F78091C9060E9420
:10307000A30D9CCF29DE9C019091890780918A073E
:10308000982B21F020939C0630939D0690918B07FE
:1030900080918C07982B21F020939A0630939B0601
:1030A000E0910F07F0911007309759F00680F781F3
:1030B000E02D309731F082E08093870787E897E032
:1030C00009950895603009F448C0E82FED5CE331BC
:1030D00050F4F0E0E65DFC4C0C9454320E94F20E89
:1030E000819580938A07C6CF0E94F20EFACF0E9484
:1030F000F20E819580938907F6CF0E94F20EFACFE7
:103100000E94120F80938B07EECF0E94120F8195C1
:10311000F9CF0E94120F819580938C07E4CF0E9413
:10312000120FFACF815D990B21E001C0220F8A9521
:10313000EAF780918807822B80938807D4CF80910B
:103140008607816080938607CECF80918607826054
:10315000F9CF809186078460F5CF409189078D3C37
:1031600059F480918A0787FF0DC010928A0740307A
:1031700059F41092850708C08E3C81F480918A072B
:1031800018169CF3403081F080918B0790918C074A
:10319000892B09F0A8CF10928407A5CF8F3C41F46A
:1031A00047FFF0CF1092890780918A078030E0CFE7
:1031B000803D19F41416B4F3E5CF90918B07893D47
:1031C00029F41916FCF610928B07DCCF8A3D19F40E
:1031D00097FFD8CFF8CF90918C078B3D29F497FFBC
:1031E000D1CF10928C07CECF8C3D19F41916CCF3A9
:1031F000C9CF982F915D983078F4815D990B21E0CB
:1032000001C0220F8A95EAF7822F80959091880756
:10321000892380938807B6CF8D3D31F4809186074E
:103220008E7F80938607AECF8E3D21F480918607F6
:103230008D7FF7CF8F3D09F0A5CF809186078B7FDB
:10324000F0CFCF93C82F8030D1F08450813A88F5E9
:1032500080917901813021F48091A40787FD11C00C
:10326000E8E9F2E08EE992E02081C217E9F03196B8
:103270008E179F07C9F78C2F0E94970F17D9CF91F0
:103280000895EC2FE695E695E695F0E0E256FD4FC1
:10329000828190E04C2F477021E001C0220F4A95B7
:1032A000EAF78223892B39F38C2F0E94CB0FFED8AB
:1032B000E2CF8C2F805E883060F4C77081E001C05F
:1032C000880FCA95EAF7C0919C07C82BC0939C074A
:1032D000D5CF8C2F855A833068F482E890E0C63AC7
:1032E00031F081E890E0C73A11F483E890E00E9461
:1032F000490FC5CF8C2F885A8B3130F48C2F0E9408
:103300003F060E94700FBBCF8C2F8D5C833108F07D
:10331000B6CF61E08C2FD6DEB2CF803061F1982F2E
:103320009450913A18F40E94CB0FC0C8982F905E29
:10333000983058F4982F81E091FD84E090FD880F3B
:1033400092FD82950E949507F0CF982F955A933061
:1033500020F480E090E00C94490F982F985A9B310C
:1033600020F480E090E00C94700F982F9D5C9331D6
:1033700010F460E0A7CE08951F93CF93DF93182F2A
:10338000EB0182E0F8D8812F5CDF209741F4812F98
:10339000C4DF82E0F9D8DF91CF911F9108958FE9C2
:1033A0009FE00197F1F700C000002197EECF1F9337
:1033B000CF93DF93182FEB0144DF209731F4812F57
:1033C000ACDFDF91CF911F9108958FE99FE00197C6
:1033D000F1F700C000002197F0CF10929C07809178
:1033E0007901813011F58091A40787FF1EC0E0EAC2
:1033F000F2E08EE111928A95E9F780E090E00E9478
:10340000490F80E090E00E94700F10929B074ED809
:10341000E7E8F7E086E011928A95E9F710928507D0
:10342000109284071092860725CEE8E9F2E086E044
:10343000E1CFD3DF88E19AE00FB6F894A8958093A6
:1034400060000FBE90936000FFCFAAE2B0E0EBE215
:10345000FAE10C94F13181EC92E0FC0101962091AB
:10346000F100208322E0893C9207B9F78091C202E3
:10347000893009F459C0C8F4823009F4B6C08330E9
:1034800009F485C0813089F18091E80083FFEAC0AA
:103490008091C1029091C2029A3008F0E3C0E92FF6
:1034A000F0E0E35CFC4C0C9454328A3009F48CC09C
:1034B0008B3051F78091C102813231F78091C50282
:1034C0009091C602892B01F78091E800877F809355
:1034D000E8000E94BB1081E09091C302911101C0ED
:1034E00080E08093790179DFCFCF8091C102813A6A
:1034F00059F68091E800877F8093E8008091C502AB
:103500009091C602892B61F060E080E090E070E06D
:103510000E942E108091E8008B778093E800B4CF52
:1035200068E089EC92E0F3CF8091C102813209F02A
:10353000ABCF8091C5029091C602029708F0A4CF4C
:103540008091E800877F8093E8008091E80082FF07
:1035500019C02091F3008091F200922F029731F46C
:103560008091F100813011F0863021F48091F100DA
:10357000809378018091E8008B778093E8000E9427
:10358000BB1082CF8091BC038111DFCF7DCF8091B2
:10359000C102813A09F078CF8091C5029091C602AC
:1035A000892B09F071CF8091E800877F8093E80034
:1035B0008091E80080FFFCCF809179018093F10039
:1035C0008091E8008E77D9CF8091C102813209F0D5
:1035D0005BCF8091E800877F8093E8000E94BB105A
:1035E0008091C402809377014FCF8091C102813ACC
:1035F00009F04ACF8091E800877F8093E8008091AE
:10360000E80080FFFCCF80917701D8CF803889F027
:10361000823841F58091C5028F70873018F580930C
:10362000E9008091EB0085FB882780F91092E90082
:1036300006C08091BB03880F9091BE02892B9091A8
:10364000E800977F9093E8008093F1001092F100DA
:103650008091E8008E7723C0811116C08091C3024B
:10366000813011F18091E80083FF0AC08091E80069
:10367000877F8093E8008091EB0080628093EB006D
:10368000AA96E3E00C940D32823061F78091C30278
:10369000803081F01092E9008091E800877F80936C
:1036A000E8000E94BB10DECF933009F080E08093E9
:1036B000BB03F0CF8091C5028F70282F2150263098
:1036C00088F68093E9002091EB0020FFE3CF933050
:1036D00031F48091EB0080628093EB00DBCF90911E
:1036E000EB0090619093EB0091E001C0990F8A95F7
:1036F000EAF79093EA001092EA008091EB0088606C
:10370000EBCF8111AFCF8091C3028F77182F8091BB
:10371000E3008078812B8093E3008091E800877F2D
:103720008093E8000E94BB108091E80080FFFCCFEE
:103730008091E30080688093E30083E0111101C071
:1037400082E08093BC038ECF8058823008F08ACF0D
:103750002091C3023091C4022C3D83E0380791F5DB
:1037600083E08A838AE289834FB7F894DE01139657
:1037700020E03EE051E2E32FF0E0509357008491C7
:1037800020FF03C082958F703F5F8F708A30C0F03A
:10379000895C8D931D922F5F243169F74FBF809113
:1037A000E800877F8093E8006AE270E0CE0101962E
:1037B0000E942E108091E8008B778093E80052CF12
:1037C000805DE7CF832F90E08330910519F160F49D
:1037D0008130910509F46CC08230910509F042CF27
:1037E0008BE3E8EDF1E029C02091C5023091C602DB
:1037F0008132910509F453C08232910509F032CF2C
:103800002130304008F45CC009F02CCF88EBECED9F
:10381000F0E013C0822F90E0213099F182309105C1
:10382000B9F1009709F01ECFE5E4F2E0E4918E2FA4
:10383000E5E4F2E0009709F415CF2091E800277F36
:103840002093E8002091C7023091C80282179307A5
:1038500008F49C0140E020303207B1F5411134C03A
:103860008091E80082FDA6CF8091BC03803009F4EE
:10387000A1CF853009F49ECF8091E80083FFF0CF7F
:1038800099CFE3E3F2E0E4918E2FE3E3F2E0D2CFCD
:10389000E5E2F2E0E4918E2FE5E2F2E0CBCF2130D9
:1038A000304050F009F0DECE89E0E3E0F2E0C5CF31
:1038B00082E1E3E1F2E0C1CF89E0EAEEF1E0BDCFE1
:1038C00084E4E4E9F1E0B9CF8091BC03803009F4ED
:1038D00071CF853009F46ECF8091E80083FD6ACF07
:1038E0008091E80082FDBCCF8091E80080FFB3CFDB
:1038F0004091F3008091F200942F2030320719F0AC
:103900008830910550F041E0089709F040E080913F
:10391000E8008E778093E8009ECF44914093F100B9
:103920003196215030400196E8CF803809F09ACE88
:103930008091E800877F8093E8008091BF028093A8
:10394000F10086CE81118ECE8091C302182F823075
:1039500008F088CE8091E800877F8093E80010937C
:10396000BF020E94BB101030A9F084E08093BC031A
:1039700042E061EC81E00E948B1042E261EC82E067
:103980000E948B108091BC03843051F482E08093BC
:103990007A0168CE8091E30087FDE7CF81E0E6CF32
:1039A00081E0F5CFFF920F931F93CF93DF93C62F44
:1039B000D42FF22E8030A9F06093910785D980939F
:1039C000D9029093DA0281E0C1FD84E0C0FD880F46
:1039D000C2FD82950E94B212CDB7DEB7E5E00C942D
:1039E0000B3280919107681332C00091D902109177
:1039F000DA026AD9801B910B8E35914040F51D2F5C
:103A0000105ECD17A1F0C77001E0802F01C0880FB4
:103A1000CA95EAF70E94AC12183048F48D2F8770CF
:103A200001C0000F8A95EAF7802F0E94B21260E071
:103A300070E08F2DBCDC81E0D1FD84E0D0FD880FEB
:103A4000D2FD8295183040F60E94AC12C5CF81E0BD
:103A5000C1FD84E0C0FD880FC2FD8295F5CFA0E0D6
:103A6000B0E0E5E3FDE10C94E9317C01FC018481E7
:103A7000803009F4D1C061E0C7010E94D209EC0195
:103A8000F7018581803009F458C0918190939007A7
:103A9000908190938F0790E290937B01C0938D0764
:103AA000D0938E079E0130523032F8F496819031D7
:103AB00008F448C5EC2FF0E0ED33F10528F4EB5F96
:103AC000F44FE491E0937B01C03392E2D907A1F473
:103AD000F7019681903108F42AC1803009F437C289
:103AE00060E070E080E392E004C19E013054303128
:103AF000A0F496819031F0F6C0349EE7D907B1F179
:103B0000CF3291E2D90709F4E9C0FE01E851FC4740
:103B1000E730F10508F00EC125C09E0131503F315C
:103B200048F29E01205A32452032304008F402C14A
:103B3000FE01CD33D10518F2DFCFC03392E2D907B1
:103B400039F2C0349EE7D90709F457C0CF3291E269
:103B5000D90709F4C3C0FE01E851FC47E730F1057D
:103B600008F0E5C0E95BFC4C0C94543241EF5BE09B
:103B700009C0823019F5FE0184914D5F5F4FEA0163
:103B800060DBAE01FA0184918030B9F1EA0121963F
:103B9000813009F05DC0FE018491282F219681308B
:103BA00041F7FE0184914D5F5F4FEA0160E570E0EF
:103BB000893311F060E070E0FADBE3CF833039F451
:103BC000FE0184914D5F5F4FEA01A7DBDACF8430BD
:103BD00091F4FE0124914D5F5F4FEA0140E050E017
:103BE0003AE0622F70E0CB010E947C32892BC9F44D
:103BF0004030540721F52111C4CF8091A30787706D
:103C000059F0F7018581803039F08091A50782FF56
:103C100003C082E00E945607CDB7DEB7EBE00C94FC
:103C20000532349FC001359F900D1124AB014053E4
:103C30005040480F591FFE0124912196D2CF8FE9A1
:103C40009FE00197F1F700C0000041505040D0CFF5
:103C5000E82FF0E0EF58F44F9491992E282F2695F5
:103C60002695269530E0F901EF59F44FC4908770FE
:103C7000D12C082E02C0D594C7940A94E2F7F9011A
:103C8000EF5AF44FA490B12C082E02C0B594A7941B
:103C90000A94E2F72F5B344FF901049110E002C05F
:103CA000159507958A95E2F7C0FE02C081EEC9DA44
:103CB000A0FE02C086EEC5DA60E070E0892D77DBF9
:103CC000A0FE02C086EE29DBC0FE02C081EE25DB2D
:103CD00000FF57CF60E070E08CE26ECFF701968175
:103CE000903128F1803009F432C160E070E08FE259
:103CF00092E042DB82CF26E241EE61EE53DE7DCFE1
:103D000027E245EE65EEFACF26E241EE60EEF6CF11
:103D100027E245EE64EEF2CF26E241EE62EEEECF10
:103D200027E245EE66EEEACF28E241E0EBCF8030B5
:103D300009F4FAC3109291079E01305723323040A4
:103D400008F0C8C084E090E00E94D1328093A407BC
:103D50009093A507FE01E150F047E232F10520F40F
:103D6000E25BFC4C0C9454328091A40781608093F8
:103D7000A4076091A4077091A50784E090E00E94D9
:103D8000FF322BDB3ACF8091A50788608093A5078F
:103D9000F0CF8091A4078260EACF8091A40784606D
:103DA000E6CF8091A4078860E2CF8091A50781606B
:103DB000EDCF8091A5078260E9CF8091A407806153
:103DC000D6CF8091A4078062D2CF8091A40780646F
:103DD000CECF03DB8091A4078068C9CF8091A40770
:103DE0008C60C5CF8091A5078360D0CF8091A40758
:103DF0008E7FBDCF8091A507877FC8CF8091A40714
:103E00008D7FB5CF8091A4078B7FB1CF8091A40720
:103E1000877FADCF8091A5078E7FB8CF8091A50712
:103E20008D7FB4CF8091A4078F7EA1CF8091A4070E
:103E30008F7D9DCF8091A4078F7B99CFCEDA809123
:103E4000A4078F7794CF8091A407837F90CF809130
:103E5000A5078C7F9BCF9091A407892F8B7F92FF22
:103E60008460877F92FF886082CF8091A507982F1A
:103E7000909590FB80F990FB81F988CF9091A407F1
:103E8000892F8F7B96FF806472CFA7DA9091A40769
:103E9000892F97FB87F980586ACF61E08EE090E028
:103EA0000E94E53266CF60E0F9CF9091A407892F98
:103EB0008F7E94FF80615BCF9091A407892F8E7FC6
:103EC00090FF816054CF9091A507892F877F93FF42
:103ED00088605CCFC6319CE7D907A9F480919C0724
:103EE0008A7A91E0811101C090E09093920780302E
:103EF00031F085E30E94970F0E9456127ECE89E230
:103F0000F9CF89E21CC3803011F19E01205238475D
:103F10002B30304008F471CE9E01205E32452032B5
:103F2000304008F07FC081118FC0CF7181E090E0F8
:103F300002C0880F991FCA95E2F7EC01682F83E051
:103F400090E00E94E532CE010E949D0656CE9091EF
:103F50009C079272FE01E054F847EF30F105E0F65D
:103F6000E059FC4C0C94543280919307837011F407
:103F700010927C01809193078C7F816080939307DE
:103F80000E94430B3ACE80919307837011F01092F8
:103F90007C01809193078C7FF1CF8091930791E012
:103FA00089278093930710927C01EACF903029F003
:103FB0000E94D70D22CE9030D9F30E94CE0D1DCE97
:103FC000903029F00E94F60D18CE9030D9F30E945F
:103FD000EE0D13CE903029F00E94090E0ECE9030D7
:103FE000D9F30E94FE0D09CE903029F00E941F0ED9
:103FF00004CE9030D9F30E94140EFFCD903029F0FA
:104000000E94330EFACD9030D9F30E942A0EF5CDDE
:10401000903029F00E94520EF0CD9030D9F30E94DA
:104020003C0EEBCD803071F1CB359CE7D90709F11F
:10403000CC359CE7D90791F0CA359CE7D907B9F090
:10404000C1309CE7D907E9F0C3309CE7D90799F064
:10405000C030DC47B9F4C1D90E941D108091A5077A
:10406000002482FF0394802D0E943F12C6CD81E080
:10407000FBCF80E0F9CF6FEF7FEF80E090E00E9410
:10408000FF32D7D9F701278130852030320781F000
:10409000C9010E94B208082FC92FF701D5801681E7
:1040A00012951F708091A3078770C1F4C12C37C08F
:1040B00000811181803069F0C8010E949F09C82FDA
:1040C000682FC8010E94C506B8018C2F0E949D0769
:1040D000E0CFC8010E94FA06C82FF6CFCD2CD1142C
:1040E000F1F0892F807F803461F0802F805E8830EE
:1040F000E8F2892F807E803221F40230B8F210304D
:10410000A9F28091A50782FFD1CF82E00E945607D5
:104110008091A3078770CC24C3948111C7CFEC2F63
:10412000E295EF70C03C08F062C0F0E0E158FC4C52
:104130000C945432DC2FDF70C03110F0D295D07F58
:10414000D114B9F0D03069F0802F805E883010F043
:10415000011109C080919C078D2B80939C070E94C0
:104160005612802F3EC080919B078D2B80939B071A
:10417000F6CF802FD2D8D030D1F1802F805E88301A
:1041800010F0011104C08D2F0E94950706C0D09534
:1041900080919B078D2380939B070E94561227C016
:1041A000DC2FDF70C07FC03211F0D295D07F01309C
:1041B00040F009F461C0D11409F46BC0103099F1DA
:1041C000D0CF8091A50782FD2AC0D11461F0D030F4
:1041D00039F080919C078D2B80939C070E9456128A
:1041E00080E02FD804C080E098D8D111CCCFC11482
:1041F00009F4B7C08091A30780FDB3C0F701158211
:104200008695869586950E94A706C70128DC809131
:10421000A3078695869586950E94B506A2C0D114FF
:1042200089F0113020F48D2F0E94B212E0CFF9F600
:1042300080919D079D2F9823D917C9F28D2B8093CC
:104240009D07D5CF1111D3CF8D2F0E94AC12909125
:104250009D078D2F892329F08D2F809589238093A9
:104260009D0780919E079D2F982309F4C0CFD0957C
:10427000D823D0939E07BBCFD11421F0163008F07D
:10428000B6CFD1CF153008F0B2CF8D2F0E94AC122F
:10429000AECF1030D1F3093349F48FEF97EE23E01E
:1042A000815090402040E1F700C00000802F35D8B9
:1042B0009ECF8C2F869586958370813060F009F0B3
:1042C00096CF802F9C2F9370D11002C080E090E099
:1042D0000E94700F8CCF802F9C2F9370D11002C042
:1042E00080E090E00E94490F82CF6D2D802F0E94C8
:1042F00062187DCF8C2F837009F046C0D1102FC07B
:10430000402F429546954770440F440F202F2F7041
:1043100030E0042E02C0220F331F0A94E2F780E03F
:1043200090E004FF09C08FE090E002C0880F991F61
:104330004A95E2F780959095C695C695C370C230B0
:10434000D1F0C330A9F040919F075091A007C13030
:1043500069F0822B932B842395230E949D060E9453
:10436000360F60E0C7010E94D20956CC242B352BB2
:10437000822B932BF2CF822B932B20919F0730918E
:10438000A00782279327E9CFD11491F1C0FFE7CF8F
:10439000402F429546954770440F440F202F2F70B1
:1043A00030E0042E02C0220F331F0A94E2F780E0AF
:1043B00090E004FF09C08FE090E002C0880F991FD1
:1043C0004A95E2F780959095C695C695C370C23020
:1043D000C1F0C33099F04091A1075091A207C130BC
:1043E00059F0822B932B842395230E94A206B7CFEA
:1043F000823008F4B4CFCCCF242B352B822B932BD7
:10440000F4CF822B932B2091A1073091A207822712
:104410009327EBCFCF70D11439F08C2F0E94A706D1
:10442000802F0E94B2129BCF802F0E94AC128C2F43
:104430000E94B50694CF023F99F170F4003FC9F095
:10444000013F91F0D11409F45BC0103009F455C05C
:10445000802F0E94211983CF033F49F1043F91F738
:104460009091A50792FD31C08C2F8F71D11401F36B
:104470001BC0D11499F0153008F071CFCF7181E0D5
:1044800090E002C0880F991FCA95E2F7EC01809175
:10449000A1079091A2078C279D27A7CF1630ECCFBC
:1044A0008C2F8F71D110C4CF0E94A70658CF80E007
:1044B00090E0D11409F499CFCF7181E090E002C06F
:1044C000880F991FCA95E2F790CFD11461F08C2F15
:1044D0008F7192FFE9CF982F990F990F990F9360E1
:1044E0009093A307E1CF81E00E945607123008F4B1
:1044F00036CF82E00E94560732CF8C2F8F71D4CFF7
:10450000103079F0093349F48FEF97EE23E08150B2
:1045100090402040E1F700C00000802F0E948D19DC
:104520001ECF8C2F8F7184CFC6319CE7D90709F03D
:104530000ECD80919207803009F4E3CC85E30E9490
:10454000CB0FDACCC03392E2D90709F0FFCAC0CA58
:1045500080916907803170F480916807803051F054
:10456000E0911A0720911907309164074091630781
:104570002E1301C00895BF0189E0E89FF0011124C6
:10458000DF01A55EB84F14968C911497803051F1DD
:1045900011968C911197831325C08C91841322C09E
:1045A00015968C91159781111DC012968D919D9134
:1045B000A0916507B09166078A1B9B0B8E359140D1
:1045C00088F4809169078F70806180936907EF5D3F
:1045D000F84F80818F708061808383E697E03FDAB7
:1045E0000C944C076F5F7F4FFB01E770C1CFAFE0CA
:1045F000B0E0EDEFF2E20C94E7318C0186E0F801D7
:10460000DE011A9601900D928A95E1F7F801E58096
:10461000748083E6882E87E0982EF0906707F1106B
:1046200025C0711401F1E114E1F0C8010E94010AF2
:10463000F82E8030B1F089E0F801D40101900D929C
:104640008A95E1F7872D813031F48091630790914D
:1046500064070E94F7097CDF8F2D2F96EDE00C9404
:104660000332C801FCD9FF24F394F6CFD080A28096
:10467000B380C090680780916507909166079501A7
:10468000281B390BC901C11409F4E2C08E359140D1
:1046900008F0B1C0711409F481C090916407918051
:1046A00080916907803108F05DC0FE2C99121BC013
:1046B000909163079D1117C040916A0750916B0755
:1046C000278130854217530771F4E11044C08F7081
:1046D00080618093690783E697E0C1D9809169077B
:1046E000F8018683B9CFE11036C040E0692D8D2DE9
:1046F0000E942D0740E0692D8D2D0E942D07E82E88
:104700008111AACF8A859B850E94F709292F2295BE
:104710002F70903458F49F70223080F0903091F0D8
:10472000F8019681903170F4FE2C96CF2A5F2F709D
:10473000223060F0C80193D9EC2CF6CF903011F004
:10474000803091F3805E883078F3F4CF803F60F35F
:10475000815F8330F9CF8091690781608093690719
:10476000F12C7ACF99121CC0909163079D1118C04B
:1047700040916A0750916B07278130854217530794
:1047800079F4E1100DC08683C80169D989E0F80188
:10479000A3E6B7E001900D928A95E1F7FC2C5CCF7F
:1047A000C8010E94010A803009F45BCFE11409F4CA
:1047B00058CF809169078032A0F020916307309133
:1047C000640729833A83AB82BC82FD821E828F8379
:1047D00080916A0790916B0788879987CE0101962F
:1047E0003ED989E0F801A3E6B7E001900D928A95E1
:1047F000E1F7AEDE38CF80916907803148F483E677
:1048000097E02DD9F40189E011928A95E9F7A8CFB4
:10481000711421F22091640791812913C1CF9091E5
:1048200063079D11BDCF40916A0750916B072781A7
:1048300030854217530709F0B3CFE110B1CF86831B
:10484000C8010DD9F40189E011928A95E9F7A6CF44
:104850008E359140B8F7711409F405CFFE2CE114A0
:1048600009F4FFCE909164078181981329C080914B
:1048700063078D1125C020916A0730916B078781EE
:10488000908528173907E1F49091690790FD0FC0D2
:10489000903168F0892F9683907F903F31F0982F68
:1048A000907F905F8F70892B8683C801D8D889E06C
:1048B000F801A3E6B7E001900D928A95E1F7CCCE1E
:1048C000C8010E94010A81118CCF80916907816023
:1048D00080936907C801C3D8BFCEA9E0B0E0E3E781
:1048E000F4E20C94F03109831A832B833C834D83CB
:1048F0005E836F8378878987CE01019678DE811188
:1049000022C08D818030F9F0A09119078A2F90E0A4
:104910008395877090E0AC0120911A072417150643
:10492000E1F099E09A9FD0011124A55EB84F9E0155
:104930002F5F3F4FF90101900D929A95E1F7409357
:1049400019070E944C0780911A0790911907891343
:1049500011C02996E4E00C940C320E94ED191092DB
:10496000190710921A07E3E6F7E089E011928A9599
:10497000E9F7E9CF29E0829FC0011124855E984FB5
:1049800036DE803031F380911A0790911B07019633
:10499000877080931A07D7CFA9E0B0E0E2EDF4E288
:1049A0000C94EE310E9464167C018091ED0690918A
:1049B000EE068E159F0569F00E9464169C0100E0CA
:1049C00010E0A801B80180E088DFE092ED06F092E7
:1049D000EE062996E6E00C940A32A9E0B0E0E3EF97
:1049E000F4E20C94EE317C01FC0182819381892BED
:1049F00091F0FE01319687E011928A95E9F70E94C5
:104A000064169C01F7017281838109811A8144E057
:104A10005E816F8162DFF70115822996E6E00C94D2
:104A20000A32EF92FF920F931F93CF93DF938091FF
:104A30002D04E091DB02CDE0811130C0CDB7DEB7AF
:104A4000E6E00C940A32DE2FDF5FD093DB02EE2E1D
:104A5000F12CCE9FF0011124EB53FC4F8481803068
:104A6000E1F087819085892B21F4818592850196DB
:104A700051F4008111812281338144815581668105
:104A8000778180852ADFCE9DF001CF9DF00D112426
:104A9000EB53FC4F148210929B07ED2F80912D0455
:104AA000E81788F210922D041092DB02C7CF4F92C4
:104AB0005F927F928F929F92AF92BF92CF92DF923E
:104AC000EF92FF920F931F93CF93DF93C0916904EE
:104AD00091E0E92EF12C809168048C1313C0A1DFC2
:104AE0000E94890EDF91CF911F910F91FF90EF905F
:104AF000DF90CF90BF90AF909F908F907F905F900E
:104B00004F900895D0E0FE01EE0FFF1FE354FC4FDD
:104B100000811181A0E0B0E00830110540F487E089
:104B2000809FD001819FB00D1124A15FBE4F1496CC
:104B30008C911497811159C070902D0445EC53E06D
:104B400020E030E0A12C271508F04CC0FA01438486
:104B50005484CD90DD90129799249A94892CB12C8D
:104B60008B2D90E0F601EB0DF11DEB0DF11D659124
:104B700075914616570609F0C401672B19F0B394D6
:104B80004C01EECF8F3F9807A9F1B70101C0660F26
:104B90008A95EAF7A62AC7010B2C02C0880F991F35
:104BA0000A94E2F70197A816190611F512968D914D
:104BB0009D914DE0429FF001439FF00D1124EB5376
:104BC000FC4F8783908784E0848310821182018761
:104BD000128781E011968C9315978B2D813011F4FB
:104BE000CD01FBDEC8010E949A0EC395C37073CF3E
:104BF000FA0114822F5F3F4F435F5F4FA4CF1092A3
:104C00006C0410926D0410924701809168048093A7
:104C100069040E94890E05CFCDB7DEB76F970FB636
:104C2000F894DEBF0FBECDBF85B7806885BF85B75E
:104C3000806885BF84B7877F84BF0FB6F894A89536
:104C400080916000886180936000109260000FBEC8
:104C500080E890E00FB6F894809361009093610033
:104C60000FBE81E080937A0182E39AE08093940200
:104C7000909395020E9467110E940D118091E200AD
:104C800084608093E20078948091BC03803099F036
:104C90008091E9001091EC008F7010FB112717F93B
:104CA000182B1092E9008091E80083FD0E94251ADC
:104CB0001F701093E90082E084BD93E095BD9AEFE8
:104CC00097BD80936E001092E9061092EA0610924A
:104CD000EB061092EC0688EC90E02091E30027FDB3
:104CE0000EC0EFE3FCE93197F1F700C00000019737
:104CF000A1F70E9467111092BC0380E001C081E01F
:104D00008093E7068093E80681110E9480308091AD
:104D1000E80691E08927880F880F8093DE0694E0EB
:104D2000981B9093D206EAE8EE2EE2E0FE2E0EE803
:104D300012E0F70181917F018F3F11F00E94340A48
:104D40000E151F05B1F77EE8E72E72E0F72E04E995
:104D500012E0F70181917F018F3F11F00E94340A28
:104D60000E151F05B1F7E6EDF6E088E011928A9581
:104D7000E9F7EFEDF6E088E011928A95E9F780E037
:104D800090E00E94D132833E9E4F69F163EE7EEF48
:104D900080E090E00E94FF3260E082E090E00E94BC
:104DA000E53281E090E080939F071092A00761E0D8
:104DB00083E00E94E53260E074E184E090E00E94CC
:104DC000FF320E94381560E070E0AB018FE090E0A8
:104DD0000E94F73260E070E0AB0183E190E00E9456
:104DE000F7320E942D1582E090E00E94C932809334
:104DF0005F0484E090E00E94D1328093A4079093F6
:104E0000A5070E94B5168FEF96E721E081509040EC
:104E10002040E1F700C000000E94B516E091E806CE
:104E200011E0E127EE0FEE0FF0E0EA52F94F80813A
:104E300081FF08C06FEF7FEF80E090E00E94FF32BB
:104E40000E941D1083E090E00E94C93290E00E9411
:104E50009D060E947C0E10928E0340E150E06FEFA1
:104E600070E087EA93E00E94AF3210922E0440E196
:104E700050E06FEF70E087E494E00E94AF3210934F
:104E80008D0348E050E067E170E083E997E00E941D
:104E9000B93210928D0380919307843010F40E94F0
:104EA00038158091E7068127880F80938E0680E869
:104EB0008093B903C1D76BE070E084EA98E00E9468
:104EC000FD158030E9F180918E0665E070E081FD8E
:104ED000E1C08FE998E00E94FD15803089F16DE016
:104EE00070E08DE898E00E94FD15803049F10E9445
:104EF000F60FDC01CB0180529C46AB4FBF4F809335
:104F0000920690939306A0939406B0939506EEE8CC
:104F1000F4E0DF0180E092E01D920197E9F7E09371
:104F2000B703F093B8038FEF9FEF809390069093B1
:104F3000910681E0809399068093960610928F06E1
:104F40008091E706811102C00E94833085E091E0E4
:104F500080930F0790931007512C412ECE0101969C
:104F60008A879B878091BC0300E110E452E1F52E13
:104F7000853009F4EEC00E94B51680E694E08E8B71
:104F80009F8B86ED96E08A8F9B8F28E634E0FC01AC
:104F9000A0E6B4E09D9180812A173B0709F4E6C0A2
:104FA00031969817B9F38091E7068D8F87E594E0E5
:104FB0008C879D878EEA91E08C8B9D8B1F86EA8D76
:104FC000FB8D8191888BEA8FFB8FEE89FF89819120
:104FD000EE8BFF8B9889891709F467C498279C8FFB
:104FE000A12CB12C81E08E878C8D9E85892309F4BC
:104FF0004DC4888989238B8B8D8D803009F4D0C373
:10500000EC85FD85808190E092010A2C01C0220F81
:105010000A94EAF78223892B09F0C2C31A2D0E9451
:1050200064169C0191E08B89811103C390E01F827B
:105030001886198619838F858A832B833C8381E0A8
:105040008D839E8361E08A859B850E94D20961E001
:105050008A859B850E94D20961E08A859B850E9492
:10506000D2094C0180E588168CE7980609F0E4C265
:105070008E81803009F4F7C281E080934701098175
:105080001A812B813C814D815E816F817885898574
:1050900024DC86C38AE998E01ECF8091BC0384306B
:1050A00051F10E944E1581E00E94A30D0E942C1622
:1050B0001092BA0388E190E00FB6F894A895809317
:1050C00060000FBE1093600083B7817F846083BF50
:1050D00083B7816083BF7894889583B78E7F83BFC1
:1050E0000FB6F894A8958091600088618093600065
:1050F000109260000FBE0E94B516E6EDF6E0A7E53F
:10510000B4E080E021912D9391E0211101C090E065
:10511000892B2EED36E02E173F07A1F78030C9F01E
:105120008091BB038030A9F009BDF9BC09B400FE31
:10513000FDCF8091D8008F7D8093D8008091E000D2
:1051400082608093E0008091E00081FDFCCF0E94AE
:10515000ED198091BC03853009F49FCF0E94ED19B1
:105160000E94360F80E00E94A30D05CF98131BCF3D
:1051700013DCD12C8091E706803031F1809147011A
:10518000803011F100916C0410916D040030100713
:10519000D9F00E946416801B910B20916A04309113
:1051A0006B042817390780F4909169048091680492
:1051B000981709F465C47BDC10926A0410926B04A2
:1051C00010926C0410926D040E944E158091990605
:1051D000803009F452C100919706109198060E9400
:1051E0006416801B910BC29708F46CC00E94641671
:1051F000809397069093980680E00E946B0E8091B2
:105200009606803009F45EC08091E706803009F48C
:105210004FC480E00E946B0E8DE199E00E949613CE
:105220008091A1079091A2070E942006823009F484
:1052300036C408F02AC481112FC482E199E00E948B
:10524000961382E00E946B0E0E94360F182F117089
:1052500081FB662760F981ED98E00E9485138DEC53
:1052600098E00E949613612F83EC98E00E948513CA
:1052700083E00E946B0E10919C07812F827261E087
:10528000811101C060E08EEB98E00E94851361E01F
:10529000812F817109F460E089EB98E00E94851309
:1052A00061E0812F847409F460E084EB98E00E944F
:1052B0008513187861E0111101C060E08FEA98E071
:1052C0000E9485138091900690919106892B09F494
:1052D000B9C080919906803009F4B4C080918F06DE
:1052E0008111B0C00E940A1680919006909191069B
:1052F000009709F4A7C080FBEE24E0F8F12C10E041
:1053000080FD0DC01F5F7201012E02C0EE0CFF1C5C
:105310000A94E2F7970128233923232B99F38091EC
:105320008E0680FFC8C3912F990F990F990F392FBF
:10533000395F80E023E090934A0180934D013093E0
:105340004B0120934E0124E630E047E050E068E452
:1053500071E088E7A4D5892B09F074C080E2189F1A
:10536000A001112480918E0680FFB7C3EEE6F4E021
:1053700080E211928A95E9F784E892E08C879D8714
:1053800090E8892E92E0992EAC85BD85ED91AC8791
:10539000BD87D4010D914D01040F152F111DF0E0B3
:1053A000E259FB4F20E030E087E0A82EA21AC42C7F
:1053B000022E01C0CC0C0A94EAF7C80182579B4F19
:1053C0001C0190E0D1018D911D018C216A2D691B7A
:1053D000677070E0A82F062E01C0AA0F0A94EAF7A2
:1053E000719561957109677001C086956A95EAF7B4
:1053F0008A2B6081682B60839F5F983019F72F5F3D
:105400003F4F31962830310579F62C853D85285857
:10541000324009F0B9CF04E610E020E230E04EE679
:1054200054E060E488E7C9D5892B61F4E094F094F6
:1054300080919006909191068E219F2180939006F5
:1054400090939106809196068030B9F00E94F60FF5
:105450000091920610919306209194063091950642
:10546000DC01CB01801B910BA20BB30B8F3F9F4F35
:10547000AF4FBF4710F40E942C16D1100E940A169D
:1054800086E0E7E8F7E0AA85BB8501900D928A9552
:10549000E1F7B0908807E0908907F0908A07C09004
:1054A0008B07D0908C071092890710928A07109270
:1054B0008B0710928C078F2D8E2909F441C0009123
:1054C0009C0610919D060E946416801B910B9C0106
:1054D00090918507903009F40CC32531304080F15C
:1054E0009F3F19F09F5F90938507E11459F00E9448
:1054F000F20E91E01E140CF09FEF899F802D112475
:1055000080938907F11459F00E94F20E91E01F1464
:105510000CF09FEF899F802D112480938A07809142
:105520008907803069F010918A07103049F00E9495
:10553000E40E80938907812F0E94E40E80938A07EE
:105540008D2D8C2909F441C000919A0610919B067B
:105550000E946416801B910B9C01909184079030EF
:1055600009F4C2C22135304080F19F3F19F09F5F9E
:1055700090938407C11459F00E94120F91E01C14FB
:105580000CF09FEF899F802D112480938B07D114FD
:1055900059F00E94120F91E01D140CF09FEF899FAB
:1055A000802D112480938C0780918B07803069F0C7
:1055B00010918C07103049F00E94E40E80938B0705
:1055C000812F0E94E40E80938C0780918807B81287
:1055D00019C080918907803011F0E81213C0209122
:1055E0008A07203011F0F2120DC090918C07903094
:1055F00011F09D1107C030918B07311103C0822B30
:10560000892B11F00E943A1886E0EA85FB85A7E80D
:10561000B7E001900D928A95E1F70E94360F9091C4
:105620009E06891709F49ECC80939E060E94F60F71
:1056300099CC10929B07FBCC81E588168CE79806E5
:1056400029F48E81803079F0DADA19CD82E5881676
:105650008CE7980641F48E81803029F080914701D3
:105660008111F2CF09CD0FE011E0E12C212C312C7A
:10567000F8014081518180E06FEF9FEFC82ED12C5F
:10568000FA01E80FF11DE80FF11D25913591821601
:10569000930611F0C62ED92E232B21F08F5F6C2D8F
:1056A0009D2DECCF9FEFC916DC0409F4CEC19E817D
:1056B000F8014481F09047014111F12CF801758007
:1056C0002681903009F48BC1F11409F488C171105E
:1056D00013C0A20101C0440FCA94EAF7242B268309
:1056E00020916A0430916B042233304028F422E385
:1056F00020936A0410926B04920102C0220F331FA0
:105700008A95E2F7C9010197F80126812817190641
:1057100009F049C1C0906C04D0906D04C114DC0440
:1057200009F4D9C00E9464168C199D09C39708F426
:10573000D2C081E0F8018483E82A8FEF281A380A62
:10574000095F1F4F88E02816310409F091CF8E8140
:10575000803009F47CC1E11409F479C10E94641617
:1057600080936C0490936D0480912D048830C0F474
:10577000982F9F5F90932D042DE0829FC0011124EC
:105780008B539C4F29E0EA85FB85DC0101900D924B
:105790002A95E1F7FC012FEF2187228783869486E3
:1057A0008B89803041F0EC89FD89EA0DFB1D8081F9
:1057B0008F3F09F061C1D12C0D2D10E080912E0496
:1057C0008D0D9927991F09974CF188E0E82EF12C4F
:1057D000E01AF10AB801615D7B4FA7018FE294E006
:1057E000ADD6B801695C7B4FA70187E394E0A6D6EC
:1057F000A701440F551FB801660F771F695B7B4FE8
:1058000087E494E09BD6B801615C7B4FA7018FE3EE
:1058100094E094D688E08D1980932E04D11431F150
:1058200080912E04998DA92FB0E0682F70E09B0124
:10583000225D3B4FAD01440F551F42525E4FFA01AE
:105840009081F9019183AA0FBB1FA255BE4FD1963B
:105850009C919187998D918B660F771FFB01E25D7B
:10586000FB4F118E128E8F5F80932E048B898111D6
:105870000DC0842D0A2C01C0880F0A94EAF7982FD6
:105880009095EC85FD858081892380838E85880FA6
:105890008E878FEFA81AB80A86E0A816B10409F01F
:1058A000A3CBEE89FF89888982938F858F5F8F874D
:1058B0008C859D8501968C879D878C899D89069610
:1058C0008C8B9D8B8F85883009F079CB0E940210DC
:1058D000DD24D3944FCC7090690480916804888F44
:1058E000798AA0E0B0E0888D781609F449C0272DA8
:1058F00030E0F901EE0FFF1FE354FC4F408151816E
:10590000A0E0B0E04830510540F487E0849FD0012A
:10591000859FB00D1124A15FBE4F8D919D9112976F
:105920008E8F9F8F612C80E090E0EE8DFF8DE90FD0
:10593000F11DE90FF11D4591559140305407C1F01B
:10594000F801C080D180612C07C0E1E046175707FD
:1059500009F0E0E08E2B6394F601E60DF11DE60DF3
:10596000F11D659175916030760779F79F5FDDCF06
:10597000803091F16916C8F4F80181E08483D80180
:10598000898980936904A017B10769F0888D90E038
:10599000FC01EE0FFF1FE354FC4F20823182019681
:1059A0008370809368048F2DC7CE109781F081E0BB
:1059B00014968C931497A017B10711F38989781264
:1059C00006C049895A894395842F8370898B239512
:1059D000822F8370782E87CFA0E0B0E0F8CF30E040
:1059E00071101DC0B20102C0660F771F8A95E2F7E1
:1059F000CB0101972817390729F4403021F0C10164
:105A00000E949A0EF72CC20101C0880FCA94EAF7CF
:105A1000C82EC094F80186818C218683C4CFA90149
:105A20000C2C02C0559547950A94E2F7C9010197DD
:105A300082239323892B31F440FF04C0C8010E94C4
:105A4000ED24E0CF4170F42EDECF80E075CE909152
:105A5000690480916804981731F029D88E2D81301F
:105A600009F49ECE0CCB0E94112510926C0410926A
:105A70006D040E94890EF2CF898FDD24D3949CCED1
:105A80000E9411250E94890E9BCB833059F08430EF
:105A900061F08BED98E0D3CB87E099E0D0CB8CEF31
:105AA00098E0CDCB81EF98E0CACB86EE98E0C7CBEB
:105AB0000E94791607CC20E2129FC0011124880FA2
:105AC000492F441F550B5195242F912F9295990FD3
:105AD0009076392F315E842F2ECC42575B4F04E6EF
