:1000000001C600001CC600001AC600000C94143182
:1000100016C6000014C6000012C6000010C600007C
:100020000EC600000CC600000C94F22D0C94DA2EC3
:100030000C94081604C6000002C6000000C60000AA
:10004000FEC50000FCC50000FAC50000F8C50000B0
:10005000F6C500000C94CE2DF2C50000F0C50000DE
:10006000EEC50000ECC50000EAC50000E8C50000D0
:10007000E6C50000E4C50000E2C50000E0C50000E0
:10008000DEC50000DCC50000DAC50000D8C50000F0
:10009000D6C50000D4C50000D2C50000D0C5000000
:1000A000CEC50000CCC50000CAC50000110010007C
:1000B00000001900050000000B000D3200000922AD
:1000C0000A0000001C0018000000150017000000C6
:1000D0003700380000002C0028000000050109024C
:1000E000A10185020901A1000509190129081500CE
:1000F0002501950875018102050109300931158135
:10010000257F95027508810609381581257F95019F
:1001100075088106050C0A38021581257F95017541
:10012000088106C0C005010980A10185031A81006C
:100130002A8F00168100268F00950175108100C05E
:10014000050C0901A101850419012AA00215012647
:10015000A002950175108100C005010906A1018565
:1001600006050719E029E7150025019508750181A5
:10017000020507190029EF1500250195F075018189
:10018000020508190129059505750191029501756A
:10019000039101C005010906A101050719E029E73E
:1001A00015002501950875018102950175088101E9
:1001B0000507190029FF150026FF0095067508811F
:1001C00000050819012905150025019505750191FE
:1001D00002950175039101C009023B00020100A0D4
:1001E000FA090400000103010100092111010001C5
:1001F00022440007058103080001090401000103EE
:1002000000000009211101000122B8000705820346
:100210002000011201000200000008534601000105
:1002200000010200010C0343006F0072006E0065C4
:10023000000000100366006F006F0073007400611F
:10024000006E0000000403090400AE00AF000000CF
:100250000000003E5B4F5B3E003E6B4F6B3E001C60
:100260003E7C3E1C00183C7E3C18001C577D571CF1
:10027000001C5E7F5E1C0000183C180000FFE7C3F6
:10028000E7FF00001824180000FFE7DBE7FF00305D
:10029000483A060E00262979292600407F050507E1
:1002A00000407F05253F005A3CE73C5A007F3E1C3A
:1002B0001C0800081C1C3E7F0014227F2214005FD3
:1002C0005F005F5F0006097F017F00006689956A15
:1002D0000060606060600094A2FFA2940008047E49
:1002E00004080010207E20100008082A1C080008BE
:1002F0001C2A0808001E10101010000C1E0C1E0CEA
:100300000030383E383000060E3E0E060000000079
:1003100000000000005F000000000700070000145C
:100320007F147F1400242A7F2A120023130864629A
:1003300000364956205000000807030000001C2228
:100340004100000041221C00002A1C7F1C2A0008DA
:10035000083E0808000080703000000808080808FF
:10036000000000606000002010080402003E5149B7
:10037000453E0000427F4000007249494946002145
:1003800041494D33001814127F1000274545453967
:10039000003C4A49493100412111090700364949C9
:1003A000493600464949291E00000014000000009B
:1003B00040340000000008142241001414141414E6
:1003C000000041221408000201590906003E415D67
:1003D000594E007C1211127C007F49494936003E7B
:1003E00041414122007F4141413E007F494949410D
:1003F000007F09090901003E41415173007F08084F
:10040000087F0000417F4100002040413F01007F04
:1004100008142241007F40404040007F021C027FC0
:10042000007F0408107F003E4141413E007F0909E2
:100430000906003E4151215E007F09192946002628
:10044000494949320003017F0103003F4040403FDA
:10045000001F2040201F003F4038403F0063140829
:100460001463000304780403006159494D430000FC
:100470007F41414100020408102000004141417FBA
:100480000004020102040040404040400000030715
:100490000800002054547840007F28444438003835
:1004A0004444442800384444287F003854545418A5
:1004B0000000087E0902001824241C78007F08042C
:1004C00004780000447D4000002040403D00007F53
:1004D000102844000000417F4000007C047804782C
:1004E000007C08040478003844444438007C182414
:1004F000241800182424187C007C080404080048F0
:10050000545454240004043F4424003C4040207CC4
:10051000001C2040201C003C4030403C004428107F
:100520002844004C9090907C004464544C4400005B
:100530000836410000000077000000004136080046
:10054000000201020402003C2623263C00000000B9
:1005500000000000000000000000000000C0E0F00B
:10056000F8F81800C0F0FCFEFFFFFFFFFFFFFF7E62
:1005700000000000000000000080C0E0E0E0E0E0DB
:10058000E0E0E0C0800000000080C0E0E0E0E0E0EB
:10059000E0E0E0C080000000E0E0C0C0E0E0E0E0BB
:1005A0000000E0E0C0C0E0E0E0E0E0C0800000006B
:1005B0000080C0E0E0E0E0E0E0E0E0C080000000BB
:1005C0000000000000000000000000E0F0F0F0E09B
:1005D000ECEEF7F37020007C7C7C7E007E7E7E7FDC
:1005E0007F7F000080C0E07E5B4F5BFEC00000C0EC
:1005F00000DCD7DEDEDED7DC00C00000000000003B
:1006000000000000000000000000000000000000EA
:10061000000000000000F8FCFEFFE000FFFFFFFF0D
:10062000FFFF80FFFFFFFFFFFFFFFFFF1F0701002E
:100630000000000000000000FFFFFF81000000003C
:10064000000081C3C3C30000FFFFFF810000000062
:10065000000081FFFFFF0000FFFFFF01000000001E
:100660000000FFFFFF010000000001FFFFFF00008E
:10067000FFFFFF9D1C1C1C1C1C1C9DDFDFDF0000FE
:1006800000000000000000000000000F1F3F7F7FFF
:100690007F7F7F3F1E0C001F1F1F3F003F3F3F7F9C
:1006A0007F7F00307B7F7830202030787F3B0003D5
:1006B000000F7F0F0F0F7F0F0003000000000000EE
:1006C000000000000000000000000000000000002A
:1006D000000000000000030F1F3F3F3F3F1F1F3F70
:1006E0003F7F7F7F3F3F1F3F7F7F7F7F7C787838D2
:1006F0001C0F0000000000000001030707070707A8
:1007000007070703010000000001030707070707A9
:1007100007070703010000000707070000000000AB
:10072000000007070700000000000007070700009F
:100730000001030707070707070707030100000079
:1007400000000000000000000000000000000000A9
:100750000000000000000000000000000000000099
:100760000000000000000000000000000000000089
:100770000000000000000000000000000000000079
:100780000000000000000000000000000000010167
:100790000101010101010102020202020202020240
:1007A0000303030303030303040404040404040510
:1007B00005050505060606060607070707070808D4
:1007C0000808090909090A0A0A0B0B0B0C0C0C0D85
:1007D0000D0D0E0E0E0F0F0F10101111111212131E
:1007E000131414151516161717181819191A1A1B99
:1007F0001B1C1D1D1E1E1F202021222223242425F8
:100800002626272829292A2B2C2D2D2E2F30313230
:1008100032333435363738393A3B3C3D3E3F404140
:1008200042434445464748494A4C4D4E4F50515328
:1008300054555658595A5B5D5E5F616264656668DF
:10084000696B6C6D6F7072737577787A7B7D7E8063
:1008500082838587888A8C8E8F91939596989A9CAF
:100860009EA0A2A3A5A7A9ABADAFB1B3B5B7BABCC3
:10087000BEC0C2C4C6C9CBCDCFD1D4D6D8DBDDDF94
:10088000E2E4E7E9EBEEF0F3F5F8FAFDFF00DA0257
:1008900081FFD9F1DB20A4A62EAF00A0C0D30000B9
:1008A000A1C8D30000AED580A81F408D14200047FA
:1008B00055492000414C54200043544C20005346DD
:1008C0005420004E554D5F4C4F434B2000202620B6
:1008D00000434150535F4C4F434B00556E64656677
:1008E00020202020200041646D696E2020202020DF
:1008F00000464E20202020202020200053796D62C9
:100900006F6C732020200043616C63756C61746FA1
:10091000720051776572747920202020004C617933
:1009200065723A2000290014001A0008001500170B
:10093000002B0004281624072109220A00E1001DCB
:10094000001B00060019000500000000000000E385
:100950000021522C002A00130012000C0018001C69
:1009600000340033380F340E310D320B002352386F
:10097000003700360010001100000000000000E603
:1009800000225228000000000000000000000000CB
:10099000003900010001000100010000000000001A
:1009A0000000000000000000000000000000000146
:1009B0000001002C004C002502610060005F005324
:1009C0000056002E025E005D005C000000540063D3
:1009D000005B005A005900000000000000000062A7
:1009E000002352280035001E001F00200021002295
:1009F0000001002D282E242F213022310201002D4C
:100A0000022E022F0030003100000000000000E341
:100A10000023522C002A0027002600250024002352
:100A2000004D004A004F00520051005000000000ED
:100A30000000004E004B004900000000000000E6EE
:100A400000010028003A003B003C003D003E003F12
:100A5000000100AE00AC00AB00A800AA00010046F7
:100A6000000000000000000000000000000000E3A3
:100A70000001002C004500440043004200410040BA
:100A80000043784578497847784278A900000043C8
:100A90007846784A7848780000000000000000E6B8
:100AA0000001002800007C3D047A007B007C007D72
:100AB000000000000000002A01000000000000000B
:100AC000000000000000000000000000000000E343
:100AD0000001002C0000000000D200CD00D1000079
:100AE0000000000000D000CE00CF00000000000099
:100AF000000000000000000000000000000000E610
:100B00000001002800202020206162636465666780
:100B100068696A6B6C6D6E6F7071727374757677DD
:100B200078797A3132333435363738393052454274
:100B3000545F2D3D5B5D5C233B27602C2E2F2020D6
:100B40002000000000000000000000000000000085
:100B50000000000000000000000000000000000095
:100B600000000000007E0F00D4FFFFFFC700000060
:100B70007800000000000000002A2B280000000080
:100B8000000000000000000000000000290000003C
:100B9000002C1E3420212224342627252E362D37E2
:100BA00038271E1F202122232425263333362E37B3
:100BB000381F0405060708090A0B0C0D0E0F10114B
:100BC00012131415161718191A1B1C1D2F31302358
:100BD0002D350405060708090A0B0C0D0E0F101120
:100BE00012131415161718191A1B1C1D2F31303526
:100BF0004C3D3E7B7D004079617269656C5F646548
:100C0000760A000011241FBECFEFDAE0DEBFCDBFB1
:100C100012E0A0E0B1E0E6EBF7E602C005900D922D
:100C2000AC39B107D9F727E0ACE9B2E001C01D92B9
:100C3000A73BB207E1F70E944D260C945333E0C95D
:100C4000292F30E048E0911102C09C0140E0C90129
:100C5000807F886096958795E8F7009711F04C5F44
:100C60009C01C9019695879596958795009711F0F7
:100C70004E5F9C01C90196958795840F0895885A07
:100C80008B3108F054C0E82FF0E0EB5AFC4C0C9488
:100C9000A43282EE90E008958AEE90E0089585EB0C
:100CA00090E0089586EB90E0089583EB90E008953E
:100CB00084EB90E0089587EB90E008958CEC90E051
:100CC00008958DEC90E0089583E891E008958AE816
:100CD00091E0089582E991E0089584E991E0089512
:100CE0008FE991E008958BEC91E0089581E292E024
:100CF000089583E292E0089584E292E0089585E207
:100D000092E0089586E292E0089587E292E00895E5
:100D10008FE690E0089580E790E008958AE292E0FF
:100D200008958FE992E0089580EA92E0089580E0C6
:100D300090E0089589EE90E008958093AC07909339
:100D4000AD070895983090F5863080F5E82FF0E0F3
:100D500086E0989FE00DF11D112470E051E0E1FD67
:100D600054E0E0FD550FE2FD5295E87FE460F69512
:100D7000E795E8F7EE0FFF1FEE0FFF1FE758F84F5C
:100D800020E030E04191DF01CB01022E02C09695B8
:100D900087950A94E2F78695880B84278523842714
:100DA0008E932F5F3F4F2430310561F70895292F2F
:100DB000983010F080E008958630E0F790E036E05B
:100DC000239F800D911D1124682F6770887F846098
:100DD00096958795E8F7FC01EE0FFF1FEE0FFF1FBA
:100DE000E758F84F40E050E080E0219130E0062ED7
:100DF00002C0369527950A94E2F72170042E01C0AF
:100E0000220F0A94EAF7822B4F5F5F4F443051055F
:100E100061F70895E091270790912607E91302C032
:100E200080E008959F0159E0E59FF0011124E85DFD
:100E3000F84F5181561306C05081581303C0558195
:100E4000541305C02F5F3F4FF901E770E7CF81E0F2
:100E500008958091270720912607281301C008953F
:100E600001968770FACF8091A9079091A807892BE6
:100E70009091AA079030F9F0892B909181019130DF
:100E800021F49091B10797FD12C096E020EA32E07C
:100E900040E09150F90150812F5F3F4F51114F5F5A
:100EA0009111F7CF403039F01092AA0708959EE1D2
:100EB00028EA32E0EDCF08958095982F8091A90718
:100EC00089238093A9070895972F783018F020E0A0
:100ED00090E017C06630D8F78530A8F470E026E0BF
:100EE000929F600D711D112490E3899F600D711D0B
:100EF0001124FB01EE0FFF1FEB5DF64F85919591DD
:100F0000282F822F089521E0E3CF803E9105E9F15B
:100F1000C8F48133910509F484C048F489329105FD
:100F200009F474C08A32910509F482C008958933A6
:100F30009105E9F082389105D1F08533910509F4E6
:100F400060C00895843E9105E9F148F4823E910520
:100F500049F1833E910559F181EE90E00895863E76
:100F60009105D9F1873E910509F440C0089520917B
:100F7000B107237019F080EE90E008952091B20738
:100F800023FF14C089E290E008952091B10720FD6D
:100F900045C03091B20730FF09C024FD24C083EE64
:100FA00090E008952091B10722FDF7CF0895209198
:100FB000B10722FD44C03091B20730FDDCCF24FFE1
:100FC000F5CF11C02091B20721FFF0CF8091B1077A
:100FD00084FD09C087EE90E008952091B10723FFBA
:100FE000E5CF24FFF7CF80E090E008952091B1078E
:100FF00023FD28C03091B20731FFE1CF84EE90E0AD
:1010000008952091B10725FFD1CFBCCF2091B10722
:1010100025FD1BC02091B20723FFC8CF89E390E0D4
:1010200008952091B10726FFC1CF8AE290E008958C
:101030002091B10726FFBACF81E390E0089582EEB8
:1010400090E0089586EE90E0089585E390E008959D
:101050009091B10792FF10C041E0282F24712430F5
:1010600009F040E031E0282F2871283009F030E005
:10107000431711F02CE0822793FF10C041E0282F86
:101080002471243109F040E031E0282F2871283103
:1010900009F030E0431711F02CE082273091B207BD
:1010A00030FF10C051E0282F2171213009F050E0AD
:1010B00041E0282F2871283009F040E0541711F042
:1010C00029E0822731FF10C041E0282F2171213112
:1010D00009F040E031E0282F2871283109F030E094
:1010E000431711F029E0822794FF02C083FD877E19
:1010F00008950F931F93CF93DF9307DFEC01D23551
:1011000008F046C0D03508F0C4C0C03ED105F8F4A0
:10111000CD3CD10508F09BC0C83AD10578F4C53A5A
:10112000D10508F089C0C130D10561F1CE01049725
:10113000813A904038F1C0E0D0E024C0CE01885A16
:1011400090404B97C0F78C2F9ADD946468C0D034E0
:1011500090F4D03208F0B0C0C83ED10598F0CE016E
:1011600091509F3140F78D2F73DF082F8C2F90E027
:10117000CCDE902B54C08C2F90E0C7DEDF70C82FE0
:10118000D92BD06ACE01DF91CF911F910F91089595
:10119000C03882E5D807B8F5C03682E5D80708F030
:1011A0005EC0C03482E5D807C8F4C03282E5D807F3
:1011B00008F04FC08C2F8695869520E2829FC00153
:1011C0001124C37021E030E002C0220F331FCA9502
:1011D000E2F7E901C82BD92BDD68D4CF8C2F869597
:1011E0008695877020E2829FC0011124C37021E0A0
:1011F00030E002C0220F331FCA95E2F7E901C82B85
:10120000D92BDC68BFCFC03C82E5D80750F48C2FC7
:101210008F71C03AD245C0F5982F84EF906AEC01E7
:10122000B1CFCE01805C9245809708F084CFDC2F4F
:10123000DF71C0EFD06AA6CFC63A29F0C73A29F0CD
:10124000C1E8D0E49FCFC2E8FCCFC3E8FACFD065B5
:1012500099CF8C2F8F71D82FC1EFD06A93CF8C2F5D
:1012600086958695877020E2829FC0011124C37005
:1012700021E030E002C0220F331FCA95E2F7E901F6
:10128000C82BD92BDA687ECFE3DEC0E0D82FD0623E
:1012900079CF8C2F8F71DCDEDF71D062CC0FDD1F38
:1012A000E8F7DF70282F84FF04C090E1899F900148
:1012B0001124C22FD06966CF8D2F8F71C9DE082F00
:1012C0008C2F90E022DE902BEC01E1CFCF92DF92C9
:1012D000FF920F931F93CF93DF936C010091AE07A2
:1012E0001091AF078091AC079091AD07082B192B97
:1012F000CFE0D0E081E090E00C2E02C0880F991F73
:101300000A94E2F780239123892B39F0FC2EB60151
:101310008C2FDADDEEDE019719F4219758F7F12CC6
:101320008F2DDF91CF911F910F91FF90DF90CF9084
:1013300008951F93CF93DF93FC01278130852030E0
:10134000320799F485819081C92F9181D92F8030FE
:1013500089F0603079F08C2FB9DF182F682FCE011B
:10136000F1DCBE01812FB0DD9C01C901DF91CF917D
:101370001F910895CE011BDD182FF3CFCF93DF937C
:10138000EC01A4DFBE01A0DDB4DEDF91CF910895B2
:10139000FC018481803071F087819085009761F035
:1013A000A8DE92959F709630D1F050F4925F9F70B6
:1013B000923040F090E00DC080819181DFDFF1CF6D
:1013C0009A5FF5CF91E0803F21F028F491E0883ECC
:1013D00088F7892F089591E0843F61F7FACF91E073
:1013E000883E08F090E021E0813F09F020E0922B58
:1013F000F0CF80E00895F894E82FE295EF70AE2FDB
:10140000AF5DB0E04C918F7021E001C0220F8A9552
:10141000EAF7922F909594239C93EE5DF0E09081F3
:10142000822F892B808378940895CF92DF92EF9258
:10143000FF921F93CF93DF93462F172FE82FF0E0F3
:10144000E357F84F71110CC0E4918E2F7E2F6E2F51
:10145000DF91CF911F91FF90EF90DF90CF90089593
:10146000F491EF2F86E0689FE00111242FEF30E028
:10147000CE01B9010E941E32DB01CA01880F991FFB
:1014800065E56A9FA0016B9F500D1124841B482FB6
:10149000440F480FC901811B9040F89F7001F99FCC
:1014A000F00C11248F2D149FB0011124672F70E0D0
:1014B0006901C61AD70AB601F69F6001F79FD00CE2
:1014C0001124A330B10549F1B901641B7040AB018F
:1014D000149FB001159F700D1124672F70E0261B1B
:1014E000370BF29FA001F39F500D1124752FCC3FB5
:1014F000D34050F4A130B105A1F0129709F0A7CF65
:10150000EF2D852F7F2FA3CFA430B10569F016975B
:1015100009F49DCF7F2D8D2D9ACF7D2DEF2D8F2F0F
:1015200096CF7F2FED2D93CFE52F7F2DF8CF982FDE
:101530008091F506803029F081E09B3108F080E051
:10154000089581E09633FACF282F269F020E20E0DF
:10155000211D1124822F0895CF93DF93EB0126954F
:10156000E22F26FDE0959E2F9F7026FD9F5FE6955A
:10157000E695E695E670F0E0E255FE4F3181399F41
:10158000302D912D112432953F709295907F392BFB
:101590009081930F27FD919597FD9195682F892F45
:1015A000880FD2DFBE01DF91CF910895622F089599
:1015B000E42FF0E0EE0FFF1FEA51FE4F6081621B47
:1015C0000895E42FF0E0EE0FFF1FEA54FE4F61A9EB
:1015D000621B0895CF93DF93EB0151114FEF682FFA
:1015E000842F8095B1DFBE01DF91CF9108951F93C5
:1015F000CF93DF93EB01182F51114FEF60E4842F4D
:101600008095A2DF6C2F680F7D2F812FDF91CF9106
:101610001F910895809195038160809395030895AB
:101620003091F506303021F08B3191052CF0089582
:101630008B31910514F04B9728C30895FF920F93B7
:101640001F93CF93DF93182F062FF42EC0E0D0E026
:101650002F2D402F612FCE01E3DF2196C633D10518
:10166000B9F7CDB7DEB7E5E00C945B329BE0899F1C
:10167000802D1124982F955F973308F096E32091E1
:10168000F506211104C08B3128F48BE108959C31BB
:1016900008F09BE10895EF92FF920F931F93CF9371
:1016A000DF937C0180910201E1DF192F3091A407C3
:1016B0003695369521E0320F08F43FEF60919103A3
:1016C0007091920340E050E0639F060E411D739FAE
:1016D000400D511D1124470F511D042FC82FD0E07C
:1016E000812FC11730F023DFCDB7DEB7E6E00C94D1
:1016F0005A32FE01EE5AFD4F8081909103018923F9
:1017000079F06091A1077091A2078091A307202F23
:101710004C2FF701099589DE472F282FCE0180DF56
:101720002196DECF8F929F92BF92CF92DF92EF925F
:10173000FF920F931F93CF93DF934C01809102018F
:1017400095DFC82FB92E2091A40731E0230F08F4AC
:101750002FEF30E040E050E0CA016FEF7FEF0E94D2
:1017600088328901D0E0E12CF12CD22EC12E2C2F11
:101770008B2DCB1568F0DBDEDF91CF911F910F91A0
:10178000FF90EF90DF90CF90BF909F908F90089543
:10179000FE01EE5AFD4F808190910301892339F1BA
:1017A000409196034150542F550F550B47FF21C0D0
:1017B0008D2D9C2D2091A40731E0230F08F42FEFED
:1017C000A701829F080E411D929F400D511D1124BB
:1017D000490F511D6091A1077091A2078091A30745
:1017E000F401099522DE472F282FCE0119DF21961B
:1017F000BECFFA01EA56FC4F818982130BC0FA0171
:10180000EE0FFF1FEA56FC4F818D928D80179107D6
:1018100008F4D0CF41505040C9CFA0E0B0E0E3E1A0
:10182000FCE00C943A32182F80910101811324C0FE
:101830009091A00793702091000130E081E0921711
:10184000130609F480E0809304018091A50790912C
:101850000301981731F08093030140E060E080E0DD
:10186000EDDE1B3058F4E12FE150EA3060F4F0E097
:10187000E059FC4C0C94A43281E0E5CF1F3F09F401
:10188000F4C080E052C080910401803009F44DC062
:1018900040E060E080E0D2DEF4CF80910201E6DE3D
:1018A000C82F092F6091A1077091A2078091A3070B
:1018B000BCDDF62EE72ED82ED0E00C1709F010F480
:1018C000802F32C0FE01EE5AFD4F808190910301BE
:1018D000892329F02D2D4E2D6F2DCE01A1DE2196CD
:1018E000ECCF80910201C2DEC82FF92EB090A20782
:1018F000D091A3070091A1076091A1077091A20761
:101900008091A30792DDE62ED72EC82E6091A40702
:10191000600F7B2D8D2F89DD062FB72EA82ED0E0EE
:101920008F2DFC1609F098F402DE909102019F5F62
:10193000909302018111C2C082E080938401809162
:1019400004018111BBC01111B9C083E0B5C0FE0113
:10195000EE5AFD4F908180910301892351F02A2D89
:101960004B2D602F90FD03C02C2D4D2D6E2DCE01E3
:1019700057DE2196D5CF8091020178DEC82F092F3E
:10198000E090A207D090A3076091A40780E4DCDD7B
:10199000F82ED0E00C1709F008F492CFFE01EE5AB1
:1019A000FD4F8081909103018923A1F0FE01EE0F8C
:1019B000FF1FEA54FE4F81A982958F706091A107A5
:1019C0008F9D600D11247E2D8D2D2FDD472F282F0B
:1019D000CE0126DE2196DECF8091020147DEC82FA0
:1019E000092FE090A207D090A3076091A40780E49C
:1019F000ABDDF82ED0E00C1709F008F461CFFE0142
:101A0000EE5AFD4F8081909103018923C1F0FE01C0
:101A1000EE0FFF1FEA54FE4F60A96F9DB001112425
:101A2000607E606175956795E8F78091A107680F02
:101A30007E2D8D2DFADC472F282FCE01F1DD21964A
:101A4000DACF8CEA9AE027DE70CF86ED9AE0FBCF02
:101A500088ED9AE0F8CF81EE9AE0F5CF8AEE9AE031
:101A600061DE63CF87EF9AE0FBCF90919203A09164
:101A70009303B0919403892F9A2FAB2FA695979536
:101A80008795A69597958795837090E0A0E0B0E044
:101A900082309105A907B907B1F083309105A907F4
:101AA000B907A1F040E060E0892B8A2B8B2B81F0F5
:101AB00064E180E0C3DD82E080938401CDB7DEB7CE
:101AC000EAE00C94563244E160E0F3CF44E164E193
:101AD00084E1F0CFCF93C82F803081F08091AB06A6
:101AE00081110CC09ADE109201018091A0078370D1
:101AF0008093000109D483E080938401C093AB06F6
:101B0000CF9108959091A007937071F08B3008F0F9
:101B10008AE0880F880F9091A0079370892B80939B
:101B2000A0071092840176CD08958091A007869534
:101B300086958F5F8B3008F081E0E4CF8091A0071D
:101B400086958695815009F48AE0DCCF9091A007B4
:101B5000937051F08093A1076093A207493708F072
:101B600048E74093A30756CD0895E0EAF7E0818166
:101B700090E0438162810896E9CFE0EAF7E0818155
:101B8000438162818850990BE1CFE0EAF7E06281FE
:101B900028E0620F08F46FEF8181438190E0D6CF97
:101BA000E0EAF7E0628128E0621B08F460E08181EE
:101BB000438190E0CBCFE0EAF7E0438128E0420F99
:101BC00008F44FEF8181628190E0C0CFE0EAF7E056
:101BD000438128E0421B08F440E08181628190E06B
:101BE000B5CF2091A4073AE0230F08F42FEF2093FC
:101BF000A40710CD2091A4073AE0231B08F420E0AD
:101C00002093A40707CDE091A507EF3F61F0E530F1
:101C100061F0E23061F4EF5FF0E0E655FE4F808165
:101C20008093A507F7CCE0E0F6CFE1E0F4CFE0E069
:101C3000F3CFE091A507EF3F89F0E53069F0E2309E
:101C400019F0E1110DC0E3E0E150F0E0E655FE4F80
:101C500080818093A507DECCE1E0F6CFE3E0F5CF0D
:101C6000E0E0F3CF2091C103382F3203C0011124EB
:101C7000923014F080E090E08A569B4F8093BF032F
:101C80009093C0030895539A0895FC01EE0FFF1F2F
:101C9000E80FF91FEC51FD4F6183408322830895C3
:101CA0001092720410927304EFE0F1E085818111CB
:101CB00002C014821682379681E0E734F807B1F744
:101CC0000895AC018091710460917004982F69139C
:101CD00001C00895292F30E0F901EE0FFF1FEB53EB
:101CE000FC4F0190F081E02DE417F507B9F4E0E036
:101CF000F0E04830510540F467E0649FF001659FD3
:101D0000F00D1124E15FFE4F41E044839813E1CFD1
:101D10002F5F3F4F23702093710408952395922FD6
:101D20009370D5CFFC01AC014C5F5F4F8FEF61E347
:101D30009191892728E030E0982F990F87FF09C0FB
:101D4000892F862721503040B9F7E417F50781F72E
:101D50000895892FF7CF382F25EB3203C0011124C6
:101D600097FF04C080589040892F089580589F4F56
:101D7000FBCF8091930780FD16C081FD16C082FFC6
:101D800002C080E5089580919207803081F08E3105
:101D9000C0F720E5829FC00111246EE170E00E942F
:101DA0007532862F089584E1089588E2089588E0C9
:101DB00008958091930780FD1AC081FD1AC082FFAB
:101DC00003C068E0862F089580919107803099F0D4
:101DD0008832B8F728E0829FC001112468E270E0E1
:101DE0000E9475326030760769F781E0089562E0FD
:101DF000E9CF64E0E7CF61E0E5CF8091F40681119F
:101E000002C080E00895E0911C07F0911D07309713
:101E1000C1F30190F081E02D309799F30995089571
:101E2000A3E0B0E0E6E1FFE00C9442322091DF0253
:101E30003091E00228173907B1F08093DF029093C8
:101E4000E002E0911C07F0911D07309761F00084DB
:101E5000F185E02D309739F023E029838A839B8335
:101E6000CE01019609952396E2E00C945E32A3E040
:101E7000B0E0EDE3FFE00C9442322091DD023091BE
:101E8000DE0228173907B1F08093DD029093DE025D
:101E9000E0911C07F0911D07309761F00084F185F7
:101EA000E02D309739F024E029838A839B83CE018B
:101EB000019609952396E2E00C945E32909181019F
:101EC0009130B9F49091B10797FF13C0E82FE695D0
:101ED000E695E695803FF8F4F0E0EA55FD4F87700F
:101EE00021E001C0220F8A95EAF78281822B82834A
:101EF0000895A0EAB2E0EFEF90E02C91821759F03C
:101F00001196EF3F19F4211101C0E92F9F5F963020
:101F1000A1F7EF3F09F40895FE2FFF0FFF0BE256E4
:101F2000FD4FE5CF90918101913061F0E0EAF2E060
:101F30009191891302C0DF011E9292E0E63AF907FF
:101F4000B9F708959091B10797FFF0CFE82FE69584
:101F5000E695E695803FA8F7F0E0EA55FD4F9DEF46
:101F600081FD97EF80FF959582FD9295828189236F
:101F7000828308958091800108952FB7F89460912D
:101F8000D9027091DA028091DB029091DC022FBFBE
:101F900008958091F406803039F0EFDF462F572FF7
:101FA000BC01CB01BA010895E8DFDC01CB0140910F
:101FB000F6065091F7066091F8067091F906480F01
:101FC000591F6A1F7B1FEDCF87E797E780930008B3
:101FD0009093010888E19AE00FB6F894A895809351
:101FE00060000FBE90936000FFCFFC012091CF02F4
:101FF0003091D0022617370748F06030760729F471
:102000009091E8009E779093E8009B0190E027C0B4
:102010008091C4038030D1F18530E1F18091E800F6
:1020200083FD3EC08091E80082FD1EC08091E800E3
:1020300080FF15C08091F3004091F200582F2030AE
:10204000320719F048305105A8F091E0483050406F
:1020500009F090E04091E8004E774093E80020308E
:102060003207B1F69111D4CF8091E80082FF0AC007
:1020700080E0089581918093F100215030404F5FBE
:102080005F4FDDCF8091C403811102C082E00895CB
:10209000853011F483E008958091E80083FFE4CF58
:1020A00081E00895982F9093E900981771F070914E
:1020B000EC002091ED005091F00021FD09C09F5FE0
:1020C000973089F78093E9000895762F242F50E008
:1020D0003091EB003E7F3093EB003091ED003D7F7F
:1020E0003093ED003091EB0031603093EB00709352
:1020F000EC002093ED005093F0002091EE0027FDBE
:10210000DECF08958091C90287FF13C08091E80057
:1021100082FF06C08091E8008B778093E8000895E5
:102120008091C4038111F2CF08958091C40380305F
:10213000D9F38091E80080FFF8CF8091E8008E7796
:10214000ECCF4091E4005091E50094E62091EC0042
:10215000822F817020FF06C08091E80080FF06C0BA
:1021600080E008952091E80022FD1DC08091C40305
:10217000803091F0853091F08091EB0085FD10C0AA
:102180002091E4003091E5004217530719F0903098
:1021900049F09150A901DACF82E0089583E00895D3
:1021A00081E0089584E008958091D8008F7E809327
:1021B000D8008091D70081608093D70084E082BFEF
:1021C00081E08093C8028091D8008E7F8093D800F0
:1021D0001092E2001092DA001092E1008091D80093
:1021E0008F778093D8008091D80080688093D80042
:1021F0008091D8008F7D8093D80019BC1092C403C1
:102200001092C7021092C3031092C6028091E000A0
:102210008B7F8093E0008091D80081608093D8000C
:1022200042E060E080E03EDF8091E1008E7F8093BD
:10223000E1008091E20081608093E2008091E20001
:1022400088608093E2008091E0008E7F8093E000C0
:102250008091D80080618093D80008958091D80043
:102260008E7F8093D8001092E2001092DA001092D4
:10227000E1008091E00081608093E0008091D800CF
:102280008F778093D80019BC8091D7008E7F809380
:10229000D7008091D8008F7E8093D8001092C8021A
:1022A0000895A0E0B0E0E7E5F1E10C943A327C015A
:1022B0006B015A018091DB060AE010E08A3010F0D1
:1022C00001E010E0C1E0D0E0B601C701F5010995D9
:1022D000811104C021960C171D072CF4CDB7DEB771
:1022E000EAE00C945632CC9F9001CD9F300D300D1A
:1022F000112480E090E045E34A95F1F70000019653
:1023000082179307C1F7E0CF3BB1377F2BB128602D
:102310004FB7F89484EE92E0FC010196508168E09A
:102320002BB9000000C057FF3BB9550F000000C09B
:1023300000C000C03BB900C06A9591F753E08638F1
:10234000950751F74FBF8FE594E00197F1F700C073
:10235000000008950F931F93CF93DF93EB018A0141
:102360009091C403943059F58093E9008FEF9091D8
:10237000E80095FD06C095ED9A95F1F700008150B3
:10238000B1F78091E80085FF1AC0DBDE811112C031
:102390008091E80085FD06C08091E8008E778093EB
:1023A000E800F3CF88818093F1000150104011F0D4
:1023B0002196EECF8091E8008E778093E800DF9140
:1023C000CF911F910F910895CF93DF93EC0148E0D7
:1023D00050E0BC0181E0BEDF88E0FE01A1EDB2E08B
:1023E00001900D928A95E1F7DF91CF91089540E237
:1023F00050E0BC0182E0AECF46E050E0BC0182E09C
:10240000A9CF43E050E0BC0182E0A4CF80918101DC
:10241000813069F58091B10787FF29C00E94330799
:102420008093A70240E250E06CEF76E086EA92E00B
:102430000E94D832892BD1F080E2E6EAF2E0ACEFDC
:10244000B6E001900D928A95E1F7E0911C07F091BA
:102450001D07309759F00480F581E02D309731F059
:1024600086E08093A60286EA92E0099508950E948C
:10247000330780939E0248E050E06EE177E08EE9FA
:1024800092E00E94D832892B89F388E0EEE9F2E0ED
:10249000AEE1B7E001900D928A95E1F7E0911C075B
:1024A000F0911D07309711F30280F381E02D3097F2
:1024B000E9F28EE992E0D9CF803019F00E945C07F2
:1024C000A5CF0895803031F09091A907982B909373
:1024D000A9079CCF0895803031F09091A807982BE0
:1024E0009093A80793CF0895803039F0809590910C
:1024F000A80789238093A80789CF0895CF93DF93F6
:102500008A3029F481E083D0DF91CF9108958D3016
:1025100011F480E0F8CFC091BF03D091C00396E0E2
:10252000FE01A6E8B3E001900D929A95E1F7803E96
:1025300008F461C086E019928A95E9F7C091BF035B
:10254000D091C003603051F09E012A5F3F4FFE01E1
:102550008081809581932E173F07D1F746E050E0A8
:10256000BE0186E893E00E94D8329E01265934408D
:10257000892B41F1C901807E806196958795E8F7A6
:1025800041E050E0BA0102C0660F771F8A95E2F77A
:10259000CB016091980670919906862B972BB90113
:1025A0006B5F7F4F607E606176956795E8F702C04C
:1025B000440F551F6A95E2F7842B952B809398065C
:1025C000909399062A5F3F4F4091C103642F70E0BA
:1025D000C9010E941E32481B463010F4240F311DE1
:1025E000323010F020E030E02A563B4F2093BF03FA
:1025F0003093C00389CF96E0899FF0011124E35BFB
:10260000FD4F46E050E0DE010E94D43297CFCF93D9
:10261000382FE091BF03F091C003E659F4402091B8
:10262000C103622F70E0CF010E941E32281B822F4F
:10263000303069F066E00E946932C82FC11102C0D3
:10264000CF910895C15060E080E258DFF7CF8E0F40
:102650009F2F911D923010F080E090E08A569B4FA2
:102660008093BF039093C003EBCF1F93CF93DF936F
:10267000EC01162FFE018491811104C0DF91CF91EE
:102680001F910895612F3ADF2196F4CFCF93DF9306
:10269000EC01FE018491811103C0DF91CF91089577
:1026A00060E02CDF2196F5CFA0E0B0E0EAE5F3E1B1
:1026B0000C943832F82EEB01E42E69018880998061
:1026C000AA80BB805ADCDC01CB0188199909AA09D0
:1026D000BB0984369040A040B04010F4E11439F1B9
:1026E000AF2CB12C88E0F89EF0011124E15BFE4F85
:1026F000818192818054994F2081422F50E00217AE
:10270000110508F4A801B6010E94E532C5010E9436
:10271000B131182F803029F030DC688379838A83C7
:102720009B83812FCDB7DEB7ECE00C94543211E0DF
:10273000F8CFA1E0B0E0EFE9F3E10C9440328091F2
:10274000A60689832091D60690E041E02817190655
:1027500009F440E08D019E012F5F3F4F67EA76E06C
:1027600085E0A2DF2196E4E00C945C32A9E0B0E0C1
:10277000ECEBF3E10C94403288E0E0EAF7E08E0104
:102780000F5F1F4FD80101900D928A95E1F780915C
:10279000AB06898749E050E06DEC76E0C8010E9405
:1027A000D83241E09801892B09F440E009E010E0BB
:1027B0006CEA76E084E078DF2996E4E00C945C3201
:1027C0000F931F93CF93DF93EC0144E050E065EC4F
:1027D00076E00E94D83241E0892B09F440E004E021
:1027E00010E09E0164EB76E082E05EDFDF91CF9146
:1027F0001F910F910895AF92BF92CF92DF92EF9207
:10280000FF921F93CF93DF9300D000D00F92CDB7EC
:10281000DEB75B0180E090E00E94B131182F80307C
:1028200009F47DC080915201482F50E0811141E0B0
:1028300060915301709154016054794FCE01059617
:102840000E94E532C090BC06D090BD06E090BE0666
:10285000F090BF0692DBDC01CB018C199D09AE091B
:10286000BF0984369040A040B04038F481EC96E037
:1028700059DA9D81891709F452C081E090E00E94E5
:10288000B13181111EC010E08091B8069091B90657
:10289000A091BA06B091BB06F50180839183A28313
:1028A000B383812F0F900F900F900F900F90DF91B7
:1028B000CF911F91FF90EF90DF90CF90BF90AF909E
:1028C000089580915A01482F50E0853008F044E087
:1028D00060915B0170915C016054794FCE0101966B
:1028E0000E94E53281EC96E01DDA9D818913CBCF01
:1028F00044DB6093BC067093BD068093BE06909344
:10290000BF0689819A81AB81BC818093B806909380
:10291000B906A093BA06B093BB0611E0B5CF80917B
:10292000C1069091C206A091C306B091C4068983E6
:102930009A83AB83BC831111E4CFA6CFCF92DF92F1
:10294000EF92FF921F93CF93DF9300D000D0CDB7CB
:10295000DEB7C090B006D090B106E090B206F0901D
:10296000B3060BDBDC01CB018C199D09AE09BF0955
:1029700011E084369040A040B04068F10ADBDC01F1
:10298000CB010296A11DB11D89839A83AB83BC83C1
:1029900080916801909169018054994F209167015D
:1029A000422F50E0253008F044E09E012F5F3F4F5A
:1029B000B9010E94E53283E090E00E94B131182F06
:1029C000803049F0DADA6093B0067093B1068093F4
:1029D000B2069093B306812F0F900F900F900F9037
:1029E000DF91CF911F91FF90EF90DF90CF900895EE
:1029F00048E050E067E170E080EA97E00E9426330B
:102A00001092950308958DE18093A0078091850130
:102A100090918601A09187018093A1079093A207CE
:102A2000A093A3078FE78093A4078FEF8093A50758
:102A3000DFCFCF92DF92EF92FF921F93CF93DF937E
:102A4000C0908C03D0908D03E0908E03F0908F03A4
:102A50008091F406803009F453C08FDA6C197D0937
:102A60008E099F096B017C0194DADB01EC01609314
:102A70008C03B0938D0380938E03D0938F031091BA
:102A80003604E6E3F4E0812F90E04FEF5FEF60E083
:102A900070E04C195D096E097F09191333C08093EA
:102AA00036048091900390918401923009F447C0DC
:102AB000C8F5911141C010920201A0939103B09307
:102AC0009203C0939303D093940389E2E6E3F4E086
:102AD000A6E9B3E001900D928A95E1F78091AB06EB
:102AE000811108C08091A007982F937019F08695E6
:102AF0008695982F9093900381E08093840114C071
:102B000048DAACCF218D328D42175307610571052C
:102B100020F481509F5F3296C0CF2C0D3D1D218F38
:102B2000328FF8CF9330A9F0DF91CF911F91FF90B2
:102B3000EF90DF90CF9008950E940D0CF5CF809319
:102B400001018091A007837080930001DDDB83E0A9
:102B5000D4CF8091950381114BDFC0909103D09029
:102B60009203E0909303F09094038091F4068030F8
:102B700069F003DA6C197D098E099F096031704094
:102B80008040904088F210928401CECF02DAF2CFDA
:102B9000AB0124E630E0BC0188E70E94E82F9C01ED
:102BA00081E0232B09F080E008958091A006803019
:102BB000E9F0E3D9DC01CB0180529C46AB4FBF4F1B
:102BC00080939A0690939B06A0939C06B0939D06D3
:102BD0008091A60681110AC062E070E08BE492E069
:102BE000D7DF803019F081E08093A60608958091A8
:102BF000A006803061F08091A606803041F062E04E
:102C000070E089E492E0C4DF81111092A606089575
:102C10001F921FB61F9211248F939F93AF93BF9360
:102C20008091C203811113C08091D9029091DA0280
:102C3000A091DB02B091DC024196A11DB11D8093F1
:102C4000D9029093DA02A093DB02B093DC02BF9129
:102C5000AF919F918F911F901FBE1F9018952FB716
:102C6000F8948091D9029091DA02A091DB02B091A0
:102C7000DC022FBF0895CF93DF93EC01F0DF8C1BB4
:102C80009D0BDF91CF9108950F931F93CF93DF9307
:102C9000C091B507D091B607E2DF8C1B9D0B8B3F2F
:102CA000904048F18091B40790E0019661E270E0B5
:102CB0000E9475328C018093B407D1DF8093B507F1
:102CC0009093B60780E00E94320E86EF9BE0DEDC38
:102CD000C0E0D0E0CE01800F911F61E270E00E9461
:102CE000753288579E4FFC0160E0808107DC219699
:102CF000C531D10579F7DF91CF911F910F910895DB
:102D0000ACE0B0E0E6E8F6E10C943932FE01319631
:102D1000DF0188E01D928A95E9F782E9C82E82E0FA
:102D2000D82E7F01AE2E9F2C0CE912E0F601819186
:102D30006F018F3F09F441C0F894E82FE295EF70DE
:102D4000AE2FAF5DB0E02C918F7041E001C0440F19
:102D50008A95EAF7922F942B9C93EE5DF0E0908198
:102D6000842F809589238083789400C0E6E9F2E07F
:102D700031E0B12C21912F3F79F0A22FA295AF70B5
:102D8000A05EB0E08C9190E02F7002C09595879581
:102D90002A95E2F780FFA5C080E0B82A330F0E170E
:102DA0001F0741F7F60182918F3F11F00E94FB0946
:102DB00080EA8A95F1F7F701B0828FEFE81AF80AF6
:102DC00086E992E08C159D0509F0B0CF48E050E00F
:102DD0006A2D792D8CEE96E00E94D832009749F04A
:102DE00028E0EA2DF92DACEEB6E001900D922A957F
:102DF000E1F70091EB0610E00D51194F892B09F412
:102E000072C081E08093E2062ADF8093E00690930F
:102E1000E1068091F406803009F49EC07E0189E0CD
:102E2000E80EF11CF70184E011928A95E9F7809190
:102E3000DB068A3050F0C090DC06D090DD060FDF54
:102E40008C199D09843F914090F14BEF53E1B701FC
:102E5000C80127DA8030E1F040EE53E1B701C80144
:102E600020DA8030A9F04EE954E1B701C80119DA3F
:102E7000803071F046EB53E1B701C80112DA8030BF
:102E800039F049E953E1B701C8010BDA81114EC0AD
:102E90008091DB068F3F31F08F5F8093DB068A30B5
:102EA00008F446C0DCDE8093DC069093DD0680915A
:102EB000DE06803009F44CC0F70184E011928A9557
:102EC000E9F71092DE06E091DF06F0E0ED51F94FF0
:102ED00089859A85AB85BC8580839183A283B383E2
:102EE00037C0832F5ACF8091E206803009F491CF0A
:102EF000E090E006F090E106B2DE8E199F0905979A
:102F000008F487CF44E050E06CEE76E0C8010E9400
:102F1000D832892B41F084E0ECEEF6E0D801019044
:102F20000D928A95E1F71092E20673CF1092DB06BC
:102F30008091DF0690E044E050E0B7018D51994F59
:102F40000E94D83221E02093DE06892B09F0BBCF06
:102F50002C96EBE00C945532E090DF06F12CC70183
:102F60008D51994F7C01F80180819181A281B381BB
:102F70008093C1069093C206A093C306B093C40683
:102F800081EC96E00E94920E8093C0068091C50667
:102F90009091C606A091C706B091C806F70180833C
:102FA0009183A283B383C090C906D090CA06E090F3
:102FB000CB06F090CC068091D7069091D806A091D0
:102FC000D906B091DA06C816D906EA06FB06B1F0B2
:102FD000C092D706D092D806E092D906F092DA06CF
:102FE0000E94BD0FC61AD70AE80AF90AC092F6066F
:102FF000D092F706E092F806F092F90688E0EDEC40
:10300000F6E0A0EAB7E001900D928A95E1F7809191
:10301000D5060E946A0D8091D606803011F0C5DD7C
:1030200097CFE5DD95CF1BDE9C01909196078091AF
:103030009707982B21F02093A3063093A406909134
:10304000980780919907982B21F02093A10630933F
:10305000A206E0911C07F0911D07309759F00680F9
:10306000F781E02D309731F082E08093940784E976
:1030700097E009950895603009F448C0E82FED5CA9
:10308000E33150F4F0E0E658FC4C0C94A4320E947A
:10309000B90E819580939707C6CF0E94B90EFACFDB
:1030A0000E94B90E819580939607F6CF0E94B90EC3
:1030B000FACF0E94D90E80939807EECF0E94D90EC6
:1030C0008195F9CF0E94D90E819580939907E4CF1D
:1030D0000E94D90EFACF815D990B21E001C0220F29
:1030E0008A95EAF780919507822B80939507D4CF34
:1030F00080919307816080939307CECF809193074F
:103100008260F9CF809193078460F5CF4091960754
:103110008D3C59F48091970787FF0DC01092970757
:10312000403059F41092920708C08E3C81F480918F
:10313000970718169CF3403081F080919807909182
:103140009907892B09F0A8CF10929107A5CF8F3C42
:1031500041F447FFF0CF1092960780919707803097
:10316000E0CF803D19F41416B4F3E5CF90919807A1
:10317000893D29F41916FCF610929807DCCF8A3D98
:1031800019F497FFD8CFF8CF909199078B3D29F488
:1031900097FFD1CF10929907CECF8C3D19F4191615
:1031A000CCF3C9CF982F915D983078F4815D990B5D
:1031B00021E001C0220F8A95EAF7822F8095909135
:1031C0009507892380939507B6CF8D3D31F4809183
:1031D00093078E7F80939307AECF8E3D21F480912D
:1031E00093078D7FF7CF8F3D09F0A5CF809193078F
:1031F0008B7FF0CFCF93C82F8030D1F08450813AAD
:1032000088F580918101813021F48091B10787FD9B
:1032100011C0E0EAF2E086EA92E02081C217E9F00C
:1032200031968E179F07C9F78C2F0E945E0FEED83C
:10323000CF910895EC2FE695E695E695F0E0EA55F6
:10324000FD4F828190E04C2F477021E001C0220F9A
:103250004A95EAF78223892B39F38C2F0E94920F2B
:10326000D5D8E2CF8C2F805E883060F4C77081E0C3
:1032700001C0880FCA95EAF7C091A907C82BC0936F
:10328000A907D5CF8C2F855A833068F482E890E067
:10329000C63A31F081E890E0C73A11F483E890E053
:1032A0000E94100FC5CF8C2F885A8B3130F48C2F91
:1032B0000E943F060E94370FBBCF8C2F8D5C83315D
:1032C00008F0B6CF61E08C2FD6DEB2CF803061F14E
:1032D000982F9450913A18F40E94920F97C8982F03
:1032E000905E983058F4982F81E091FD84E090FD35
:1032F000880F92FD82950E945C07F0CF982F955A17
:10330000933020F480E090E00C94100F982F985A9E
:103310009B3120F480E090E00C94370F982F9D5C57
:10332000933110F460E0A7CE08951F93CF93DF93FD
:10333000182FEB0182E0CFD8812F5CDF209741F47A
:10334000812FC4DF82E0D0D8DF91CF911F91089503
:103350008FE99FE00197F1F700C000002197EECFC1
:103360001F93CF93DF93182FC0E5D0E0893311F07E
:10337000C0E0D0E0812F3EDF209731F4812FA6DF1F
:10338000DF91CF911F9108958FE99FE00197F1F7A9
:1033900000C000002197F0CFCF93DF93EC010E9493
:1033A0002006813031F40E94FD0E80FD02C083E5CD
:1033B000D7DFCE01DF91CF910895EEDF8093AE0786
:1033C0009093AF07089521E030E002C0220F331F31
:1033D0008A95E2F78091AE079091AF07822B932BED
:1033E000ECCF21E030E002C0220F331F8A95E2F7D4
:1033F000209530958091AE079091AF07822393235B
:10340000DCCF9091B007809589238093B007282F57
:10341000277061F4891751F09091B20792FF06C0AE
:10342000869586958695DDDF1092B0070895909178
:10343000B20792FB222720F9281771F080FB92F93E
:103440009093B2076091B1077091B20784E090E069
:103450000E944F3382E0D5CF08959091B307911128
:1034600007C091E09093B30780FD02C083E578CF59
:1034700008951092A90780918101813019F58091FA
:10348000B10787FF1FC0E8EAF2E08EE111928A954A
:10349000E9F780E090E00E94100F80E090E00E9449
:1034A000370F1092A8070E940612E4E9F7E086E0C1
:1034B00011928A95E9F71092920710929107109253
:1034C0009307B1CDE0EAF2E086E0E0CFD2DF88E119
:1034D0009AE00FB6F894A895809360000FBE909381
:1034E0006000FFCFAAE2B0E0E8E7FAE10C944132D5
:1034F00089EC92E0FC0101962091F100208322E00A
:10350000813D9207B9F78091CA02893009F459C008
:10351000C8F4823009F4B6C0833009F485C0813024
:1035200089F18091E80083FFEAC08091C9029091FF
:10353000CA029A3008F0E3C0E92FF0E0E357FC4CF0
:103540000C94A4328A3009F48CC08B3051F78091EE
:10355000C902813231F78091CD029091CE02892B40
:1035600001F78091E800877F8093E8000E94821035
:1035700081E09091CB02911101C080E080938101A4
:1035800078DFCFCF8091C902813A59F68091E80067
:10359000877F8093E8008091CD029091CE02892BA5
:1035A00061F060E080E090E070E00E94F50F8091B3
:1035B000E8008B778093E800B4CF68E081ED92E07B
:1035C000F3CF8091C902813209F0ABCF8091CD0257
:1035D0009091CE02029708F0A4CF8091E800877FF7
:1035E0008093E8008091E80082FF19C02091F300E9
:1035F0008091F200922F029731F48091F100813096
:1036000011F0863021F48091F10080938001809147
:10361000E8008B778093E8000E94821082CF80912F
:10362000C4038111DFCF7DCF8091C902813A09F0B7
:1036300078CF8091CD029091CE02892B09F071CF85
:103640008091E800877F8093E8008091E80080FF08
:10365000FCCF809181018093F1008091E8008E770A
:10366000D9CF8091C902813209F05BCF8091E80007
:10367000877F8093E8000E9482108091CC02809323
:103680007F014FCF8091C902813A09F04ACF8091E2
:10369000E800877F8093E8008091E80080FFFCCFFE
:1036A00080917F01D8CF803889F0823841F58091B0
:1036B000CD028F70873018F58093E9008091EB0080
:1036C00085FB882780F91092E90006C08091C3032A
:1036D000880F9091C602892B9091E800977F909374
:1036E000E8008093F1001092F1008091E8008E775D
:1036F00023C0811116C08091CB02813011F18091DD
:10370000E80083FF0AC08091E800877F8093E8008B
:103710008091EB0080628093EB00AA96E3E00C942A
:103720005D32823061F78091CB02803081F010925F
:10373000E9008091E800877F8093E8000E94821072
:10374000DECF933009F080E08093C303F0CF809107
:10375000CD028F70282F2150263088F68093E90003
:103760002091EB0020FFE3CF933031F48091EB0008
:1037700080628093EB00DBCF9091EB00906190939F
:10378000EB0091E001C0990F8A95EAF79093EA0067
:103790001092EA008091EB008860EBCF8111AFCFEF
:1037A0008091CB028F77182F8091E3008078812B56
:1037B0008093E3008091E800877F8093E8000E9477
:1037C00082108091E80080FFFCCF8091E300806848
:1037D0008093E30083E0111101C082E08093C40371
:1037E0008ECF8058823008F08ACF2091CB02309162
:1037F000CC022C3D83E0380791F583E08A838AE28E
:1038000089834FB7F894DE01139620E03EE051E241
:10381000E32FF0E050935700849120FF03C082957E
:103820008F703F5F8F708A30C0F0895C8D931D92DE
:103830002F5F243169F74FBF8091E800877F809325
:10384000E8006AE270E0CE0101960E94F50F8091D7
:10385000E8008B778093E80052CF805DE7CF832F1D
:1038600090E08330910519F160F48130910509F4FD
:103870006CC08230910509F042CF8BE3E8EDF1E0B6
:1038800029C02091CD023091CE028132910509F4F8
:1038900053C08232910509F032CF2130304008F414
:1038A0005CC009F02CCF88EBECEDF0E013C0822F68
:1038B00090E0213099F182309105B9F1009709F03B
:1038C0001ECFE5E4F2E0E4918E2FE5E4F2E000970C
:1038D00009F415CF2091E800277F2093E80020917C
:1038E000CF023091D0028217930708F49C0140E088
:1038F00020303207B1F5411134C08091E80082FDDB
:10390000A6CF8091C403803009F4A1CF853009F49B
:103910009ECF8091E80083FFF0CF99CFE3E3F2E000
:10392000E4918E2FE3E3F2E0D2CFE5E2F2E0E4911E
:103930008E2FE5E2F2E0CBCF2130304050F009F09D
:10394000DECE89E0E3E0F2E0C5CF82E1E3E1F2E040
:10395000C1CF89E0EAEEF1E0BDCF84E4E4E9F1E033
:10396000B9CF8091C403803009F471CF853009F458
:103970006ECF8091E80083FD6ACF8091E80082FDE0
:10398000BCCF8091E80080FFB3CF4091F3008091DD
:10399000F200942F2030320719F08830910550F052
:1039A00041E0089709F040E08091E8008E7780932D
:1039B000E8009ECF44914093F10031962150304071
:1039C0000196E8CF803809F09ACE8091E800877F91
:1039D0008093E8008091C7028093F10086CE811128
:1039E0008ECE8091CB02182F823008F088CE809145
:1039F000E800877F8093E8001093C7020E9482103E
:103A00001030A9F084E08093C40342E061EC81E0CF
:103A10000E94521042E261EC82E00E9452108091BA
:103A2000C403843051F482E08093820168CE809197
:103A3000E30087FDE7CF81E0E6CF81E0F5CFFF929D
:103A40000F931F93CF93DF93C62FD42FF22E803086
:103A5000A9F060939E0703D98093E1029093E2025C
:103A600081E0C1FD84E0C0FD880FC2FD82950E9407
:103A70006212CDB7DEB7E5E00C945B3280919E0711
:103A8000681330C00091E1021091E202E8D8801B77
:103A9000910B8E35914030F51D2F105ECD17A1F0A2
:103AA000C77001E0802F01C0880FCA95EAF70E9415
:103AB0005C12183048F48D2F877001C0000F8A9572
:103AC000EAF7802F0E9462128F2D4ADC81E0D1FD3F
:103AD00084E0D0FD880FD2FD8295183050F60E9408
:103AE0005C12C7CF81E0C1FD84E0C0FD880FC2FD3C
:103AF0008295F5CFA0E0B0E0E0E8FDE10C9439322A
:103B00007C01FC018481803009F4CAC061E0C701F6
:103B10000E949909EC01F7018581803009F458C0B1
:103B2000918190939D07908190939C0790E2909350
:103B30008301C0939A07D0939B079E013052303285
:103B4000F8F49681903108F43EC5EC2FF0E0ED33A7
:103B5000F10528F4EB5FF44FE491E0938301C03367
:103B600092E2D907A1F4F7019681903108F421C1BE
:103B7000803009F42EC260E070E080E392E0FBC088
:103B80009E0130543031A0F496819031F0F6C0346B
:103B90009EE7D907B1F1CF3291E2D90709F4E0C02D
:103BA000FE01E851FC47E730F10508F005C125C0EA
:103BB0009E0131503F3148F29E01205A3245203259
:103BC000304008F4F9C0FE01CD33D10518F2DFCF43
:103BD000C03392E2D90739F2C0349EE7D90709F41D
:103BE00051C0CF3291E2D90709F4BAC0FE01E851C1
:103BF000FC47E730F10508F0DCC0E956FC4C0C94BA
:103C0000A43241EF5BE009C08230E9F4FE01849107
:103C10004D5F5F4FEA01EEDAAE01FA018491803028
:103C200089F1EA012196813009F056C0FE018491A4
:103C3000282F2196813041F7FE0184914D5F5F4F1F
:103C4000EA018EDBE9CF833039F4FE0184914D5FC8
:103C50005F4FEA013BDBE0CF843091F4FE01249119
:103C60004D5F5F4FEA0140E050E03AE0622F70E0C4
:103C7000CB010E94CC32892BC1F44030540719F596
:103C80002111CACF8091B007877051F0F70185816B
:103C9000803031F08091B20782FF02C082E0B1DB58
:103CA000CDB7DEB7EBE00C945532349FC001359FA1
:103CB000900D1124AB0140535040480F591FFE0195
:103CC00024912196D3CF8FE99FE00197F1F700C0AF
:103CD000000041505040D1CFE82FF0E0EF58F44FB2
:103CE0009491992E282F26952695269530E0F90156
:103CF000EF59F44FC4908770D12C082E02C0D59490
:103D0000C7940A94E2F7F901EF5AF44FA490B12C4A
:103D1000082E02C0B594A7940A94E2F72F5B344FA3
:103D2000F901049110E002C0159507958A95E2F714
:103D3000C0FE02C081EE5EDAA0FE02C086EE5ADA54
:103D4000892D58DA892DC2DAA0FE02C086EEBEDACD
:103D5000C0FE02C081EEBADA00FF5ECF8CE271CF06
:103D6000F7019681903128F1803009F432C160E08A
:103D700070E08FE292E0D9DA85CF26E241EE61EE83
:103D80005EDE80CF27E245EE65EEFACF26E241EE19
:103D900060EEF6CF27E245EE64EEF2CF26E241EE8A
:103DA00062EEEECF27E245EE66EEEACF28E241E092
:103DB000EBCF803009F4F9C310929E079E01305773
:103DC0002332304008F0C8C084E090E00E942133E4
:103DD0008093B1079093B207FE01E150F047E232C1
:103DE000F10520F4E256FC4C0C94A4328091B1070A
:103DF00081608093B1076091B1077091B20784E050
:103E000090E00E944F3335DB3DCF8091B207886050
:103E10008093B207F0CF8091B1078260EACF8091A2
:103E2000B1078460E6CF8091B1078860E2CF8091CE
:103E3000B2078160EDCF8091B2078260E9CF8091B7
:103E4000B1078061D6CF8091B1078062D2CF8091D7
:103E5000B1078064CECF0DDB8091B1078068C9CFF8
:103E60008091B1078C60C5CF8091B2078360D0CFBD
:103E70008091B1078E7FBDCF8091B207877FC8CF79
:103E80008091B1078D7FB5CF8091B1078B7FB1CF86
:103E90008091B107877FADCF8091B2078E7FB8CF79
:103EA0008091B2078D7FB4CF8091B1078F7EA1CF73
:103EB0008091B1078F7D9DCF8091B1078F7B99CF86
:103EC000D8DA8091B1078F7794CF8091B107837F43
:103ED00090CF8091B2078C7F9BCF9091B107892FB3
:103EE0008B7F92FF8460877F92FF886082CF809172
:103EF000B207982F909590FB80F990FB81F988CFBD
:103F00009091B107892F8F7B96FF806472CFB1DAD1
:103F10009091B107892F97FB87F980586ACF61E0AC
:103F20008EE090E00E94353366CF60E0F9CF90914B
:103F3000B107892F8F7E94FF80615BCF9091B1078D
:103F4000892F8E7F90FF816054CF9091B207892F87
:103F5000877F93FF88605CCFC6319CE7D907A9F4BF
:103F60008091A9078A7A91E0811101C090E0909335
:103F70009F07803031F085E30E945E0F0E94061299
:103F800081CE89E2F9CF89E21BC3803011F19E0115
:103F9000205238472B30304008F474CE9E01205E0A
:103FA00032452032304008F07FC081118FC0CF7180
:103FB00081E090E002C0880F991FCA95E2F7EC01FA
:103FC000682F83E090E00E943533CE010E949D0669
:103FD00059CE9091A9079272FE01E054F847EF3054
:103FE000F105E0F6E054FC4C0C94A4328091A0075B
:103FF000837011F4109284018091A0078C7F8160FE
:104000008093A0070E940A0B3DCE8091A007837089
:1040100011F0109284018091A0078C7FF1CF8091E4
:10402000A00791E089278093A00710928401EACF2E
:10403000903029F00E949E0D25CE9030D9F30E9439
:10404000950D20CE903029F00E94BD0D1BCE9030F2
:10405000D9F30E94B50D16CE903029F00E94D00DF4
:1040600011CE9030D9F30E94C50D0CCE903029F0BE
:104070000E94E60D07CE9030D9F30E94DB0D02CEF0
:10408000903029F00E94FA0DFDCD9030D9F30E94B6
:10409000F10DF8CD903029F00E94190EF3CD90303B
:1040A000D9F30E94030EEECD803069F1CB359CE749
:1040B000D90701F1CC359CE7D90791F0CA359CE7C7
:1040C000D907B1F0C1309CE7D907E1F0C3309CE7D4
:1040D000D90791F0C030DC47B1F4CBD90E94E40F8E
:1040E0008091B207002482FF0394802DA0D9CACD0D
:1040F00081E0FCCF80E0FACF6FEF7FEF80E090E0CF
:104100000E944F33E3D9F7012781308520303207F1
:1041100081F0C9010E947908082FC92FF701D580C5
:10412000168112951F708091B0078770C1F4C12C61
:1041300036C000811181803069F0C8010E94660993
:10414000C82F682FC8010E94A206B8018C2F0E94B8
:104150006407E0CFC8010E94D706C82FF6CFCD2C48
:10416000D114E9F0892F807F803461F0802F805E48
:104170008830E8F2892F807E803221F40230B8F254
:104180001030A9F28091B20782FFD1CF82E039D9F5
:104190008091B0078770CC24C3948111C8CFEC2FD5
:1041A000E295EF70C03C08F063C0F0E0E153FC4CD6
:1041B0000C94A432DC2FDF70C03110F0D295D07F88
:1041C000D114B9F0D03069F0802F805E883010F0C3
:1041D000011109C08091A9078D2B8093A9070E9426
:1041E0000612802F3EC08091A8078D2B8093A807D0
:1041F000F6CF802F6BD8D030D9F1802F805E8830F9
:1042000010F0011104C08D2F0E945C0706C0D095EC
:104210008091A8078D238093A8070E94061228C0CA
:10422000DC2FDF70C07FC03211F0D295D07F01301B
:1042300040F009F460C0D11409F46AC0103091F163
:10424000D0CF8091B20782FD29C0D11469F0D0305F
:1042500039F08091A9078D2B8093A9070E9406123F
:1042600080E00E94FA1804C080E030D8D111CBCF92
:10427000C11409F4B7C08091B00780FDB3C0F70145
:1042800015828695869586959ED8C70133DC8091E8
:10429000B007869586958695A4D8A4C0D11489F0D8
:1042A000113020F48D2F0E946212E2CF09F7809125
:1042B000AA079D2F9823D917D9F28D2B8093AA078F
:1042C000D7CF1111D5CF8D2F0E945C129091AA07E4
:1042D0008D2F892329F08D2F809589238093AA071C
:1042E0008091AB079D2F982309F4C2CFD095D82396
:1042F000D093AB07BDCFD11421F0163008F0B8CF62
:10430000D1CF153008F0B4CF8D2F0E945C12B0CF02
:104310001030D1F3093349F48FEF97EE23E0815049
:1043200090402040E1F700C00000802F0E946619F5
:104330009FCF8C2F869586958370813060F009F031
:1043400097CF802F9C2F9370D11002C080E090E017
:104350000E94370F8DCF802F9C2F9370D11002C0F9
:1043600080E090E00E94100F83CF6D2D802F0E947F
:104370003B187ECF8C2F837009F047C0D1102FC01F
:10438000402F429546954770440F440F202F2F70C1
:1043900030E0042E02C0220F331F0A94E2F780E0BF
:1043A00090E004FF09C08FE090E002C0880F991FE1
:1043B0004A95E2F780959095C695C695C370C23030
:1043C000D9F0C330B1F04091AC075091AD07C13086
:1043D00071F0822B932B842395230E949D060E94CB
:1043E000FD0E3BD860E0C7010E94990959CC242BEF
:1043F000352B822B932BF1CF822B932B2091AC0763
:104400003091AD0782279327E8CFD11491F1C0FFF7
:10441000E6CF402F429546954770440F440F202F1A
:104420002F7030E0042E02C0220F331F0A94E2F7EF
:1044300080E090E004FF09C08FE090E002C0880FA8
:10444000991F4A95E2F780959095C695C695C370D9
:10445000C230C1F0C33099F04091AE075091AF0720
:10446000C13059F0822B932B842395230E94DD19B0
:10447000B6CF823008F4B3CFCCCF242B352B822B90
:10448000932BF4CF822B932B2091AE073091AF0763
:1044900082279327EBCFCF70D11439F08C2F0E9455
:1044A000E319802F0E9462129ACF802F0E945C1223
:1044B0008C2F0E94F11993CF023F99F170F4003FC5
:1044C000C9F0013F91F0D11409F45BC0103009F438
:1044D00055C0802F0E94FA1882CF033F49F1043F54
:1044E00091F79091B20792FD31C08C2F8F71D1144A
:1044F00001F31BC0D11499F0153008F070CFCF71C3
:1045000081E090E002C0880F991FCA95E2F7EC01A4
:104510008091AE079091AF078C279D27A7CF1630CB
:10452000ECCF8C2F8F71D110C4CF0E94E31957CFDD
:1045300080E090E0D11409F499CFCF7181E090E050
:1045400002C0880F991FCA95E2F790CFD11461F08D
:104550008C2F8F7192FFE9CF982F990F990F990F98
:1045600093609093B007E1CF81E00E94011A12306E
:1045700008F435CF82E00E94011A31CF8C2F8F7161
:10458000D4CF103079F0093349F48FEF97EE23E060
:10459000815090402040E1F700C00000802F0E9431
:1045A00066191DCF8C2F8F7184CFC6319CE7D90738
:1045B00009F00FCD80919F07803009F4E4CC85E3AA
:1045C0000E94920FDBCCC03392E2D90709F009CBED
:1045D000CACA80917607803170F480917507803067
:1045E00051F0E09127072091260730917107409103
:1045F00070072E1301C00895BF0189E0E89FF00104
:104600001124DF01A85DB84F14968C911497803067
:1046100051F111968C911197831325C08C918413BD
:1046200022C015968C91159781111DC012968D91FF
:104630009D91A0917207B09173078A1B9B0B8E35D9
:10464000914088F4809176078F708061809376071F
:10465000E25DF84F80818F708061808380E797E012
:1046600049DA0C9429076F5F7F4FFB01E770C1CFD8
:10467000AFE0B0E0EEE3F3E20C9437328C0186E079
:10468000F801DE011A9601900D928A95E1F7F80182
:10469000E580748080E7882E87E0982EF09074077C
:1046A000F11025C0711401F1E114E1F0C8010E947C
:1046B000C809F82E8030B1F089E0F801D4010190EA
:1046C0000D928A95E1F7872D813031F48091700742
:1046D000909171070E94BE097CDF8F2D2F96EDE02F
:1046E0000C945332C80106DAFF24F394F6CFD0803D
:1046F000A280B380C0907507809172079091730774
:104700009501281B390BC901C11409F4E2C08E358B
:10471000914008F0B1C0711409F481C09091710703
:10472000918080917607803108F05DC0FE2C99124F
:104730001BC0909170079D1117C040917707509151
:104740007807278130854217530771F4E11044C080
:104750008F7080618093760780E797E0CBD9809156
:104760007607F8018683B9CFE11036C040E0692DA5
:104770008D2D0E940A0740E0692D8D2D0E940A07A9
:10478000E82E8111AACF8A859B850E94BE09292F18
:1047900022952F70903458F49F70223080F0903022
:1047A00091F0F8019681903170F4FE2C96CF2A5F3B
:1047B0002F70223060F0C8019DD9EC2CF6CF9030DC
:1047C00011F0803091F3805E883078F3F4CF803F31
:1047D00060F3815F8330F9CF8091760781608093A9
:1047E0007607F12C7ACF99121CC0909170079D1119
:1047F00018C040917707509178072781308542177C
:10480000530779F4E1100DC08683C80173D989E09C
:10481000F801A0E7B7E001900D928A95E1F7FC2C32
:104820005CCFC8010E94C809803009F45BCFE11455
:1048300009F458CF809176078032A0F0209170075C
:104840003091710729833A83AB82BC82FD821E823C
:104850008F83809177079091780788879987CE0119
:10486000019648D989E0F801A0E7B7E001900D92E0
:104870008A95E1F7AEDE38CF80917607803148F433
:1048800080E797E037D9F40189E011928A95E9F73A
:10489000A8CF711421F22091710791812913C1CF02
:1048A000909170079D11BDCF409177075091780787
:1048B000278130854217530709F0B3CFE110B1CFFC
:1048C0008683C80117D9F40189E011928A95E9F726
:1048D000A6CF8E359140B8F7711409F405CFFE2CA0
:1048E000E11409F4FFCE909171078181981329C0DA
:1048F000809170078D1125C020917707309178073E
:104900008781908528173907E1F49091760790FD0B
:104910000FC0903168F0892F9683907F903F31F0DF
:10492000982F907F905F8F70892B8683C801E2D883
:1049300089E0F801A0E7B7E001900D928A95E1F7D0
:10494000CCCEC8010E94C80981118CCF8091760716
:10495000816080937607C801CDD8BFCEA9E0B0E0D2
:10496000E4EBF4E20C94403209831A832B833C83FA
:104970004D835E836F8378878987CE01019678DEC9
:10498000811122C08D818030F9F0A09126078A2FF5
:1049900090E08395877090E0AC0120912707241761
:1049A0001506E1F099E09A9FD0011124A85DB84F57
:1049B0009E012F5F3F4FF90101900D929A95E1F70B
:1049C000409326070E942907809127079091260788
:1049D000891311C02996E4E00C945C320E94391AC4
:1049E0001092260710922707E0E7F7E089E011927E
:1049F0008A95E9F7E9CF29E0829FC0011124885DFB
:104A0000984F36DE803031F3809127079091280748
:104A10000196877080932707D7CFA9E0B0E0E3E144
:104A2000F5E20C943E320E942F167C018091FA062A
:104A30009091FB068E159F0569F00E942F169C0130
:104A400000E010E0A801B80180E088DFE092FA06FB
:104A5000F092FB062996E6E00C945A32A9E0B0E009
:104A6000E4E3F5E20C943E327C01FC018281938107
:104A7000892B91F0FE01319687E011928A95E9F732
:104A80000E942F169C01F7017281838109811A818E
:104A900044E05E816F8162DFF70115822996E6E0CE
:104AA0000C945A32EF92FF920F931F93CF93DF93A0
:104AB00080913504E091E302CDE0811130C0CDB7A3
:104AC000DEB7E6E00C945A32DE2FDF5FD093E302CC
:104AD000EE2EF12CCE9FF0011124E353FC4F848184
:104AE0008030E1F087819085892B21F48185928542
:104AF000019651F4008111812281338144815581D5
:104B00006681778180852ADFCE9DF001CF9DF00DF3
:104B10001124E353FC4F14821092A807ED2F8091CB
:104B20003504E81788F2109235041092E302C7CFDB
:104B30004F925F927F928F929F92AF92BF92CF924D
:104B4000DF92EF92FF920F931F93CF93DF93C09169
:104B5000710491E0E92EF12C809170048C1313C044
:104B6000A1DF0E94500EDF91CF911F910F91FF9016
:104B7000EF90DF90CF90BF90AF909F908F907F90FD
:104B80005F904F900895D0E0FE01EE0FFF1FEB53B2
:104B9000FC4F00811181A0E0B0E00830110540F425
:104BA00087E0809FD001819FB00D1124A15FBE4F8F
:104BB00014968C911497811159C0709035044DEC66
:104BC00053E020E030E0A12C271508F04CC0FA019A
:104BD00043845484CD90DD90129799249A94892C23
:104BE000B12C8B2D90E0F601EB0DF11DEB0DF11DBD
:104BF000659175914616570609F0C401672B19F0A7
:104C0000B3944C01EECF8F3F9807A9F1B70101C0D3
:104C1000660F8A95EAF7A62AC7010B2C02C0880FF7
:104C2000991F0A94E2F70197A816190611F5129632
:104C30008D919D914DE0429FF001439FF00D112415
:104C4000E353FC4F8783908784E084831082118232
:104C50000187128781E011968C9315978B2D8130F7
:104C600011F4CD01FBDEC8010E94610EC395C37033
:104C700073CFFA0114822F5F3F4F435F5F4FA4CF82
:104C80001092740410927504109247018091700480
:104C9000809371040E94500E05CFCDB7DEB76F9799
:104CA0000FB6F894DEBF0FBECDBF85B7806885BF55
:104CB00085B7806885BF84B7877F84BF0FB6F894B7
:104CC000A8958091600088618093600010926000D8
:104CD0000FBE80E890E00FB6F89480936100909347
:104CE00061000FBE81E08093820189EF99E080939B
:104CF0009C0290939D020E942E110E94D4108091DC
:104D0000E20084608093E20078948091C403803054
:104D100099F08091E9001091EC008F7010FB112741
:104D200017F9182B1092E9008091E80083FD0E948A
:104D3000721A1F701093E90082E084BD93E095BD64
:104D40009AEF97BD80936E001092F6061092F706C8
:104D50001092F8061092F90688EC90E02091E3009A
:104D600027FD0EC0EFE3FCE93197F1F700C000002A
:104D70000197A1F70E942E111092C40380E001C098
:104D800081E08093F4068093F50681110E94D03073
:104D90008091F50691E08927880F880F8093EB06B4
:104DA00094E0981B9093DF06E2E9EE2EE2E0FE2EFF
:104DB00006E912E0F70181917F018F3F11F00E9417
:104DC000FB090E151F05B1F776E9E72E72E0F72E05
:104DD0000CE912E0F70181917F018F3F11F00E94F1
:104DE000FB090E151F05B1F7E3EEF6E088E011921E
:104DF0008A95E9F7ECEEF6E088E011928A95E9F7FA
:104E000080E090E00E942133833E9E4F69F163EE83
:104E10007EEF80E090E00E944F3360E082E090E01F
:104E20000E94353381E090E08093AC071092AD078B
:104E300061E083E00E94353360E074E184E090E05B
:104E40000E944F330E94031560E070E0AB018FE0D9
:104E500090E00E94473360E070E0AB0183E190E0B6
:104E60000E9447330E94F81482E090E00E941933B8
:104E70008093670484E090E00E9421338093B1071F
:104E80009093B2070E9480168FEF96E721E0815041
:104E900090402040E1F700C000000E948016E091A1
:104EA000F50611E0E127EE0FEE0FF0E0ED51F94FBE
:104EB000808181FF08C06FEF7FEF80E090E00E946B
:104EC0004F330E94E40F83E090E00E94193390E09A
:104ED0000E949D068091AE079091AF070E94CC1969
:104EE0000E94430E1092960340E150E06FEF70E095
:104EF0008FEA93E00E94FF321092360440E150E0C6
:104F00006FEF70E08FE494E00E94FF3210939503FE
:104F100048E050E067E170E080EA97E00E940933E2
:104F2000109295038091A007843010F40E9403151D
:104F30008091F4068127880F8093960680E88093FD
:104F4000C103CAD76BE070E084EA98E00E94C815FC
:104F50008030E9F18091960665E070E081FDE1C066
:104F60008FE998E00E94C815803089F16DE070E00B
:104F70008DE898E00E94C815803049F10E94BD0F6D
:104F8000DC01CB0180529C46AB4FBF4F80939A0609
:104F900090939B06A0939C06B0939D06E6E9F4E0EF
:104FA000DF0180E092E01D920197E9F7E093BF03F3
:104FB000F093C0038FEF9FEF80939806909399062C
:104FC00081E08093A0068093A606109297068091B8
:104FD000F406811102C00E94D33085E091E08093F5
:104FE0001C0790931D07512C412ECE0101968A87F4
:104FF0009B878091C40300E110E452E1F52E8530D7
:1050000009F4F1C00E94801688E694E08E8B9F8B95
:1050100083EE96E08A8F9B8F20E734E0FC01A8E6C0
:10502000B4E09D9180812A173B0709F4EBC03196CB
:105030009817B9F38091F4068D8F8FE594E08C87F3
:105040009D8786EB91E08C8B9D8B1F86EA8DFB8D77
:105050008191888BEA8FFB8FEE89FF898191EE8B9E
:10506000FF8B9889891709F470C498279C8FA12C0D
:10507000B12C81E08E878C8D9E85892309F456C4DE
:10508000888989238B8B8D8D803009F4D9C3EC8579
:10509000FD85808190E092010A2C01C0220F0A94C4
:1050A000EAF78223892B09F0CBC31A2D0E942F1611
:1050B0009C0191E08B8981110CC390E01F821886BE
:1050C000198619838F858A832B833C8381E08D83A6
:1050D0009E8361E08A859B850E94990961E08A85AB
:1050E0009B850E94990961E08A859B850E949909A8
:1050F0004C0180E588168CE7980609F0EDC28E8198
:10510000803009F400C381E08093470109811A814E
:105110002B813C814D815E816F81788589851EDC84
:105120008FC38AE998E01ECF8091C403843069F16F
:105130000E94191580E00E942D1A81E00E946A0DDC
:105140000E94F7151092C20388E190E00FB6F89420
:10515000A895809360000FBE1093600083B7817F95
:10516000846083BF83B7816083BF7894889583B759
:105170008E7F83BF0FB6F894A895809160008861F8
:1051800080936000109260000FBE0E948016E3EED4
:10519000F6E0AFE5B4E080E021912D9391E021119C
:1051A00001C090E0892B2BEE36E02E173F07A1F7C8
:1051B0008030C9F08091C3038030A9F009BDF9BCEB
:1051C00009B400FEFDCF8091D8008F7D8093D80078
:1051D0008091E00082608093E0008091E00081FD9A
:1051E000FCCF0E94391A8091C403853009F49CCF0A
:1051F0000E94391A0E94FD0E0E942D1A80E00E9422
:105200006A0D00CF981316CF08DCD12C8091F406DC
:10521000803031F180914701803011F100917404A8
:105220001091750400301007D9F00E942F16801BD2
:10523000910B20917204309173042817390780F480
:105240009091710480917004981709F469C470DC1E
:1052500010927204109273041092740410927504E8
:105260000E9419158091A006803009F452C1009166
:105270009E0610919F060E942F16801B910BC297CD
:1052800008F46CC00E942F1680939E0690939F0690
:1052900080E00E94320E8091A606803009F45EC044
:1052A0008091F406803009F453C480E00E94320EED
:1052B0008DE199E00E9446138091AE079091AF076F
:1052C0000E942006823009F43AC408F02EC48111ED
:1052D00033C482E199E00E94461382E00E94320EBC
:1052E0000E94FD0E182F117081FB662760F981ED79
:1052F00098E00E9435138DEC98E00E944613612FD0
:1053000083EC98E00E94351383E00E94320E1091E6
:10531000A907812F827261E0811101C060E08EEBEC
:1053200098E00E94351361E0812F817109F460E0FB
:1053300089EB98E00E94351361E0812F847409F4B1
:1053400060E084EB98E00E943513187861E0111159
:1053500001C060E08FEA98E00E94351380919806C2
:1053600090919906892B09F4B9C08091A0068030EC
:1053700009F4B4C0809197068111B0C00E94D51580
:105380008091980690919906009709F4A7C080FB38
:10539000EE24E0F8F12C10E080FD0DC01F5F7201DB
:1053A000012E02C0EE0CFF1C0A94E2F7970128239D
:1053B0003923232B99F38091960680FFCCC3912F3C
:1053C000990F990F990F392F395F80E023E090935F
:1053D0004A0180934D0130934B0120934E0124E606
:1053E00030E047E050E068E471E088E7A8D5892B19
:1053F00009F074C080E2189FA001112480919606E4
:1054000080FFBBC3E6E7F4E080E211928A95E9F7FA
:105410008CE892E08C879D8798E8892E92E0992EFF
:10542000AC85BD85ED91AC87BD87D4010D914D0153
:10543000040F152F111DF0E0EA58FB4F20E030E07B
:1054400087E0A82EA21AC42C022E01C0CC0C0A940C
:10545000EAF7C8018A569B4F1C0190E0D1018D915B
:105460001D018C216A2D691B677070E0A82F062E24
:1054700001C0AA0F0A94EAF77195619571096770E6
:1054800001C086956A95EAF78A2B6081682B608354
:105490009F5F983019F72F5F3F4F319628303105C5
:1054A00079F62C853D852059324009F0B9CF04E6C4
:1054B00010E020E230E046E754E060E488E7CDD534
:1054C000892B61F4E094F09480919806909199066C
:1054D0008E219F2180939806909399068091A6062D
:1054E0008030B9F00E94BD0F00919A0610919B0682
:1054F00020919C0630919D06DC01CB01801B910B15
:10550000A20BB30B8F3F9F4FAF4FBF4710F40E94CA
:10551000F715D1100E94D51586E0E4E9F7E0AA85D9
:10552000BB8501900D928A95E1F7B0909507F090B8
:105530009607D0909707C0909807E090990710922F
:1055400096071092970710929807109299078F2D3F
:105550008D2909F441C00091A3061091A4060E9470
:105560002F16801B910B9C0190919207903009F4AB
:1055700010C32531304080F19F3F19F09F5F909319
:105580009207F11459F00E94B90E91E01F140CF02B
:105590009FEF899F802D112480939607D11459F095
:1055A0000E94B90E91E01D140CF09FEF899F802D91
:1055B00011248093970780919607803069F01091AD
:1055C0009707103049F00E94AB0E80939607812F09
:1055D0000E94AB0E809397078C2D8E2909F441C051
:1055E0000091A1061091A2060E942F16801B910B1C
:1055F0009C0190919107903009F4C6C2213530404A
:1056000080F19F3F19F09F5F90939107C11459F06B
:105610000E94D90E91E01C140CF09FEF899F802D01
:10562000112480939807E11459F00E94D90E91E05B
:105630001E140CF09FEF899F802D112480939907F1
:1056400080919807803069F010919907103049F0E7
:105650000E94AB0E80939807812F0E94AB0E80931F
:10566000990780919507B81219C0809196078030EC
:1056700011F0F81213C020919707203011F02D116E
:105680000DC090919907903011F09E1107C0309194
:105690009807311103C0822B892B11F00E94131837
:1056A00086E0EA85FB85A4E9B7E001900D928A9532
:1056B000E1F70E94FD0E182F8091A506181709F436
:1056C00098CC1093A5060E94BD0F812F0E942D1A21
:1056D00090CC1092A807F2CC81E588168CE798064A
:1056E00029F48E81803079F0CBDA10CD82E58816EE
:1056F0008CE7980641F48E81803029F08091470133
:105700008111F2CF00CD0FE011E0E12C212C312CE2
:10571000F8014081518180E06FEF9FEFC82ED12CBE
:10572000FA01E80FF11DE80FF11D25913591821660
:10573000930611F0C62ED92E232B21F08F5F6C2DEE
:105740009D2DECCF9FEFC916DC0409F4CEC19E81DC
:10575000F8014481F09047014111F12CF801758066
:105760002681903009F48BC1F11409F488C17110BD
:1057700013C0A20101C0440FCA94EAF7242B268368
:1057800020917204309173042233304028F422E3D4
:105790002093720410927304920102C0220F331FEF
:1057A0008A95E2F7C9010197F801268128171906A1
:1057B00009F049C1C0907404D0907504C114DC0490
:1057C00009F4D9C00E942F168C199D09C39708F4BB
:1057D000D2C081E0F8018483E82A8FEF281A380AC2
:1057E000095F1F4F88E02816310409F091CF8E81A0
:1057F000803009F47CC1E11409F479C10E942F16AC
:105800008093740490937504809135048830C0F4BB
:10581000982F9F5F909335042DE0829FC001112443
:1058200083539C4F29E0EA85FB85DC0101900D92B2
:105830002A95E1F7FC012FEF218722878386948642
:105840008B89803041F0EC89FD89EA0DFB1D808158
:105850008F3F09F061C1D12C0D2D10E080913604ED
:105860008D0D9927991F09974CF188E0E82EF12CAE
:10587000E01AF10AB801695C7B4FA70187E394E065
:10588000ADD6B801615C7B4FA7018FE394E0A6D64B
:10589000A701440F551FB801660F771F615B7B4F4F
:1058A0008FE494E09BD6B801695B7B4FA70187E446
:1058B00094E094D688E08D1980933604D11431F1A8
:1058C00080913604988DA92FB0E0682F70E09B017D
:1058D0002A5C3B4FAD01440F551F4A515E4FFA0100
:1058E0009081F9019183AA0FBB1FAA54BE4FD19694
:1058F0009C919187988D918B660F771FFB01EA5CD5
:10590000FB4F118E128E8F5F809336048B8981112D
:105910000DC0842D0A2C01C0880F0A94EAF7982F35
:105920009095EC85FD858081892380838E85880F05
:105930008E878FEFA81AB80A86E0A816B10409F07E
:105940009ACBEE89FF89888982938F858F5F8F87B5
:105950008C859D8501968C879D878C899D8906966F
:105960008C8B9D8B8F85883009F070CB0E94C90F7E
:10597000DD24D3944BCC7090710480917004898F96
:10598000798AA0E0B0E0898D781609F449C0272D06
:1059900030E0F901EE0FFF1FEB53FC4F40815181C6
:1059A000A0E0B0E04830510540F487E0849FD0018A
:1059B000859FB00D1124A15FBE4F8D919D911297CF
:1059C0008E8F9F8F612C80E090E0EE8DFF8DE90F30
:1059D000F11DE90FF11D4591559140305407C1F07B
:1059E000F801C080D180612C07C0E1E0461757075D
:1059F00009F0E0E08E2B6394F601E60DF11DE60D53
:105A0000F11D659175916030760779F79F5FDDCF65
:105A1000803091F16916C8F4F80181E08483D801DF
:105A2000898980937104A017B10769F0898D90E08E
:105A3000FC01EE0FFF1FEB53FC4F208231820196D9
:105A40008370809370048F2DC7CE109781F081E012
:105A500014968C931497A017B10711F389897812C3
:105A600006C049895A894395842F8370898B239571
:105A7000822F8370782E87CFA0E0B0E0F8CF30E09F
:105A800071101DC0B20102C0660F771F8A95E2F740
:105A9000CB0101978217930729F4403021F0C1010F
:105AA0000E94610EF72CC20101C0880FCA94EAF768
:105AB000C82EC094F80186818C218683C4CFA901A9
:105AC0000C2C02C0559547950A94E2F7C90101973D
:105AD00082239323892B31F440FF04C0C8010E9424
