:10000000F1C500000CC600000AC600000C94FC2FCD
:1000100006C6000004C6000002C6000000C60000BC
:10002000FEC50000FCC500000C94D72C0C94BF2D1D
:100030000C949715F4C50000F2C50000F0C500004F
:10004000EEC50000ECC50000EAC50000E8C50000F0
:10005000E6C500000C94B32CE2C50000E0C500002A
:10006000DEC50000DCC50000DAC50000D8C5000010
:10007000D6C50000D4C50000D2C50000D0C5000020
:10008000CEC50000CCC50000CAC50000C8C5000030
:10009000C6C50000C4C50000C2C50000C0C5000040
:1000A000BEC50000BCC50000BAC500000B000D00B5
:1000B00000003700380000002C0028000000050177
:1000C0000902A10185020901A100050919012908F8
:1000D00015002501950875018102050109300931D6
:1000E0001581257F95027508810609381581257FC0
:1000F000950175088106050C0A38021581257F9542
:100100000175088106C0C005010980A10185031998
:10011000012AB700150126B700950175108100C0AE
:10012000050C0901A101850419012AA00215012667
:10013000A002950175108100C005010906A1018585
:1001400006050719E029E7150025019508750181C5
:10015000020507190029EF1500250195F0750181A9
:10016000020508190129059505750191029501758A
:10017000039101C005010906A101050719E029E75E
:100180001500250195087501810295017508810109
:100190000507190029FF150026FF0095067508813F
:1001A000000508190129051500250195057501911E
:1001B00002950175039101C009023B00020100A0F4
:1001C000FA090400000103010100092111010001E5
:1001D000224400070581030800010904010001030E
:1001E00000000009211101000122B6000705820369
:1001F0002000011201000200000008534601000126
:1002000000010200010C0343006F0072006E0065E4
:10021000000000100366006F006F0073007400613F
:10022000006E0000000403090400AE00AF000000EF
:100230000000003E5B4F5B3E003E6B4F6B3E001C80
:100240003E7C3E1C00183C7E3C18001C577D571C11
:10025000001C5E7F5E1C0000183C180000FFE7C316
:10026000E7FF00001824180000FFE7DBE7FF00307D
:10027000483A060E00262979292600407F05050701
:1002800000407F05253F005A3CE73C5A007F3E1C5A
:100290001C0800081C1C3E7F0014227F2214005FF3
:1002A0005F005F5F0006097F017F00006689956A35
:1002B0000060606060600094A2FFA2940008047E69
:1002C00004080010207E20100008082A1C080008DE
:1002D0001C2A0808001E10101010000C1E0C1E0C0A
:1002E0000030383E383000060E3E0E06000000009A
:1002F00000000000005F000000000700070000147D
:100300007F147F1400242A7F2A12002313086462BA
:1003100000364956205000000807030000001C2248
:100320004100000041221C00002A1C7F1C2A0008FA
:10033000083E08080000807030000008080808081F
:10034000000000606000002010080402003E5149D7
:10035000453E0000427F4000007249494946002165
:1003600041494D33001814127F1000274545453987
:10037000003C4A49493100412111090700364949E9
:10038000493600464949291E0000001400000000BB
:100390004034000000000814224100141414141406
:1003A000000041221408000201590906003E415D87
:1003B000594E007C1211127C007F49494936003E9B
:1003C00041414122007F4141413E007F494949412D
:1003D000007F09090901003E41415173007F08086F
:1003E000087F0000417F4100002040413F01007F25
:1003F00008142241007F40404040007F021C027FE1
:10040000007F0408107F003E4141413E007F090902
:100410000906003E4151215E007F09192946002648
:10042000494949320003017F0103003F4040403FFA
:10043000001F2040201F003F4038403F0063140849
:100440001463000304780403006159494D4300001C
:100450007F41414100020408102000004141417FDA
:100460000004020102040040404040400000030735
:100470000800002054547840007F28444438003855
:100480004444442800384444287F003854545418C5
:100490000000087E0902001824241C78007F08044C
:1004A00004780000447D4000002040403D00007F73
:1004B000102844000000417F4000007C047804784C
:1004C000007C08040478003844444438007C182434
:1004D000241800182424187C007C08040408004810
:1004E000545454240004043F4424003C4040207CE5
:1004F000001C2040201C003C4030403C00442810A0
:100500002844004C9090907C004464544C4400007B
:100510000836410000000077000000004136080066
:10052000000201020402003C2623263C00000000D9
:1005300000000000000000000000000000C0E0F02B
:10054000F8F81800C0F0FCFEFFFFFFFFFFFFFF7E82
:1005500000000000000000000080C0E0E0E0E0E0FB
:10056000E0E0E0C0800000000080C0E0E0E0E0E00B
:10057000E0E0E0C080000000E0E0C0C0E0E0E0E0DB
:100580000000E0E0C0C0E0E0E0E0E0C0800000008B
:100590000080C0E0E0E0E0E0E0E0E0C080000000DB
:1005A0000000000000000000000000E0F0F0F0E0BB
:1005B000ECEEF7F37020007C7C7C7E007E7E7E7FFC
:1005C0007F7F000080C0E07E5B4F5BFEC00000C00C
:1005D00000DCD7DEDEDED7DC00C00000000000005B
:1005E000000000000000000000000000000000000B
:1005F000000000000000F8FCFEFFE000FFFFFFFF2E
:10060000FFFF80FFFFFFFFFFFFFFFFFF1F0701004E
:100610000000000000000000FFFFFF81000000005C
:10062000000081C3C3C30000FFFFFF810000000082
:10063000000081FFFFFF0000FFFFFF01000000003E
:100640000000FFFFFF010000000001FFFFFF0000AE
:10065000FFFFFF9D1C1C1C1C1C1C9DDFDFDF00001E
:1006600000000000000000000000000F1F3F7F7F1F
:100670007F7F7F3F1E0C001F1F1F3F003F3F3F7FBC
:100680007F7F00307B7F7830202030787F3B0003F5
:10069000000F7F0F0F0F7F0F00030000000000000E
:1006A000000000000000000000000000000000004A
:1006B000000000000000030F1F3F3F3F3F1F1F3F90
:1006C0003F7F7F7F3F3F1F3F7F7F7F7F7C787838F2
:1006D0001C0F0000000000000001030707070707C8
:1006E00007070703010000000001030707070707CA
:1006F00007070703010000000707070000000000CC
:1007000000000707070000000000000707070000BF
:100710000001030707070707070707030100000099
:1007200000000000000000000000000000000000C9
:1007300000000000000000000000000000000000B9
:1007400000000000000000000000000000000000A9
:100750000000000000000000000000000000000099
:100760000000000000000000000000000000010187
:100770000101010101010102020202020202020260
:100780000303030303030303040404040404040530
:1007900005050505060606060607070707070808F4
:1007A0000808090909090A0A0A0B0B0B0C0C0C0DA5
:1007B0000D0D0E0E0E0F0F0F10101111111212133E
:1007C000131414151516161717181819191A1A1BB9
:1007D0001B1C1D1D1E1E1F20202122222324242518
:1007E0002626272829292A2B2C2D2D2E2F30313251
:1007F00032333435363738393A3B3C3D3E3F404161
:1008000042434445464748494A4C4D4E4F50515348
:1008100054555658595A5B5D5E5F616264656668FF
:10082000696B6C6D6F7072737577787A7B7D7E8083
:1008300082838587888A8C8E8F91939596989A9CCF
:100840009EA0A2A3A5A7A9ABADAFB1B3B5B7BABCE3
:10085000BEC0C2C4C6C9CBCDCFD1D4D6D8DBDDDFB4
:10086000E2E4E7E9EBEEF0F3F5F8FAFDFF00DA0277
:1008700081FFD9F1DB20A4A62EAF00A0C0D30000D9
:10088000A1C8D30000AED580A81F408D142000471A
:1008900055492000414C54200043544C20005346FD
:1008A0005420004E554D5F4C4F434B2000202620D6
:1008B00000434150535F4C4F434B00556E64656697
:1008C00020202020200041646D696E2020202020FF
:1008D00000464E20202020202020200053796D62E9
:1008E0006F6C732020200043616C63756C61746FC2
:1008F000720051776572747920202020004C617954
:1009000065723A2000290014001A0008001500172B
:10091000002B0004281624072109220A00E1001DEB
:10092000001B00060019000500000000000000E3A5
:100930000021522C002A00130012000C0018001C89
:1009400000340033380F340E310D320B002352388F
:10095000003700360010001100000000000000E623
:1009600000225228000000000000000000000000EB
:10097000003900010001000100010000000000003A
:100980000000000000000000000000000000000166
:100990000001002C004C002502610060005F005344
:1009A0000056002E025E005D005C000000540063F3
:1009B000005B005A005900000000000000000062C7
:1009C000002352280035001E001F002000210022B5
:1009D0000001002D282E242F213022310001002D6E
:1009E000022E022F0030003100000000000000E362
:1009F0000023522C002A0027002600250024002373
:100A0000004D004A004F005200510050000000000D
:100A10000000004E004B004900000000000000E60E
:100A200000010028003A003B003C003D003E003F32
:100A3000000100AE00AC00AB00A800AA000100005D
:100A4000000000000000000000000000000000E3C3
:100A50000001002C004500440043004200410040DA
:100A60000043784578497847784278A900000043E8
:100A70007846784A7848780000000000000000E6D8
:100A80000001002800007C3D047A007B007C007D92
:100A9000000000000000002A01000000000000002B
:100AA000000000000000000000000000000000E363
:100AB0000001002C0000000000D200CD00D1000099
:100AC0000000000000D000CE00CF000000000000B9
:100AD000000000000000000000000000000000E630
:100AE00000010028002020202061626364656667A1
:100AF00068696A6B6C6D6E6F7071727374757677FE
:100B000078797A3132333435363738393052454294
:100B1000545F2D3D5B5D5C233B27602C2E2F2020F6
:100B200020000000000000000000000000000000A5
:100B300000000000000000000000000000000000B5
:100B400000000000007E0F00D4FFFFFFC700000080
:100B50007800000000000000002A2B2800000000A0
:100B6000000000000000000000000000290000005C
:100B7000002C1E3420212224342627252E362D3702
:100B800038271E1F202122232425263333362E37D3
:100B9000381F0405060708090A0B0C0D0E0F10116B
:100BA00012131415161718191A1B1C1D2F31302378
:100BB0002D350405060708090A0B0C0D0E0F101140
:100BC00012131415161718191A1B1C1D2F31303546
:100BD0004C3D3E7B7D004079617269656C5F646568
:100BE000760A000011241FBECFEFDAE0DEBFCDBFD2
:100BF00012E0A0E0B1E0E4E2F5E602C005900D925B
:100C0000AE3DB107D9F727E0AEEDB2E001C01D92CD
:100C1000A33FB207E1F70E94F6260C942532F0C9F3
:100C2000292F30E048E0911102C09C0140E0C90149
:100C300064E0969587956A95E1F7009711F04C5F0F
:100C40009C01C9019695879596958795009711F017
:100C50004E5F9C01C90196958795840F08958093F6
:100C6000EC079093ED0708958093EE079093EF07BC
:100C7000089521E030E002C0220F331F8A95E2F789
:100C80008091EE079091EF07822B932BEDCF21E01F
:100C900030E002C0220F331F8A95E2F7209530958D
:100CA0008091EE079091EF0782239323DDCF983058
:100CB00090F5863080F5E82FF0E086E0989FE00D13
:100CC000F11D112451E0E1FD54E0E0FD550FE2FD7E
:100CD000529583E0F695E7958A95E1F7EE0FFF1FB1
:100CE000EE0FFF1FE15CF84F20E030E070E0419133
:100CF000DF01CB01022E02C0969587950A94E2F798
:100D00008695880B8427852384278E932F5F3F4FFA
:100D10002430310561F70895292F983070F5863019
:100D200060F590E036E0239F800D911D1124682F1F
:100D3000677023E0969587952A95E1F7FC01EE0F01
:100D4000FF1FEE0FFF1FE15CF84F40E050E080E036
:100D5000219130E0062E02C0369527950A94E2F7DD
:100D60002170042E01C0220F0A94EAF7822B4F5FF4
:100D70005F4F4430510561F7089580E00895E09198
:100D8000ED069091EC06E91302C080E008959F0102
:100D900059E0E59FF0011124E251F94F51815613BA
:100DA00006C05081581303C05581541305C02F5FEE
:100DB0003F4FF901E770E7CF81E008958091ED069C
:100DC0002091EC06281301C0089501968770FACF90
:100DD000909171078095892380937107282F277040
:100DE00061F4891751F09091730792FF06C08695C0
:100DF000869586954CDF10927107089580916E0755
:100E000090917407892B90916F079115C9F0892BE8
:100E100090914101913021F49091720797FD11C09A
:100E200096E022EE32E040E09150F90150812F5FD0
:100E30003F4F51114F5F9111F7CF411110926F0742
:100E400008959EE12AEE32E0EECF8095982F8091B2
:100E50006E07892380936E070895972F7830C8F422
:100E60006630B8F48530C0F470E026E0929F600DE3
:100E7000711D112490E3899F600D711D1124FB01E8
:100E8000EE0FFF1FEB5FF64F85919591282F822F74
:100E9000089520E090E0FBCF21E0FCCF803E91055B
:100EA000D1F1C8F48133910509F481C048F4893245
:100EB000910509F471C08A32910509F47FC0089543
:100EC00089339105E1F082389105C9F085339105A8
:100ED00009F45DC00895843E9105D1F148F4823E45
:100EE000910531F1833E910541F181EE90E0089545
:100EF000863E9105C1F1873E9105F1F1089520915B
:100F00007207237009F064C02091730723FF14C097
:100F100089E290E008952091720720FD45C030914C
:100F2000730730FF09C024FD24C083EE90E00895CC
:100F30002091720722FDF7CF08952091720722FDBC
:100F400044C03091730730FD43C024FFF5CF11C07A
:100F50002091730721FFF0CF8091720784FD09C0B3
:100F600087EE90E008952091720723FFE5CF24FFDC
:100F7000F7CF80E090E008952091720723FD2BC009
:100F80003091730731FFE1CF84EE90E00895209116
:100F9000720725FFD1CFBCCF2091720725FD1EC05F
:100FA0002091730723FFC8CF89E390E00895209133
:100FB000720726FFC1CF8AE290E008952091720760
:100FC00026FFBACF81E390E0089582EE90E0089585
:100FD00080EE90E0089586EE90E0089585E390E03D
:100FE00008959091720792FF10C041E0282F24715C
:100FF000243009F040E031E0282F2871283009F032
:1010000030E0431711F02CE0822793FF10C041E03D
:10101000282F2471243109F040E031E0282F287175
:10102000283109F030E0431711F02CE0822730918D
:10103000730730FF10C051E0282F2171213009F0D3
:1010400050E041E0282F2871283009F040E0541783
:1010500011F029E0822731FF10C041E0282F2171D3
:10106000213109F040E031E0282F2871283109F0C2
:1010700030E0431711F029E0822794FF02C083FD7E
:10108000877E08950F931F93CF93DF9307DFEC01C3
:10109000D23508F04DC0D03508F0C3C0C03ED105F0
:1010A00030F5CD3CD10508F09AC0C83AD10578F4A6
:1010B000C53AD10508F090C0C130D10599F1CE01F3
:1010C0000497813A910570F1C0E0D0E02BC0CE01C9
:1010D000885A91094B97C0F7C85AD0E0CC0FDD1F52
:1010E000CE58DD4F0990D881C02DD4641BC0D034B8
:1010F00090F4D03208F0A8C0C83ED10598F0CE01D7
:1011000091509F3108F78D2F6CDF082F8C2F90E0C6
:10111000C5DE902B54C08C2F90E0C0DEDF70C82F4E
:10112000D92BD06ACE01DF91CF911F910F910895F5
:10113000C03882E5D807B8F5C03682E5D80708F090
:1011400056C0C03482E5D807C8F4C03282E5D8075B
:1011500008F047C08C2F8695869520E2829FC001BB
:101160001124C37021E030E002C0220F331FCA9562
:10117000E2F7E901C82BD92BDD68D4CF8C2F8695F7
:101180008695877020E2829FC0011124C37021E000
:1011900030E002C0220F331FCA95E2F7E901C82BE5
:1011A000D92BDC68BFCFC03C82E5D80750F48C2F28
:1011B0008F71C03AD24580F5982F84EF906AEC0188
:1011C000B1CFCE01805C9245809708F07DCFDC2FB7
:1011D000DF71C0EFD06AA6CFA497D064A3CFD0654B
:1011E000A1CF8C2F8F71D82FC1EFD06A9BCF8C2FBE
:1011F00086958695877020E2829FC0011124C37076
:1012000021E030E002C0220F331FCA95E2F7E90166
:10121000C82BD92BDA6886CFE4DEC0E0D82FD062A5
:1012200081CF8C2F8F71DDDE93E0CC0FDD1F9A957F
:10123000E1F7DF70282F84FF04C090E1899F9001BF
:101240001124C22FD0696ECF8D2F8F71CADE082F67
:101250008C2F90E023DE902BEC01E1CFCF92DF9238
:10126000FF920F931F93CF93DF936C010091EE07D2
:101270001091EF078091EC079091ED07082B192B47
:10128000CFE0D0E081E090E00C2E02C0880F991FE3
:101290000A94E2F780239123892B61F4219790F738
:1012A000F12C8F2DDF91CF911F910F91FF90DF9047
:1012B000CF900895FC2EB6018C2FCFDDE3DE019791
:1012C00069F3EFCF1F93CF93DF93FC012781308524
:1012D0002115310589F48581C081D181811589F07D
:1012E000611579F0CE01BADF182F682FCE01DFDC4F
:1012F000BE01812FB2DD9C01C901DF91CF911F9109
:101300000895CE0109DD182FF3CFCF93DF93EC01C1
:10131000A5DFBE01A2DDB6DEDF91CF910895FC010D
:1013200084818115A9F087819085009799F0AADEC4
:1013300092959F709630C9F088F4925F9F709230BA
:1013400038F491E0803F79F058F491E0883E58F00D
:1013500090E009C080819181D8DFEACF9A5FEECF1B
:1013600091E0843FA9F7892F089591E0813F09F02A
:1013700090E021E0883E08F020E0922BF4CF80E05E
:101380000895F894E82FE295EF70F0E041A18F7096
:1013900021E001C0220F8A95EAF7922F90959423BD
:1013A00091A392A1822F892B82A378940895CF9242
:1013B000DF92EF92FF921F93CF93DF93462F172F69
:1013C000E82FF0E0E359F84F71110CC0E4918E2F33
:1013D0007E2F6E2FDF91CF911F91FF90EF90DF90C6
:1013E000CF900895F491EF2F86E0689FE0011124DB
:1013F0002FEF30E0CE01B9010E940731DB01CA01B5
:10140000880F991F65E56A9FA0016B9F500D1124FD
:10141000841B482F440F480FC901811B9109F89F75
:101420007001F99FF00C11248F2D149FB00111242D
:10143000672F70E06901C61AD70AB601F69F6001EE
:10144000F79FD00C1124A330B10549F1B901641BF9
:101450007109AB01149FB001159F700D1124672F06
:1014600070E0261B370BF29FA001F39F500D112453
:10147000752FCC3FD34050F4A130B105A1F01297A5
:1014800009F0A7CFEF2D852F7F2FA3CFA430B10573
:1014900069F0169709F49DCF7F2D8D2D9ACF7D2D64
:1014A000EF2D8F2F96CF7F2FED2D93CFE52F7F2D13
:1014B000F8CF982F8091BB06811529F081E09B31F0
:1014C00008F080E0089581E09633FACF282F269F18
:1014D000020E20E0211D1124822F0895CF93DF9367
:1014E000EB012695E22F26FDE0959E2F9F7026FDAD
:1014F0009F5FE695E695E695E670F0E0EC57FE4FC7
:101500003181399F302D912D112432953F70929564
:10151000907F392B9081930F27FD919597FD9195A1
:10152000682F892F880FD2DFBE01DF91CF910895F8
:10153000622F0895E42FF0E0EE0FFF1FE454FE4FFA
:101540006081621B0895E42FF0E0EE0FFF1FE45767
:10155000FE4F61A9621B0895CF93DF93EB015111F8
:101560004FEF682F842F8095B1DFBE01DF91CF91BF
:1015700008951F93CF93DF93EB01182F51114FEF75
:1015800060E4842F8095A2DF6C2F680F7D2F812F60
:10159000DF91CF911F9108958091D703816080934F
:1015A000D70308953091BB06311104C08B319105EA
:1015B0000CF04B9724C3FF920F931F93CF93DF93AD
:1015C000182F062FF42EC0E0D0E02F2D402F612FD2
:1015D000CE01E8DF2196C633D105B9F7CDB7DEB726
:1015E000E5E00C9444319BE0899F802D1124982FD5
:1015F000955F973308F096E32091BB06211104C054
:101600008B3128F48BE108959C3108F09BE108951B
:10161000EF92FF920F931F93CF93DF937C01809102
:101620000201E1DF192F30916A073695369521E0E6
:10163000320F08F43FEF6091D3037091D40340E080
:1016400050E0639F060E411D739F400D511D1124F4
:10165000470F511D042FC82FD0E0812FC11730F044
:1016600028DFCDB7DEB7E6E00C944331FE01E85D3C
:10167000FD4F808190910301892379F06091670784
:101680007091680780916907202F4C2FF701099509
:101690008EDE472F282FCE0185DF2196DECF8F9259
:1016A0009F92BF92CF92DF92EF92FF920F931F9380
:1016B000CF93DF934C018091020195DFC82FB92EA3
:1016C00020916A0731E0230F08F42FEF30E040E06B
:1016D00050E0CA016FEF7FEF0E9471318901D0E0C5
:1016E000E12CF12CD22EC12E2C2F8B2DCB1568F096
:1016F000E0DEDF91CF911F910F91FF90EF90DF908F
:10170000CF90BF909F908F900895FE01E85DFD4FB0
:10171000808190910301892339F14091D803415090
:10172000542F550F550B47FF21C08D2D9C2D209117
:101730006A0731E0230F08F42FEFA701829F080EFC
:10174000411D929F400D511D1124490F511D609163
:1017500067077091680780916907F401099527DE92
:10176000472F282FCE011EDF2196BECFFA01E85267
:10177000FC4F818982130BC0FA01EE0FFF1FE85264
:10178000FC4F818D928D8017910708F4D0CF415086
:101790005109C9CFA0E0B0E0E0EDFBE00C942331AB
:1017A000182F80910101811324C0909166079370D6
:1017B0002091000130E081E09217130609F480E0E7
:1017C0008093040180916B0790910301981731F089
:1017D0008093030140E060E080E0EDDE1B3058F4D0
:1017E000E12FE150EA30E8F4F0E0E95DFD4C0C94C3
:1017F0008D3181E0E5CF1F3F09F4F1C080E0909189
:1018000002019F5F90930201811112C182E08093D7
:1018100044018091040181110BC1111109C183E0C0
:1018200005C180910401811549F340E060E080E04A
:10183000C2DEE4CF80910201D6DEC82F092F60916D
:1018400067077091680780916907B1DDF62EE72E72
:10185000D82ED0E00C1709F018F4802F2ADECFCF55
:10186000FE01E85DFD4F808190910301892329F0FD
:101870002D2D4E2D6F2DCE0195DE2196EBCF809133
:101880000201B1DEC82FF92E00916707E0906807CA
:10189000D0916907602F7E2D8D2F89DDD62EC72E22
:1018A000B82E60916A07600F7E2D8D2F80DD062F88
:1018B000E72EA82ED0E08F2DFC1681F278F2FE01E3
:1018C000E85DFD4F908180910301892351F02A2D1D
:1018D0004E2D602F90FD03C02B2D4C2D6D2DCE0174
:1018E00061DE2196E8CF809102017DDEC82FF92EBE
:1018F000E0906807D090690760916A0780E4E6DDB0
:10190000082FD0E08F2DFC1609F008F4A7CFFE01B8
:10191000E85DFD4F8081909103018923A1F0FE01D4
:10192000EE0FFF1FE457FE4F81A982958F706091E3
:101930006707809F600D11247E2D8D2D38DD472F88
:10194000282FCE012FDE2196DDCF809102014BDEC4
:10195000C82FF92EE0906807D090690760916A0758
:1019600080E4B4DD082FD0E08F2DFC1609F008F4D8
:1019700075CFFE01E85DFD4F8081909103018923C1
:10198000C1F0FE01EE0FFF1FE457FE4F60A9609FFC
:10199000B001112445E0759567954A95E1F780916E
:1019A0006707680F7E2D8D2D02DD472F282FCE0172
:1019B000F9DD2196D9CF8EE69AE02ADE20CF88E99C
:1019C0009AE0FBCF8AE99AE0F8CF83EA9AE0F5CF74
:1019D0008CEA9AE064DE13CF89EB9AE0FBCF90911A
:1019E000D403A091D503B091D603892F9A2FAB2FA2
:1019F000A69597958795A69597958795837090E07E
:101A0000A0E0B0E082309105A105B105B1F08330CE
:101A10009105A105B105A1F040E060E0109790406C
:101A2000814081F464E180E0C6DD82E0809344017E
:101A3000CDB7DEB7EAE00C943F3144E160E0F3CF8C
:101A400044E164E184E1F0CFCF93C82F811581F0A8
:101A50008091720681110CC09DDE1092010180916F
:101A6000660783708093000104D483E0809344016F
:101A7000C0937206CF91089590916607937071F0AC
:101A80008B3008F08AE0880F880F9091660793707A
:101A9000892B80936607109244017ECD0895809132
:101AA0006607869586958F5F8B3008F081E0E4CFDE
:101AB0008091660786958695815009F48AE0DCCF8F
:101AC00090916607937051F0809367076093680761
:101AD000493708F048E7409369075ECD0895E6E688
:101AE000F7E0818190E0438162810896E9CFE6E6E4
:101AF000F7E08181438162818850990BE1CFE6E66E
:101B0000F7E0628128E0620F08F46FEF8181438182
:101B100090E0D6CFE6E6F7E0628128E0621B08F4A9
:101B200060E08181438190E0CBCFE6E6F7E043813E
:101B300028E0420F08F44FEF8181628190E0C0CF2E
:101B4000E6E6F7E0438128E0421B08F440E08181AB
:101B5000628190E0B5CF20916A073AE0230F08F444
:101B60002FEF20936A0718CD20916A073AE0231BD4
:101B700008F420E020936A070FCDE0916B07EF3F58
:101B800061F0E53061F0E23061F4EF5FF0E0E058E1
:101B9000FE4F808180936B07FFCCE0E0F6CFE1E061
:101BA000F4CFE0E0F3CFE0916B07EF3F89F0E53051
:101BB00069F0E23019F0E1110DC0E3E0E150F0E02E
:101BC000E058FE4F808180936B07E6CCE1E0F6CFD2
:101BD000E3E0F5CFE0E0F3CF20910304382F3203A8
:101BE000C0011124923014F080E090E08F599B4F97
:101BF00080930104909302040895539A0895FC0180
:101C0000EE0FFF1FE80FF91FEA5DFC4F6183408371
:101C10002283089510927D0710927E0780914A01D9
:101C2000811104C01092490110924B018091510121
:101C3000811104C0109250011092520180915801FC
:101C4000811104C010925701109259010895AC01FE
:101C50008091800760917F07982F691301C00895D4
:101C6000292F30E0F901EE0FFF1FEB58F84F0190DC
:101C7000F081E02DE417F507B9F4E0E0F0E043303F
:101C8000510540F467E0649FF001659FF00D112459
:101C9000EB5BFE4F41E044839813E1CF2F5F3F4F52
:101CA00023702093800708952395922F9370D5CFAA
:101CB000FC01AC014C5F5F4F8FEF61E3919189278D
:101CC00028E030E0982F990F87FF09C0892F8627D9
:101CD00021503040B9F7E417F50781F70895892FAF
:101CE000F7CF382F25EB3203C001112497FF04C032
:101CF00080589109892F089580589F4FFBCF80917C
:101D0000590780FD14C081FD14C082FD16C080916A
:101D10005807811581F08E3180F420E5829FC00143
:101D200011246EE170E00E945E31862F089584E1F7
:101D3000089588E2089588E0089580E508958091E7
:101D4000590780FD17C081FD17C082FD19C0809121
:101D50005707811599F0883298F428E0829FC001D6
:101D6000112468E270E00E945E316115710551F046
:101D7000862F089562E0FCCF64E0FACF61E0F8CFEF
:101D800068E0F6CF81E008958091BA06811571F080
:101D9000E091E206F091E306309739F00190F0818E
:101DA000E02D309711F00995089580E00895A3E0A3
:101DB000B0E0EDEDFEE00C942B3120912103309149
:101DC000220328173907B1F080932103909322034F
:101DD000E091E206F091E306309761F00084F1852E
:101DE000E02D309739F023E029838A839B83CE014D
:101DF000019609952396E2E00C944731A3E0B0E008
:101E0000E4E0FFE00C942B3120911F03309120037C
:101E100028173907B1F080931F0390932003E091B6
:101E2000E206F091E306309761F00084F185E02D41
:101E3000309739F024E029838A839B83CE01019671
:101E400009952396E2E00C9447319091410191303D
:101E500099F0A2EEB2E0EFEF90E02C91821759F0EA
:101E60001196EF3F19F4211101C0E92F9F5F9630C1
:101E7000A1F7EF3FC1F408959091720797FFE9CF62
:101E8000E82FE695E695E695803FA8F7F0E0E85163
:101E9000FD4F877021E001C0220F8A95EAF7828109
:101EA000822B82830895FE2FFF0FFF0BE052FD4F20
:101EB000F8CF90914101913021F49091720797FDF4
:101EC0000CC0E2EEF2E09191891302C0DF011E9294
:101ED00092E0E83EF907B9F70895E82FE695E69510
:101EE000E695803FC8F7F0E0E851FD4F9DEF81FD9A
:101EF00097EF80FF959582FD929582818923828359
:101F000008958091400108952FB7F89460911B03C4
:101F100070911C0380911D0390911E032FBF0895A3
:101F20008091BA06811539F0EFDF462F572FBC019B
:101F3000CB01BA010895E8DFDC01CB014091BC067A
:101F40005091BD066091BE067091BF06480F591FA3
:101F50006A1F7B1FEDCF87E797E780930008909378
:101F6000010888E19AE00FB6F894A8958093600084
:101F70000FBE90936000FFCFFC01209111033091C0
:101F800012032617370748F06115710529F490915F
:101F9000E8009E779093E8009B0190E021153105C1
:101FA00041F4911106C08091E80082FF32C080E0C8
:101FB0000895809106048115C1F18530C1F18091A9
:101FC000E80083FD30C08091E80082FDECCF809175
:101FD000E80080FFE3CF8091F3004091F200582F9A
:101FE0002115310519F04830510558F091E048307D
:101FF000510509F090E04091E8004E774093E800E9
:10200000CDCF81918093F100215031094F5F5F4F17
:10201000E7CF80910604811541F0853041F0809131
:10202000E80083FFC0CF81E0089582E0089583E057
:102030000895982F9093E900891771F07091EC0042
:102040002091ED005091F00021FD09C09F5F973075
:1020500089F78093E9000895762F242F50E030917E
:10206000EB003E7F3093EB003091ED003D7F3093ED
:10207000ED003091EB0031603093EB007093EC0099
:102080002093ED005093F0002091EE0027FDDECF6D
:10209000089580910B0387FF13C08091E80082FFB1
:1020A00006C08091E8008B778093E80008958091C6
:1020B00006048111F2CF0895809106048115D9F3A9
:1020C0008091E80080FFF8CF8091E8008E77ECCF18
:1020D0002091E4003091E50095E6A9012091EC0003
:1020E000822F817020FF06C08091E80080FF06C02B
:1020F00080E008952091E80022FD1AC08091060436
:10210000811589F0853089F08091EB0085FD0FC045
:102110002091E4003091E50042175307F9F2915005
:10212000E1F684E0089582E0089583E0089581E077
:102130000895CF93DF93C8EDD0E088818F7E8883A8
:10214000E7EDF0E080818160808384E082BF81E000
:1021500080930A0388818E7F8883E2EE108210923A
:10216000DA00A1EEB0E01C9288818F7788838881A5
:102170008068888388818F7D888319BC10920604CB
:10218000109209031092050410920803A0EE8C919E
:102190008B7F8C9388818160888342E060E080E05F
:1021A00048DFA1EEB0E08C918E7F8C93E2EEF0E000
:1021B000808181608083808188608083E0EE80817F
:1021C0008E7F8083888180618883DF91CF9108959D
:1021D000E8EDF0E080818E7F80831092E200109223
:1021E000DA001092E100A0EEB0E08C9181608C9357
:1021F00080818F77808319BCA7ED8C918E7F8C9323
:1022000080818F7E808310920A030895A0E0B0E061
:10221000ECE0F1E10C9423317C016B015A018091D7
:10222000A1060AE010E08A3010F001E010E0C1E001
:10223000D0E0B601C701F5010995811115C02196BD
:102240000C171D078CF0CC9F9001CD9F300D300DE9
:10225000112480E090E045E34A95F1F700000196F3
:1022600082179307C1F7E5CFCDB7DEB7EAE00C944C
:102270003F313BB1377F2BB128604FB7F89486E2EE
:1022800093E0FC010196508168E02BB9000000C08A
:1022900057FF3BB9550F000000C000C000C03BB95C
:1022A00000C06A9591F753E0883C950751F74FBFFE
:1022B0008FE594E00197F1F700C0000008950F93B7
:1022C0001F93CF93DF93EB018A0190910604943022
:1022D00059F58093E9008FEF9091E80095FD06C0D5
:1022E00095ED9A95F1F700008150B1F78091E800E3
:1022F00085FF1AC0EDDE811112C08091E80085FDD6
:1023000006C08091E8008E778093E800F3CF888143
:102310008093F1000150104011F02196EECF809192
:10232000E8008E778093E800DF91CF911F910F91A5
:102330000895CF93DF93EC0148E050E0BC0181E0C9
:10234000BEDF88E0FE01A3E1B3E001900D928A9523
:10235000E1F7DF91CF91089540E250E0BC0182E0C7
:10236000AECF46E050E0BC0182E0A9CF43E050E0B0
:10237000BC0182E0A4CF9091730792FB222720F941
:10238000281779F080FB92F9909373076091720798
:102390007091730784E090E00E94213282E00C94F7
:1023A000E806089580914101813069F580917207B6
:1023B00087FF29C00E94FE068093E90240E250E0B8
:1023C00062EC76E088EE92E00E94BE31892BD1F07B
:1023D00080E2E8EEF2E0A2ECB6E001900D928A9580
:1023E000E1F7E091E206F091E306309759F00480BE
:1023F000F581E02D309731F086E08093E80288EE99
:1024000092E0099508950E94FE068093E00248E05C
:1024100050E064EE76E080EE92E00E94BE31892BBF
:1024200089F388E0E0EEF2E0A4EEB6E001900D92D0
:102430008A95E1F7E091E206F091E306309711F317
:102440000280F381E02D3097E9F280EE92E0D9CF5F
:10245000811531F090916E07982B90936E07A2CF63
:102460000895811519F00E9425079CCF0895CF92F9
:10247000DF92EF92FF921F93CF93DF9300D000D0B3
:10248000CDB7DEB7C0907706D0907806E090790699
:10249000F0907A0639DDDC01CB018C199D09AE097B
:1024A000BF0911E084369105A105B10568F138DD59
:1024B000DC01CB010296A11DB11D89839A83AB83F8
:1024C000BC8380913001909131018957994F2091BF
:1024D0002F01422F50E0253008F044E09E012F5F8D
:1024E0003F4FB9010E94CB3183E090E00E949930C8
:1024F000182F811549F008DD6093770670937806F0
:102500008093790690937A06812F0F900F900F9009
:102510000F90DF91CF911F91FF90EF90DF90CF90C0
:1025200008956F927F928F929F92AF92BF92DF92A7
:10253000EF92FF920F931F93CF93DF93D82EEB016F
:102540003A017801A801B901C3010E94BE318C0192
:1025500088809980AA80BB80D7DCDC01CB018819F8
:102560009909AA09BB0984369105A105B10510F4A2
:10257000012B09F10D2DDD0C110B88E00802F00193
:102580001124E95EFE4F818192818957994F208104
:10259000422F50E0E216F10408F4A701B3010E94B3
:1025A000CB31C8010E949930811531F0ADDC6883D0
:1025B00079838A839B8381E0DF91CF911F910F9173
:1025C000FF90EF90DF90BF90AF909F908F907F90A3
:1025D0006F9008950F931F9304E010E02CE836E00D
:1025E000AC016BE776E082E09CDF1F910F910895CC
:1025F000A9E0B0E0EEEFF2E10C94293188E0E6E6E4
:10260000F7E09E012F5F3F4FD90101900D928A950F
:10261000E1F780917206898709E010E024E936E04D
:10262000CE010196AC0163E776E084E07ADF29967B
:10263000E4E00C944531AF92BF92CF92DF92EF92DB
:10264000FF921F93CF93DF9300D000D00F92CDB7AE
:10265000DEB75B0180E090E00E949930182F811571
:1026600009F45EC080911A01482F50E0811141E0C9
:1026700060911B0170911C016957794FCE0105963D
:102680000E94CB31C0908306D0908406E0908506EE
:10269000F090860639DCDC01CB018C199D09AE096E
:1026A000BF0984369105A105B10530F488E896E0AC
:1026B000FFDA9D818917A1F181E090E00E949930B5
:1026C0008115E1F180912201482F50E0853008F01A
:1026D00044E060912301709124016957794FCE0144
:1026E00001960E94CB3188E896E0E2DA9D81891359
:1026F00025C00ADC60938306709384068093850668
:102700009093860689819A81AB81BC8180937F06F4
:1027100090938006A0938106B093820681E00FC05B
:102720008091880690918906A0918A06B0918B06C7
:1027300089839A83AB83BC831111E4CF80E04091FD
:102740007F06509180066091810670918206F501A6
:1027500040835183628373830F900F900F900F908B
:102760000F90DF91CF911F91FF90EF90DF90CF906E
:10277000BF90AF90089548E050E067E170E086E6D2
:1027800097E00E94F8311092D70308958DE180936D
:10279000660780915B0190915C01A0915D0180933F
:1027A000670790936807A09369078FE780936A078C
:1027B0008FEF80936B07DFCFCF92DF92EF92FF9284
:1027C0001F93CF93DF93C090CE03D090CF03E090C0
:1027D000D003F090D1038091BA06811509F453C05B
:1027E00093DB6C197D098E099F096B017C0198DBD5
:1027F000DB01EC016093CE03B093CF038093D00351
:10280000D093D10310910704E7E0F4E0812F90E02A
:102810004FEF5FEF60E070E04C195D096E097F09D2
:10282000191333C0809307048091D203909144011F
:10283000923009F447C0C8F5911141C010920201CD
:10284000A093D303B093D403C093D503D093D603FE
:1028500089E2E7E0F4E0A8EDB3E001900D928A95FB
:10286000E1F780917206811108C080916607982F68
:10287000937019F086958695982F9093D20381E0F6
:102880008093440114C04CDBACCF218D328D4217B4
:1028900053076105710520F481509F5F3296C0CFC8
:1028A0002C0D3D1D218F328FF8CF9330A9F0DF9191
:1028B000CF911F91FF90EF90DF90CF9008950E94ED
:1028C000CA0BF5CF809301018091660783708093D6
:1028D0000001CFDC83E0D4CF8091D70381114BDF9F
:1028E000C090D303D090D403E090D503F090D603EA
:1028F0008091BA06811569F007DB6C197D098E0994
:102900009F09603171058105910588F2109244019B
:10291000CECF06DBF2CFAB0124E630E0BC0188E786
:102920000E94D02E9C0181E0232B09F080E00895C5
:1029300080916C068115E9F0E7DADC01CB01805269
:102940009C46AB4FBF4F8093650690936606A0935D
:102950006706B09368068091690681110AC062E03B
:1029600070E08BE292E0D7DF811519F081E080936F
:102970006906089580916C06811561F08091690661
:10298000811541F062E070E089E292E0C4DF8111DC
:102990001092690608951F93CF93DF93162F8A3004
:1029A00031F481E085D0DF91CF911F9108958D3072
:1029B00011F480E0F7CFC0910104D091020496E0B9
:1029C000FE01A8ECB3E001900D929A95E1F7803EEC
:1029D00078F186E019928A95E9F7C0910104D091C7
:1029E0000204111131C046E050E0BE0188EC93E0D2
:1029F0000E94BE319E0121563440892B81F52A5F09
:102A00003F4F40910304642F70E0C9010E940731D9
:102A1000481B463010F4240F311D323010F020E0F6
:102A200030E02F593B4F2093010430930204BBCF79
:102A300096E0899FB0011124635D7D4F46E050E030
:102A4000CE010E94B531C9CF9E012A5F3F4FFE01E2
:102A50002E173F0741F2808180958193F9CFC901FC
:102A600045E0969587954A95E1F741E050E0BA0137
:102A700002C0660F771F8A95E2F7CB01609163066B
:102A800070916406862B972BB9016B5F7F4FE5E051
:102A900076956795EA95E1F702C0440F551F6A9550
:102AA000E2F7842B952B8093630690936406A7CF5F
:102AB000CF93382FE0910104F0910204E156F440E5
:102AC00020910304622F70E0CF010E940731281B80
:102AD000822F311569F066E00E945231C82FC11172
:102AE00002C0CF910895C15060E080E254DFF7CF7B
:102AF0008E0F9F2F911D923010F080E090E08F5943
:102B00009B4F8093010490930204EBCF1F93CF93CC
:102B1000DF93EC01162FFE018491811104C0DF9137
:102B2000CF911F910895612F36DF2196F4CF1F9228
:102B30001FB61F9211248F939F93AF93BF938091E1
:102B40000404811113C080911B0390911C03A09178
:102B50001D03B0911E034196A11DB11D80931B035F
:102B600090931C03A0931D03B0931E03BF91AF91DC
:102B70009F918F911F901FBE1F9018952FB7F894AB
:102B800080911B0390911C03A0911D03B0911E0323
:102B90002FBF0895CF93DF93EC01F0DF8C1B9D0BCB
:102BA000DF91CF910895CF93DF93C091F107D0913A
:102BB000F207E4DF8C1B9D0B8B3F910558F1809150
:102BC000F00790E0019661E270E00E945E31809330
:102BD000F007D4DF8093F1079093F20780E00E9422
:102BE000EC0D60E086ED9BE091DFC0E0D0E08091ED
:102BF000F0078C0F9D2F911D61E270E00E945E3105
:102C0000825A9E4FFC0160E08081C5DE2196C5316D
:102C1000D10569F7DF91CF910895ACE0B0E0E3E131
:102C2000F6E10C942231FE013196DF0188E01D921D
:102C30008A95E9F788E6C82E82E0D82E7F01AE2E6D
:102C40009F2C02E712E0F60181916F018F3F09F49A
:102C50003DC0F894E82FE295EF70F0E021A18F706D
:102C600041E001C0440F8A95EAF7922F942B91A37B
:102C700092A1842F8095892382A3789400C0ECE6EA
:102C8000F2E031E0B12C21912F3F79F0A22FA295F3
:102C9000AF70A05EB0E08C9190E02F7002C095956F
:102CA00087952A95E2F780FF86C080E0B82A330F27
:102CB0000E171F0741F7F60182918F3F11F00E9416
:102CC000C10980EA8A95F1F7F701B0828FEFE81A1F
:102CD000F80A8CE692E08C159D0509F0B4CF48E027
:102CE00050E06A2D792D82EB96E00E94BE3100976C
:102CF00049F028E0EA2DF92DA2EBB6E001900D9203
:102D00002A95E1F70091B10610E00755194F892B7C
:102D100009F453C081E08093A80630DF8093A606B3
:102D20009093A7068091BA06811509F49EC07E0192
:102D300089E0E80EF11CF70184E011928A95E9F729
:102D40008091A1068A3008F05BC04BE153E1B701E6
:102D5000C8015CDA811509F477C04AEE52E1B70187
:102D6000C80154DA811509F46FC047E352E1B70195
:102D7000C8014CDA811509F467C048EF52E1B70188
:102D8000C80144DA811509F45FC01092A106809150
:102D9000A50690E044E050E0B7018755994F0E94A6
:102DA000BE3121E02093A406892B09F03FC02C9668
:102DB000EBE00C943E31832F79CF8091A8068115EA
:102DC00009F4B0CFE090A606F090A706D7DE8E19E2
:102DD0009F09059708F4A6CF44E050E062EB76E047
:102DE000C8010E94BE31892B41F084E0E2EBF6E09D
:102DF000D80101900D928A95E1F71092A80692CF22
:102E0000C090A206D090A306B9DE8C199D09843F1C
:102E1000914008F09ACF8091A406811541F2F70104
:102E200084E011928A95E9F71092A406E091A50634
:102E3000F0E0E755F94F89859A85AB85BC8580839D
:102E40009183A283B383B3CF8091A1068F3F31F4E6
:102E500095DE8093A2069093A306DDCF8F5F8093CB
:102E6000A1068A3008F493CFF3CFE090A506F12CA9
:102E7000C7018755994F7C01F80180819181A2811A
:102E8000B3818093880690938906A0938A06B093B5
:102E90008B0688E896E00E94580E80938706809102
:102EA0008C0690918D06A0918E06B0918F06F70149
:102EB00080839183A283B383C0909006D0909106C3
:102EC000E0909206F090930680919D0690919E0668
:102ED000A0919F06B091A006C816D906EA06FB0687
:102EE000A9F0C0929D06D0929E06E0929F06F092B5
:102EF000A0060AD8C61AD70AE80AF90AC092BC0680
:102F0000D092BD06E092BE06F092BF0688E0E4E9EA
:102F1000F6E0A6E6B7E001900D928A95E1F7809180
:102F20009C060E94240D43CF29DE9C0190915C07F2
:102F300080915D07982B21F020936F0630937006E7
:102F400090915E0780915F07982B21F020936D068A
:102F500030936E06E091E206F091E306309759F067
:102F60000680F781E02D309731F082E080935A0798
:102F70008AE597E009950895611509F448C0E82F9E
:102F8000ED5CE33150F4F0E0EF5CFD4C0C948D31DE
:102F90000E947F0E819580935D07C6CF0E947F0EB1
:102FA000FACF0E947F0E819580935C07F6CF0E9436
:102FB0007F0EFACF0E949F0E80935E07EECF0E9495
:102FC0009F0E8195F9CF0E949F0E819580935F0798
:102FD000E4CF0E949F0EFACF815D990B21E001C0E2
:102FE000220F8A95EAF780915B07822B80935B071B
:102FF000D4CF80915907816080935907CECF8091BB
:1030000059078260F9CF809159078460F5CF4091CC
:103010005C078D3C59F480915D0787FF0DC01092CD
:103020005D07411559F41092580708C08E3C81F491
:1030300080915D0718169CF3411581F080915E0721
:1030400090915F07892B09F0A8CF10925707A5CF61
:103050008F3C41F447FFF0CF10925C0780915D07F1
:103060008115E0CF803D19F41416B4F3E5CF9091AB
:103070005E07893D29F41916FCF610925E07DCCF35
:103080008A3D19F497FFD8CFF8CF90915F078B3D19
:1030900029F497FFD1CF10925F07CECF8C3D19F462
:1030A0001916CCF3C9CF982F915D983078F4815DD3
:1030B000990B21E001C0220F8A95EAF7822F8095B3
:1030C00090915B07892380935B07B6CF8D3D31F4E8
:1030D000809159078E7F80935907AECF8E3D21F4A2
:1030E000809159078D7FF7CF8F3D09F0A5CF809153
:1030F00059078B7FF0CFCF93C82F8115C9F084502B
:10310000813A80F580914101813021F480917207EC
:1031100087FD10C0E2EEF2E08081C817F1F0319631
:1031200082E0E83EF807C1F78C2F0E94250F3AD9BC
:10313000CF910895EC2FE695E695E695F0E0E851FD
:10314000FD4F828190E04C2F477021E001C0220F9B
:103150004A95EAF78223892B39F38C2F0E94590F65
:1031600021D9E2CF8C2F805E883060F4C77081E077
:1031700001C0880FCA95EAF7C0916E07C82BC093AB
:103180006E07D5CF8C2F855A833030F48C2F845224
:10319000990B0E94D70ECCCFEC2FE85AEB3150F4AC
:1031A000F0E0EE0FFF1FE855FD4F808191810E94F6
:1031B000FE0EBECF8C2F8D5C833108F0B9CF61E05D
:1031C0008C2FDADEB5CF811561F1982F9450913AAA
:1031D00018F40E94590FE6C8982F905E983058F462
:1031E000982F81E091FD84E090FD880F92FD8295FB
:1031F0000E942507F0CF982F955A933020F480E055
:1032000090E00C94D70E982F985A9B3120F480E0D0
:1032100090E00C94FE0E982F9D5C933110F460E0CA
:10322000ABCE08951F93CF93DF93182FEB0163DF8D
:10323000209731F4812FC7DFDF91CF911F9108953F
:103240008FE99FE00197F1F700C000002197F0CFD0
:1032500010926E0780914101813011F580917207C3
:1032600087FF1EC0EAEEF2E08EE111928A95E9F73F
:1032700080E090E00E94D70E80E090E00E94FE0E79
:10328000109274078FD8EAE5F7E086E011928A95EC
:10329000E9F710925807109257071092590744CE39
:1032A000E2EEF2E086E0E1CFD3DF8FEF94E32CE0B3
:1032B000815090402040E1F700C0000088E19AE092
:1032C0000FB6F894A895809360000FBE90936000AD
:1032D000FFCFAAE2B0E0EFE6F9E10C942A318BE0EF
:1032E00093E0FC0101962091F100208323E08331DB
:1032F0009207B9F780910C03893009F459C0C8F4DA
:10330000823009F4B6C0833009F485C0813089F178
:103310008091E80083FFEAC080910B0390910C0339
:103320009A3008F0E3C0E92FF0E0EC5BFD4C0C9420
:103330008D318A3009F48CC08B3051F780910B03AA
:10334000813231F780910F0390911003892B01F79F
:103350008091E800877F8093E8000E94491081E017
:1033600090910D03911101C080E08093410170DFC5
:10337000CFCF80910B03813A59F68091E800877F87
:103380008093E80080910F0390911003892B61F0E6
:1033900060E080E090E070E00E94BC0F8091E80067
:1033A0008B778093E800B4CF68E083E193E0F3CFBC
:1033B00080910B03813209F0ABCF80910F03909184
:1033C0001003029708F0A4CF8091E800877F8093D4
:1033D000E8008091E80082FF19C02091F3008091FD
:1033E000F200922F029731F48091F100813011F0B8
:1033F000863021F48091F100809340018091E800B3
:103400008B778093E8000E94491082CF8091060458
:103410008111DFCF7DCF80910B03813A09F078CF06
:1034200080910F0390911003892B09F071CF809147
:10343000E800877F8093E8008091E80080FFFCCF60
:10344000809141018093F1008091E8008E77D9CF7F
:1034500080910B03813209F05BCF8091E800877F78
:103460008093E8000E94491080910E0380933F01F1
:103470004FCF80910B03813A09F04ACF8091E80049
:10348000877F8093E8008091E80080FFFCCF8091E7
:103490003F01D8CF803889F0823841F580910F0301
:1034A0008F70873018F58093E9008091EB0085FBE1
:1034B000882780F91092E90006C080910504880FE2
:1034C00090910803892B9091E800977F9093E800F2
:1034D0008093F1001092F1008091E8008E7723C074
:1034E000811116C080910D03813011F18091E800A7
:1034F00083FF0AC08091E800877F8093E800809175
:10350000EB0080628093EB00AA96E3E00C944631D6
:10351000823061F780910D03811581F01092E900EE
:103520008091E800877F8093E8000E944910DECFF9
:10353000933009F080E080930504F0CF80910F0371
:103540008F70282F2150263088F68093E900209133
:10355000EB0020FFE3CF933031F48091EB008062E9
:103560008093EB00DBCF9091EB0090619093EB00A8
:1035700021E001C0220F8A95EAF72093EA00109219
:10358000EA008091EB008860EBCF8111AFCF809192
:103590000D038F77182F8091E3008078812B809323
:1035A000E3008091E800877F8093E8000E94491043
:1035B0008091E80080FFFCCF8091E30080688093D9
:1035C000E30083E0111101C082E0809306048ECFF6
:1035D0008058823008F08ACF20910D0330910E037D
:1035E0002C3D83E0380791F583E08A838AE2898362
:1035F0004FB7F894DE01139620E03EE051E2E32F4E
:10360000F0E050935700849120FF03C082958F70A3
:103610003F5F8F708A30C0F0895C8D931D922F5F61
:10362000243169F74FBF8091E800877F8093E800DD
:103630006AE270E0CE0101960E94BC0F8091E80022
:103640008B778093E80052CF805DE7CF832F90E0A7
:103650008330910519F160F48130910509F46CC053
:103660008230910509F042CF8BE3E8EBF1E029C00D
:1036700020910F03309110038132910509F453C05A
:103680008232910509F032CF2130310508F45CC057
:1036900009F02CCF86EBEEEBF0E013C0822F90E028
:1036A000213099F182309105B9F1009709F01ECFD0
:1036B000E5E2F2E0E4918E2FE5E2F2E0009709F412
:1036C00015CF2091E800277F2093E8002091110377
:1036D000309112038217930708F49C0140E02115F2
:1036E0003105B1F5411134C08091E80082FDA6CFCB
:1036F00080910604811509F4A1CF853009F49ECF8D
:103700008091E80083FFF0CF99CFE3E1F2E0E4910C
:103710008E2FE3E1F2E0D2CFE5E0F2E0E4918E2FEC
:10372000E5E0F2E0CBCF2130310550F009F0DECEFC
:1037300089E0E3EEF1E0C5CF82E1E3EFF1E0C1CF54
:1037400089E0EAECF1E0BDCF84E4E4E7F1E0B9CF51
:1037500080910604811509F471CF853009F46ECF8C
:103760008091E80083FD6ACF8091E80082FDBCCFA4
:103770008091E80080FFB3CF4091F3008091F20088
:10378000942F2115310519F08830910550F041E052
:10379000089709F040E08091E8008E778093E80078
:1037A0009ECF44914093F10031962150310901960A
:1037B000E8CF803809F09ACE8091E800877F809327
:1037C000E800809109038093F10086CE81118ECEAE
:1037D00080910D03182F823008F088CE8091E80088
:1037E000877F8093E800109309030E944910111508
:1037F000A9F084E08093060442E061EC81E00E943D
:10380000191042E261EC82E00E94191080910604D6
:10381000843051F482E08093420168CE8091E300CD
:1038200087FDE7CF81E0E6CF81E0F5CFFF920F93F0
:103830001F93CF93DF93C62FD42FF22E8115A9F0BB
:10384000609364079BD9809323039093240381E0C2
:10385000C1FD84E0C0FD880FC2FD82950E94281240
:10386000CDB7DEB7E5E00C9444318091640768136E
:1038700032C0009123031091240380D9801B910B47
:103880008E35914040F51D2F105ECD17A1F0C77009
:1038900001E0802F01C0880FCA95EAF70E9431121B
:1038A000183048F48D2F877001C0000F8A95EAF711
:1038B000802F0E94281260E070E08F2DB3DC81E041
:1038C000D1FD84E0D0FD880FD2FD8295183040F6FE
:1038D0000E943112C5CF81E0C1FD84E0C0FD880F98
:1038E000C2FD8295F5CFA0E0B0E0E9E7FCE10C94E1
:1038F00022317C01FC018481811509F478C061E0EA
:10390000C7010E946209EC01F7018581811509F464
:103910005AC091819093630790819093620790E2DF
:1039200090934301C0936007D09361079E0130528A
:103930003032A0F496819031F8F0EC2FF0E0ED33C6
:10394000F10528F4EB51F54FE491E0934301C034C5
:103950009EE7D90751F421ED3BE057C09E0130545A
:10396000303128F59681903140F7FE01E851FC474F
:10397000E730F10508F4F6C4109264079E01305751
:103980002332310508F0C3C484E090E00E94F33193
:103990008093720790937307FE01E150F047E23283
:1039A000F10508F0E4C0E25BFD4C0C948D319E0102
:1039B00031503F3110F29E01205A324520323105FC
:1039C000D8F2FE01BCCFC0349EE7D90709F0C4C4C9
:1039D00080917107877059F0F7018581811539F061
:1039E0008091730782FF03C082E00E94E806CDB792
:1039F000DEB7EBE00C943E31923019F5FE01849174
:103A00002D5F3F4FE90177DB9E01F901849181151C
:103A1000F9F2E9012196813009F047C0FE01949145
:103A2000892F2196913041F7FE0184912D5F3F4F00
:103A3000E90160E570E0893311F060E070E0F2DBED
:103A4000E3CF933039F4FE0184912D5F3F4FE901BC
:103A5000BADBDACF943089F4FE0184912D5F3F4FB9
:103A6000E90120E030E09AE0482F4053550B4A30FE
:103A7000510530F02115310579F48111C5CFA8CF5A
:103A8000929FB001939F700D11249A01260F371F4A
:103A9000FE0184912196E8CFEFE9FFE03197F1F73D
:103AA00000C0000021503109E5CFE82FF0E0EF5AC7
:103AB000F44F9491992E282F26952695269530E03F
:103AC000F901EF5BF44FC4908770D12C082E02C02F
:103AD000D594C7940A94E2F7F901EF5CF44FA490EF
:103AE000B12C082E02C0B594A7940A94E2F72F5D7A
:103AF000344FF901049110E002C0159507958A959D
:103B0000E2F7C0FE02C081EEF6DAA0FE02C086EE49
:103B1000F2DA60E070E0892D85DBA0FE02C086EE5F
:103B200052DBC0FE02C081EE4EDB00FF6DCF60E0D5
:103B300070E08CE284CF26E241EE61EE77DE48CF82
:103B400027E245EE65EEFACF26E241EE60EEF6CFD3
:103B500027E245EE64EEF2CF26E241EE62EEEECFD2
:103B600027E245EE66EEEACF28E241E0EBCF809116
:103B7000720781608093720760917207709173077A
:103B800084E090E00E94213263DB22CF80917307B2
:103B9000886080937307F0CF809172078260EACFCC
:103BA000809172078460E6CF809172078860E2CFCF
:103BB000809173078160EDCF809173078260E9CFB8
:103BC000809172078061D6CF809172078062D2CFD8
:103BD000809172078064CECF3BDB80917207806852
:103BE000C9CF809172078C60C5CF809173078360C5
:103BF000D0CF809172078E7FBDCF80917307877F72
:103C0000C8CF809172078D7FB5CF809172078B7F6F
:103C1000B1CF80917207877FADCF809173078E7F80
:103C2000B8CF809173078D7FB4CF809172078F7E5C
:103C3000A1CF809172078F7D9DCF809172078F7B7E
:103C400099CF06DB809172078F7794CF80917207AE
:103C5000837F90CF809173078C7F9BCF9091720769
:103C6000892F8B7F92FF8460877F92FF886082CF4D
:103C700080917307982F909590FB80F990FB81F9C4
:103C800088CF90917207892F8F7B96FF806472CFC7
:103C9000DFDA90917207892F97FB87F980586ACFF6
:103CA00061E08EE090E00E94073266CF60E0F9CFDD
:103CB00090917207892F8F7E94FF80615BCF9091E6
:103CC0007207892F8E7F90FF816054CF9091730788
:103CD000892F877F93FF88605CCF89E22AC389E2BE
:103CE00038C390916E079272FE01E054F847EF30AE
:103CF000F10558F4E059FD4C0C948D319E01205291
:103D000038472B30310508F463CE9E01205E3245E2
:103D10002032310508F072C0811182C0CF7181E07C
:103D200090E002C0880F991FCA95E2F7EC01682F56
:103D300083E090E00E940732CE010E942F0648CE19
:103D400080916607837011F4109244018091660798
:103D50008C7F8160809366070E94CC0A39CE809167
:103D60006607837011F010924401809166078C7F82
:103D7000F1CF8091660791E08927809366071092C2
:103D80004401EACF911529F00E94580D21CE9115DA
:103D9000D9F30E944F0D1CCE911529F00E94770D8A
:103DA00017CE9115D9F30E946F0D12CE911529F0FF
:103DB0000E948A0D0DCE9115D9F30E947F0D08CE79
:103DC000911529F00E94A00D03CE9115D9F30E9400
:103DD000950DFECD911529F00E94B40DF9CD9115E8
:103DE000D9F30E94AB0DF4CD911529F00E94D30DAB
:103DF000EFCD9115D9F30E94BD0DEACD8115B9F132
:103E0000CB359CE7D90751F1CC359CE7D907D9F0E0
:103E1000CA359CE7D90701F1C1309CE7D90731F1D8
:103E2000C3309CE7D907E1F0C115DC4701F510DA92
:103E30008FEF94E32CE0815090402040E1F700C0E8
:103E400000000E94AB0F80917307002482FF03944F
:103E5000802D0E94BB11BCCD81E0FBCF80E0F9CF6B
:103E60006FEF7FEF80E090E00E9421321DDAF701D2
:103E70002781308521153105D1F1C9010E94420801
:103E8000D82FC92FF701D580068102950F70809138
:103E90007107877001F1CD2CD114F1F0892F807F4B
:103EA000803461F08D2F805E8830A8F0892F807E6D
:103EB000803221F4D23078F0011569F080917307D7
:103EC00082FF09C082E00E94E80680917107877036
:103ED000CC24C3948111C12CEC2FE295EF70C03C2F
:103EE00008F078C0F0E0E158FD4C0C948D31008171
:103EF0001181811569F0C8010E942E09C82F682F11
:103F0000C8010E945706B8018C2F0E942D07B6CF1A
:103F1000C8010E948C06C82FF6CF1C2F1F70C0311D
:103F200010F01295107FD114B9F0111569F08D2F92
:103F3000805E883010F0D11109C080916E07812B0E
:103F400080936E070E94D2118D2F3EC0809174071E
:103F5000812B80937407F6CF8D2F35D91115D1F1B0
:103F60008D2F805E883010F0D11104C0812F0E9407
:103F7000250706C0109580917407812380937407EC
:103F80000E94D21127C01C2F1F70C07FC03211F0B9
:103F90001295107FD13040F009F461C0D11409F4BA
:103FA0006BC0011599F1D0CF8091730782FD2AC0B3
:103FB000D11461F0111539F080916E07812B809337
:103FC0006E070E94D21180E096D804C080E0FBD832
:103FD0001111CCCFC11409F4B7C08091710780FDD5
:103FE000B3C0F70115828695869586950E9439069D
:103FF000C70179DC809171078695869586950E9428
:104000004706A2C0D11489F0013020F4812F0E940C
:104010002812E0CFF9F680916F07912F9823191796
:10402000C9F2812B80936F07D5CF0111D3CF812F98
:104030000E94311290916F07812F892329F0812FDF
:104040008095892380936F0780917007912F982323
:1040500009F4C0CF1095182310937007BBCFD1146B
:1040600021F0063008F0B6CFD1CF053008F0B2CF3E
:10407000812F0E943112AECF0115D1F3D93349F40B
:104080008FEF97EE23E0815090402040E1F700C091
:1040900000008D2F98D89ECF8C2F869586958370A3
:1040A000813060F009F096CF8D2F9C2F9370D11046
:1040B00002C080E090E00E94FE0E8CCF8D2F9C2FDE
:1040C0009370D11002C080E090E00E94D70E82CFA2
:1040D0006D2D8D2F0E94BC177DCF8C2F837009F022
:1040E00046C0D1102FC04D2F429546954770440FC2
:1040F000440F2D2F2F7030E0042E02C0220F331FEB
:104100000A94E2F780E090E0D4FF09C08FE090E0ED
:1041100002C0880F991F4A95E2F780959095C69541
:10412000C695C370C230D1F0C330A9F04091EC07FE
:104130005091ED07C13069F0822B932B8423952396
:104140000E942F060E94C40E60E0C7010E9462090F
:104150004ECC242B352B822B932BF2CF822B932BFF
:104160002091EC073091ED0782279327E9CFD114F6
:1041700091F1C0FFE7CF4D2F429546954770440F10
:10418000440F2D2F2F7030E0042E02C0220F331F5A
:104190000A94E2F780E090E0D4FF09C08FE090E05D
:1041A00002C0880F991F4A95E2F780959095C695B1
:1041B000C695C370C230C1F0C33099F04091EE078C
:1041C0005091EF07C13059F0822B932B8423952314
:1041D0000E943406B7CF823008F4B4CFCCCF242B62
:1041E000352B822B932BF4CF822B932B2091EE0730
:1041F0003091EF0782279327EBCFCF70D11439F09E
:104200008C2F0E9439068D2F0E9428129BCF8D2F54
:104210000E9431128C2F0E94470694CFD23F99F111
:1042200070F4D03FC9F0D13F91F0D11409F45BC0D4
:10423000011509F455C08D2F0E947B1883CFD33F01
:1042400049F1D43F91F79091730792FD31C08C2FC3
:104250008F71D11401F31BC0D11499F0053008F00F
:1042600071CFCF7181E090E002C0880F991FCA958D
:10427000E2F7EC018091EE079091EF078C279D27E4
:10428000A7CF0630ECCF8C2F8F71D110C4CF0E94F6
:10429000390658CF80E090E0D11409F499CFCF715E
:1042A00081E090E002C0880F991FCA95E2F790CF95
:1042B000D11461F08C2F8F7192FFE9CF982F990F55
:1042C000990F990F936090937107E1CF81E00E945D
:1042D000E806023008F436CF82E00E94E80632CFCA
:1042E0008C2F8F71D4CF011579F0D93349F48FEF2A
:1042F00097EE23E0815090402040E1F700C000009D
:104300008D2F0E94E3181ECF8C2F8F7184CFC63162
:104310009CE7D90709F0F2CC80916E078A7A91E088
:10432000811101C090E090936507811509F4D5CC07
:1043300085E30E94250F0E94D2114ACBC6319CE72B
:10434000D90709F0CECC80916507811509F4C7CC57
:1043500085E30E94590FEFCFFE01E851FC47E7309B
:10436000F10560F7E557FD4C0C948D3180913C07C9
:10437000803170F480913B07811551F0E091ED069A
:104380002091EC0630913707409136072E1301C07B
:104390000895BF0189E0E89FF0011124DF01A251D7
:1043A000B94F14968C911497811551F111968C91F7
:1043B0001197831325C08C91841322C015968C917C
:1043C000159781111DC012968D919D91A09138076E
:1043D000B09139078A1B9B0B8E35914088F48091F0
:1043E0003C078F70806180933C07EC50F94F8081CF
:1043F0008F708061808386E397E075DA0C94DE0627
:104400006F5F7F4FFB01E770C1CFAFE0B0E0EBE043
:10441000F2E20C9420318C0186E0F801DE011A965C
:1044200001900D928A95E1F7F801F580C48086E34A
:10443000882E87E0982E70903A0771101FC0C11423
:10444000D1F0F11409F443C1C8010E948F0981150C
:1044500009F43DC189E0F801D40101900D928A95DB
:10446000E1F78C2D813031F4809136079091370738
:104470000E9485097BDFFF24F3945DC0E080A28069
:10448000B380D0903B078091380790913907950110
:10449000281B390BC901D11409F4E2C08E359140B3
:1044A00008F0B0C0C11439F390913707C1808091F2
:1044B0003C07803108F05FC0C9121CC090913607DC
:1044C0009E1118C040913D0750913E0727813085CD
:1044D0004217530779F4F11048C08F7080618093C0
:1044E0003C0786E397E0FFD980913C07F80186837B
:1044F000F12C21C0F11039C040E06C2D8E2D0E94AE
:10450000BF0640E06C2D8E2D0E94BF06F82E811153
:10451000EFCF8A859B850E948509292F22952F70D0
:10452000903470F49F70223098F09115A9F0F80142
:104530009681903188F48F2D2F96EDE00C943C31CC
:104540002A5F2F70223060F0C801CDD9FD2CF3CF47
:10455000911511F0811579F3805E883060F3F4CF06
:10456000803F48F3815F8330F9CF80913C078160C1
:1045700080933C07BDCFC9121BC0909136079E1196
:1045800017C040913D0750913E0727813085421763
:10459000530771F4F1100CC08683C801A4D989E0D7
:1045A000F801A6E3B7E001900D928A95E1F763CF99
:1045B000C8010E948F09811509F489C0F11409F41A
:1045C00086C080913C078032A0F020913607309160
:1045D000370729833A83AB82BC827D821E828F8318
:1045E00080913D0790913E0788879987CE0101967B
:1045F0007AD989E0F801A6E3B7E001900D928A9597
:10460000E1F738CF80913C07803148F486E397E0AA
:104610006AD9F40189E011928A95E9F769CFC1144A
:1046200009F429CF2091370791812913C1CF9091A7
:1046300036079E11BDCF40913D0750913E0727811F
:1046400030854217530709F0B3CFF110B1CF8683FD
:10465000C80149D9F40189E011928A95E9F70BCF95
:104660008E359140B0F6C11409F405CFF11479F1FB
:10467000909137078181981320C0809136078E1161
:104680001CC020913D0730913E07878190852817F7
:10469000390799F490913C0790FD81CF903108F44F
:1046A0007ECF892F9683907F903F09F476CF982F05
:1046B000907F905F8F70892B6FCFC8010E948F0908
:1046C000811197CF80913C07816080933C07C8019E
:1046D0000AD9D1CEA2E1B0E0E0E7F3E20C942931AF
:1046E0000A871B872C873D874E875F87688B798B6E
:1046F0008A8BCE010A9689DE81112EC02091EC06AC
:104700003091ED0689E0AE01465F5F4FFA014950F6
:104710005109DA0101900D928A95E1F78E85811594
:10472000D9F0822F90E08395877090E0AC01341728
:104730001506E1F099E0929FD0011124A251B94FE2
:104740009E012F5F3F4FF90101900D929A95E1F77D
:104750004093EC060E94DE068091ED069091EC06F7
:10476000891311C06296E4E00C9445310E94281927
:104770001092EC061092ED06E6E3F7E089E0119264
:104780008A95E9F7E9CF29E0829FC001112482517F
:10479000994F3BDE811531F38091ED069091EE0645
:1047A000019687708093ED06D7CFA9E0B0E0EBEDDE
:1047B000F3E20C9427317C01FC0182819381892BE7
:1047C00091F0FE01319687E011928A95E9F70E94F7
:1047D000BE159C01F7017281838109811A8144E031
:1047E0005E816F8177DFF70115822996E6E00C94F0
:1047F0004331EF92FF920F931F93CF93DF938091FA
:10480000E907E0912503CDE0811130C0CDB7DEB7D7
:10481000E6E00C944331DE2FDF5FD0932503EE2ECC
:10482000F12CCE9FF0011124EF57F84F84818115B0
:10483000E1F087819085892B21F48185928501960D
:1048400051F4008111812281338144815581668137
:10485000778180853FDFCE9DF001CF9DF00D112443
:10486000EF57F84F148210927407ED2F8091E907EB
:10487000E81788F21092E90710922503C7CF4F92EC
:104880005F927F928F929F92AF92BF92CF92DF9270
:10489000EF92FF920F931F93CF93DF93C091800706
:1048A00091E0E92EF12C80917F078C1313C0A1DFDA
:1048B0000E940A0EDF91CF911F910F91FF90EF9010
:1048C000DF90CF90BF90AF909F908F907F905F9040
:1048D0004F900895D0E0FE01EE0FFF1FEB58F84F08
:1048E00000811181A0E0B0E00330110540F487E0C1
:1048F000809FD001819FB00D1124AB5BBE4F1496F9
:104900008C911497811159C07090E90741E857E0E4
:1049100020E030E0A12C271508F04CC0FA014384B8
:104920005484CD90DD90129799249A94892CB12CBF
:104930008B2D90E0F601EB0DF11DEB0DF11D659156
:1049400075914616570609F0C401672B19F0B39408
:104950004C01EECF8F3F9807A9F1B70101C0660F58
:104960008A95EAF7A62AC7010B2C02C0880F991F67
:104970000A94E2F70197A816190611F512968D917F
:104980009D914DE0429FF001439FF00D1124EF57A0
:10499000F84F8783908784E0848310821182018797
:1049A000128781E011968C9315978B2D813011F42D
:1049B000CD01FBDEC8010E94270EC395C37073CFE3
:1049C000FA0114822F5F3F4F435F5F4FA4CF1092D5
:1049D000EA071092EB0710925A0180917F078093AB
:1049E00080070E940A0E05CFAEE1B0E0EAEFF4E2E4
:1049F0000C941B314B8B5C8B6D8B7E8B8F8B792E4C
:104A0000988F911110927407188A198A1A8A86E071
:104A1000FE017396DE011A9601900D928A95E1F7D8
:104A20006F886114E1F06E867F8661E0CE010A96A0
:104A30000E94620961E0CE010A960E94620961E06B
:104A4000CE010A960E9462096C0180E5C8168CE7C7
:104A5000D80689F4711421F181E080935A016E86A1
:104A60007F860A851B852C853D85A3016889798908
:104A70008A8930DEC3C081E5C8168CE7D80621F4E8
:104A8000711471F0A4DFEBCF82E5C8168CE7D8066D
:104A900039F4711429F080915A018111F3CFDCCFE0
:104AA00005E411E0412CA12CB12C45018394F801BF
:104AB000208131816FEF80E09FEFE82EF12CF9012A
:104AC000E80FF11DE80FF11D45915591C416D5066B
:104AD00011F0E62EF92E452B21F08F5F6E2D9F2DC4
:104AE000ECCF9FEFE916FE0409F448C1F8014481B8
:104AF00050905A014111512CF80135809681711462
:104B000009F403C1511409F400C1311014C021E0AB
:104B10000E2C01C0220F0A94EAF7922B9683209163
:104B20007D0730917E072233310528F422E320935C
:104B30007D0710927E07940102C0220F331F8A95D1
:104B4000E2F7C9010197F80126812817190609F033
:104B5000C3C0E090EA07F090EB07E114F10409F418
:104B600051C00E94BE158E199F09C39708F44AC010
:104B700081E0F8018483482A8FEFA81AB80A095FF8
:104B80001F4F83E0A816B10409F091CF711409F406
:104B9000F7C0411409F4F4C00E94BE158093EA07DF
:104BA0009093EB078091E907883040F5982F9F5F3D
:104BB0009093E90799E0FE013A969E012F5F3F4FDF
:104BC000D90101900D929A95E1F76D827E822DE0D8
:104BD000829FC00111248F57984F29E0AE014F5F8B
:104BE0005F4FFA01DC0101900D922A95E1F72FEF5A
:104BF0003FEFFC0121873287C386D4866E96E2E1BF
:104C00000C9437319091800780917F07292FA0E085
:104C1000B0E037E061E0981709F44DC0492F50E04B
:104C2000998F1A8EFA01EE0FFF1FEB58F84F408153
:104C30005181A0E0B0E04330510538F4349FD001F9
:104C4000359FB00D1124AB5BBE4F4D915D91129716
:104C50004D8F5E8FE12C70E0F12CED8DFE8DEF0D10
:104C6000F11DEF0DF11D2590359021143104D9F07F
:104C7000F801408151814B8F5C8F70E007C0E1E00B
:104C80002416350609F0E0E0EE2A7F5FEB8DFC8DFF
:104C9000E70FF11DE70FF11D4591559141155105A4
:104CA00071F7F394DACFE11469F17F15B8F4F801E4
:104CB00091E09483D80120938007A017B10761F099
:104CC00090E0FC01EE0FFF1FEB58F84FA082B1827D
:104CD0000196837080937F07852D4DCF109761F0EB
:104CE00014966C931497A017B10729F3921304C07C
:104CF000A9014395242F2370498D5A8D4395942FF4
:104D0000937089CFA0E0B0E0F7CF292F30E03110C9
:104D10001FC0B40102C0660F771F8A95E2F7CB016E
:104D200001978217930771F0512CC40102C0880FBC
:104D3000991FEA94E2F77C01E094F80186818E21C4
:104D40008683CACF411589F3C5010E94270EECCF97
:104D5000A9010E2C02C0559547950A94E2F7C901A6
:104D6000019782239323892B31F440FF04C0C801AB
:104D70001CDD532CDACF4170542ED7CF80E0FBCE10
:104D80009091800780917F07981731F078DD842D0E
:104D9000813009F433CF63CE2CDD1092EA071092F4
:104DA000EB070E940A0EF3CFA6E0B0E0EAEDF6E2D0
:104DB0000C9429310E94BE158C018091C0069091FF
:104DC000C1068017910771F019821A820E94BE15E0
:104DD000BC0149815A8180E090E006DE0093C00664
:104DE0001093C1062696E4E00C944531CDB7DEB7AA
:104DF00060970FB6F894DEBF0FBECDBF85B7806851
:104E000085BF85B7806885BF84B7877F84BF0FB6AD
:104E1000F894A8958091600088618093600010925A
:104E200060000FBE80E890E00FB6F89480936100B8
:104E3000909361000FBE81E0809342018FEB99E077
:104E40008093DE029093DF020E94E8100E94991086
:104E50008091E20084608093E2007894809106045F
:104E6000811599F08091E9001091EC008F7010FB92
:104E7000112717F9182B1092E9008091E80083FDA3
:104E80000E9469191F701093E90082E084BD93E0CD
:104E900095BD9AEF97BD80936E001092BC0610925C
:104EA000BD061092BE061092BF0688EC90E02091DD
:104EB000E30027FD0EC0EFE3FCE93197F1F700C0F6
:104EC00000000197A1F70E94E8101092060480E00C
:104ED00001C081E08093BA068093BB0680930501F0
:104EE00081110E94B82F809105018091050191E008
:104EF0008927880F880F8093B10694E0981B9093C0
:104F0000A50638E6E32E32E0F32E0CE612E0F701B8
:104F100081917F018F3F11F00E94C1090E151F057D
:104F2000B1F72CE6E22E22E0F22E02E712E0F701C2
:104F300081917F018F3F11F00E94C1090E151F055D
:104F4000B1F7E9EAF6E088E011928A95E9F7E2EB39
:104F5000F6E088E011928A95E9F780E090E00E94FF
:104F6000F331833E9E4F69F163EE7EEF80E090E087
:104F70000E94213260E082E090E00E94073281E0EE
:104F800090E08093EC071092ED0761E083E00E94CF
:104F9000073260E074E184E090E00E9421320E94D8
:104FA000C61360E070E0AB018FE090E00E94193220
:104FB00060E070E0AB0183E190E00E9419320E9452
:104FC000BB1382E090E00E94EB318093380484E0D0
:104FD00090E00E94F33180937207909373070E94D0
:104FE0000D168FEF96E721E0815090402040E1F7C9
:104FF00000C000000E940D16E091BB0611E0E12701
:10500000EE0FEE0FF0E0E755F94F808181FF08C009
:105010006FEF7FEF80E090E00E9421320E94AB0FA3
:1050200083E090E00E94EB3190E00E942F060E9406
:10503000FD0D1092D80340E150E06FEF70E081EF7A
:1050400093E00E94D4311092070440E150E06FEFEA
:1050500070E080E294E00E94D4311093D70348E0DE
:1050600050E067E170E086E697E00E94DB31109245
:10507000D70380916607843010F40E94C613809194
:10508000BA068127880F8093610680E88093030425
:105090000AD66BE070E084E898E00E948B148115DA
:1050A000E9F18091610665E070E081FD4BC18FE719
:1050B00098E00E948B14811589F16DE070E08DE617
:1050C00098E00E948B14811549F10E94840FDC0145
:1050D000CB0180529C46AB4FBF4F809365069093A7
:1050E0006606A0936706B0936806E1E6F4E0DF0188
:1050F00080E092E01D920197E9F7E0930104F093BC
:1051000002048FEF9FEF809363069093640681E023
:1051100080936C0680936906109262068091BA06AD
:10512000811101C028D786E091E08093E206909338
:10513000E306712C612ECE0101968D879E878091AA
:105140000604853081F400E110E482E1F82E8091BC
:105150000604853009F4F9C00E9428190E94C40E83
:1051600080E00E94240D0E940D1689E394E0898757
:105170009A8789EA96E08B879C87FC01A9E3B4E0D3
:105180009D91808121E434E02A173B0709F43BC15B
:1051900031969817A9F38091BA06888BB0E3CB2E8D
:1051A000B4E0DB2E8CE891E08F839887512CEB855F
:1051B000FC854190EB87FC87E985FA858191E98739
:1051C000FA87841509F4ACC084258F8700E010E0CD
:1051D000332433948F85832109F498C0232C242011
:1051E00088898115F9F0F601808190E09301002E05
:1051F00001C0220F0A94EAF78223892B99F40983CC
:105200005A820E94BE158B839C8381E08D8391E03E
:10521000211001C090E09E8349815A816B817C817D
:105220008D81E2DB211441F0EF81F885E00FF11F61
:1052300080818F3F09F04CC3812CE82CF12C8091A8
:105240000704880D9927991F09976CF1E8E0AE2EA5
:10525000B12CAE18BF08B701685F7B4FA50188E08D
:1052600094E00E94CB31B701605F7B4FA50180E1E4
:1052700094E00E94CB31A501440F551FB701660F82
:10528000771F605E7B4F80E294E00E94CB31B701D4
:10529000685E7B4FA50188E194E00E94CB3188E0F5
:1052A000881980930704811419F140910704892D0E
:1052B00090E0242F30E0F901E95FFB4FDC01AA0FF9
:1052C000BB1FA454BE4F5C915183880F991F845714
:1052D0009E4FDC01D1968C918187918A220F331FDA
:1052E000F901E95FFB4F118E128E4F5F4093070467
:1052F00021100CC0862D002E01C0880F0A94EAF7F9
:10530000982F9095F601808189238083330C0F5F5D
:105310001F4F0630110509F05DCFE985FA854292ED
:1053200053948FEFC81AD80A8F81988506968F8379
:105330009887852D883009F03ACF0E94900FDD24A0
:10534000D39465C08AE798E0B4CE80910604843097
:1053500051F10E94DC1381E00E94240D0E94BA14D6
:105360001092040488E190E00FB6F894A895809319
:1053700060000FBE1093600083B7817F846083BF9D
:1053800083B7816083BF7894889583B78E7F83BF0E
:105390000FB6F894A89580916000886180936000B2
:1053A000109260000FBE0E940D16E9EAF6E0A0E33D
:1053B000B4E080E021912D9391E0211101C090E0B3
:1053C000892B96E0E13BF907A9F7811509F4BFCED7
:1053D00080910504811509F4BACE09BDF9BC09B460
:1053E00000FEFDCF8091D8008F7D8093D800809102
:1053F000E00082608093E0008091E00081FDFCCFBE
:105400000E942819A4CE9813C6CECEDCD12C809150
:10541000BA06811531F180915A01811511F100917F
:10542000EA071091EB0701151105D9F00E94BE158E
:10543000801B910B20917D0730917E07281739073B
:1054400080F49091800780917F07981709F444C2F7
:1054500016DA10927D0710927E071092EA071092DA
:10546000EB070E94DC1380916C06811509F454C18E
:1054700000916A0610916B060E94BE15801B910B6D
:10548000C29708F46FC00E94BE1580936A0690937D
:105490006B0680E00E94EC0D80916906811509F48D
:1054A00061C08091BA06811509F437C280E00E947C
:1054B000EC0D60E08DEF98E00E9486158091EE077C
:1054C0009091EF070E941006823009F41AC208F08A
:1054D0000CC2811112C260E082EF98E00E94861532
:1054E00082E00E94EC0D0E94C40E182F117081FB07
:1054F000662760F981EB98E00E94861560E08DEAEE
:1055000098E00E948615612F83EA98E00E94861534
:1055100083E00E94EC0D10916E07812F827261E092
:10552000811101C060E08EE998E00E94861561E07B
:10553000812F817109F460E089E998E00E94861565
:1055400061E0812F847409F460E084E998E00E94AE
:105550008615187861E0111101C060E08FE898E0CD
:105560000E9486158091630690916406892B09F448
:10557000B8C080916C06811509F4B3C080916206B1
:105580008111AFC00E9498148091630690916406C7
:10559000009709F4A6C080FBEE24E0F8F12C10E09F
:1055A00080FD0DC01F5F7301012E02C0EE0CFF1CB9
:1055B0000A94E2F7970128233923232B99F380914A
:1055C000610680FFADC1912F990F990F990F392F67
:1055D000395F80E023E090931201809315013093AE
:1055E00013012093160124E630E047E050E060E12B
:1055F00071E088E78BD3892B09F073C080E2189F94
:10560000A00111248091610680FF9CC1E1E4F4E0D7
:1056100080E211928A95E9F702E612E09EE5492EB2
:1056200092E0592ED801ED918D01D2018D912D017D
:105630001A01280E311CF0E0EF5BFB4F20E030E058
:1056400087E0A82EA21AC62C022E01C0CC0C0A9408
:10565000EAF7C1018F599B4F8F83988790E0AF8104
:10566000B8858D91AF83B8878C21AA2DA91BA7700F
:10567000B0E0682F0A2E01C0660F0A94EAF7B195D0
:10568000A195B109A77001C08695AA95EAF7862B66
:10569000A081A82BA0839F5F983009F72F5F3F4F11
:1056A00031962830310561F686E692E08017910741
:1056B00009F0B8CF04E610E020E230E041E454E025
:1056C00060E488E7B3D3892B61F4E094F09480918F
:1056D000630690916406E822F922E0926306F09254
:1056E0006406809169068115B9F00E94840F0091CB
:1056F0006506109166062091670630916806DC0108
:10570000CB01801B910BA20BB30B8F3F9F4FAF4F71
:10571000BF4710F40E94BA14D1100E94981486E07A
:10572000EAE5F7E0AD85BE8501900D928A95E1F737
:10573000B0905B07E0905C07D0905D07C0905E077B
:10574000F0905F0710925C0710925D0710925E0761
:1057500010925F078E2D8D2909F441C000916F06CC
:10576000109170060E94BE15801B910B9C019091B8
:105770005807911509F4F2C02531310580F19F3F9A
:1057800019F09F5F90935807E11459F00E947F0E23
:1057900091E01E140CF09FEF899F802D11248093BF
:1057A0005C07D11459F00E947F0E91E01D140CF09B
:1057B0009FEF899F802D112480935D0780915C0766
:1057C000811569F010915D07111549F00E94710E65
:1057D00080935C07812F0E94710E80935D078C2D52
:1057E0008F2909F441C000916D0610916E060E9448
:1057F000BE15801B910B9C0190915707911509F4E0
:10580000A8C02135310580F19F3F19F09F5F90932B
:105810005707C11459F00E949F0E91E01C140CF020
:105820009FEF899F802D112480935E07F11459F01A
:105830000E949F0E91E01F140CF09FEF899F802D16
:10584000112480935F0780915E07811569F01091A4
:105850005F07111549F00E94710E80935E07812F3A
:105860000E94710E80935F0780915B07B81219C088
:1058700080915C07811511F0E81213C020915D073B
:10588000211511F0D2120DC090915F07911511F002
:10589000F91207C030915E07311103C0822B892BAA
:1058A00011F00E94941786E0ED85FE85AAE5B7E029
:1058B00001900D928A95E1F70E94C40E90917106B5
:1058C000891709F43CCC809371060E94840F37CC71
:1058D000982E88248394B1CC0E94F9231092EA0771
:1058E0001092EB070E940A0EBCCD833071F0843019
:1058F00081F060E08BEB98E0F1CD60E087EE98E01E
:10590000EDCD60E08CED98E0E9CD60E081ED98E0D0
:10591000E5CD60E086EC98E0E1CD0E94D31522CE83
:1059200020E2129FC0011124880F492F441F550BFC
:105930005195242F912F9295990F9076392F315EA2
:10594000842F49CE4F595B4F04E610E020E230E04F
:10595000B7CE2B30310508F059CF86CF2B3031052B
:1059600008F00FCF3CCF78941F921FB61F921124DE
:105970008F939F93AF93BF9380911B0390911C03D0
:10598000A0911D03B0911E030196A11DB11D80932E
:105990001B0390931C03A0931D03B0931E03BF91A0
:1059A000AF919F918F911F901FBE1F9018951F92CE
:1059B0000F920FB60F9211242F933F934F935F9343
:1059C0006F937F938F939F93AF93BF93EF93FF93C7
:1059D0008091E10082FF09C08091E20082FF05C052
:1059E0008091E1008B7F8093E1008091DA0080FF5D
:1059F00024C08091D80080FF20C08091DA008E7F83
:105A00008093DA008091D90080FFA9C080E189BD30
:105A100082E189BD09B400FEFDCF81E080930604D8
:105A200080910A03811109C00E94E8100E94991018
:105A30008091E20084608093E2008091E10080FF29
:105A40001AC08091E20080FF16C08091E2008E7F34
:105A50008093E2008091E20080618093E200809177
:105A6000D80080628093D80019BC85E0809306043A
:105A700083E0809342018091E10084FF2FC08091F8
:105A8000E20084FF2BC080E189BD82E189BD09B4B9
:105A900000FEFDCF8091D8008F7D8093D80080914B
:105AA000E1008F7E8093E1008091E2008F7E809301
:105AB000E2008091E20081608093E200809109031E
:105AC000811509F452C084E0809306048091060495
:105AD000843009F052C082E0809342018091E1005D
